{
	"contracts/TheNftMarkContracts.sol": {
		"NFTMarket": {
			"abi": [
				{
					"inputs": [
						{
							"internalType": "address",
							"name": "_erc20",
							"type": "address"
						},
						{
							"internalType": "address",
							"name": "_erc721",
							"type": "address"
						}
					],
					"stateMutability": "nonpayable",
					"type": "constructor"
				},
				{
					"anonymous": false,
					"inputs": [
						{
							"indexed": false,
							"internalType": "address",
							"name": "seller",
							"type": "address"
						},
						{
							"indexed": false,
							"internalType": "address",
							"name": "buyer",
							"type": "address"
						},
						{
							"indexed": false,
							"internalType": "uint256",
							"name": "_tokenId",
							"type": "uint256"
						},
						{
							"indexed": false,
							"internalType": "uint256",
							"name": "price",
							"type": "uint256"
						},
						{
							"indexed": false,
							"internalType": "bool",
							"name": "saleState",
							"type": "bool"
						}
					],
					"name": "Deal",
					"type": "event"
				},
				{
					"anonymous": false,
					"inputs": [
						{
							"indexed": false,
							"internalType": "address",
							"name": "seller",
							"type": "address"
						},
						{
							"indexed": false,
							"internalType": "uint256",
							"name": "_tokenId",
							"type": "uint256"
						},
						{
							"indexed": false,
							"internalType": "uint256",
							"name": "price",
							"type": "uint256"
						},
						{
							"indexed": false,
							"internalType": "bool",
							"name": "saleState",
							"type": "bool"
						}
					],
					"name": "NFTLoadToTheMarket",
					"type": "event"
				},
				{
					"anonymous": false,
					"inputs": [
						{
							"indexed": false,
							"internalType": "address",
							"name": "ownerSeller",
							"type": "address"
						},
						{
							"indexed": false,
							"internalType": "uint256",
							"name": "_tokenId",
							"type": "uint256"
						},
						{
							"indexed": false,
							"internalType": "uint256",
							"name": "priviousPrice",
							"type": "uint256"
						},
						{
							"indexed": false,
							"internalType": "uint256",
							"name": "nowPrice",
							"type": "uint256"
						}
					],
					"name": "RedefineTheNFTPrice",
					"type": "event"
				},
				{
					"anonymous": false,
					"inputs": [
						{
							"indexed": false,
							"internalType": "address",
							"name": "ownerSeller",
							"type": "address"
						},
						{
							"indexed": false,
							"internalType": "uint256",
							"name": "_tokenId",
							"type": "uint256"
						},
						{
							"indexed": false,
							"internalType": "bool",
							"name": "saleState",
							"type": "bool"
						}
					],
					"name": "WithdrawTheNFTOrder",
					"type": "event"
				},
				{
					"inputs": [
						{
							"internalType": "uint256",
							"name": "_tokenId",
							"type": "uint256"
						},
						{
							"internalType": "uint256",
							"name": "newPrice",
							"type": "uint256"
						}
					],
					"name": "changeTheNftPrice",
					"outputs": [],
					"stateMutability": "nonpayable",
					"type": "function"
				},
				{
					"inputs": [],
					"name": "erc20",
					"outputs": [
						{
							"internalType": "contract IERC20",
							"name": "",
							"type": "address"
						}
					],
					"stateMutability": "view",
					"type": "function"
				},
				{
					"inputs": [],
					"name": "erc721",
					"outputs": [
						{
							"internalType": "contract IERC721",
							"name": "",
							"type": "address"
						}
					],
					"stateMutability": "view",
					"type": "function"
				},
				{
					"inputs": [
						{
							"internalType": "uint256",
							"name": "",
							"type": "uint256"
						}
					],
					"name": "idToIndexOrder",
					"outputs": [
						{
							"internalType": "uint256",
							"name": "",
							"type": "uint256"
						}
					],
					"stateMutability": "view",
					"type": "function"
				},
				{
					"inputs": [
						{
							"internalType": "address",
							"name": "from",
							"type": "address"
						},
						{
							"internalType": "uint256",
							"name": "_tokenId",
							"type": "uint256"
						},
						{
							"internalType": "bytes",
							"name": "data",
							"type": "bytes"
						}
					],
					"name": "onERC721Received",
					"outputs": [
						{
							"internalType": "bytes4",
							"name": "",
							"type": "bytes4"
						}
					],
					"stateMutability": "nonpayable",
					"type": "function"
				},
				{
					"inputs": [
						{
							"internalType": "uint256",
							"name": "",
							"type": "uint256"
						}
					],
					"name": "orderOfId",
					"outputs": [
						{
							"internalType": "address",
							"name": "seller",
							"type": "address"
						},
						{
							"internalType": "uint256",
							"name": "price",
							"type": "uint256"
						},
						{
							"internalType": "uint256",
							"name": "_tokenId",
							"type": "uint256"
						},
						{
							"internalType": "uint256",
							"name": "timeStamp",
							"type": "uint256"
						},
						{
							"internalType": "bool",
							"name": "saleState",
							"type": "bool"
						}
					],
					"stateMutability": "view",
					"type": "function"
				},
				{
					"inputs": [
						{
							"internalType": "uint256",
							"name": "",
							"type": "uint256"
						}
					],
					"name": "orders",
					"outputs": [
						{
							"internalType": "address",
							"name": "seller",
							"type": "address"
						},
						{
							"internalType": "uint256",
							"name": "price",
							"type": "uint256"
						},
						{
							"internalType": "uint256",
							"name": "_tokenId",
							"type": "uint256"
						},
						{
							"internalType": "uint256",
							"name": "timeStamp",
							"type": "uint256"
						},
						{
							"internalType": "bool",
							"name": "saleState",
							"type": "bool"
						}
					],
					"stateMutability": "view",
					"type": "function"
				},
				{
					"inputs": [
						{
							"internalType": "uint256",
							"name": "_tokenId",
							"type": "uint256"
						}
					],
					"name": "purchaseTheNft",
					"outputs": [],
					"stateMutability": "nonpayable",
					"type": "function"
				},
				{
					"inputs": [
						{
							"internalType": "bytes",
							"name": "_bytes",
							"type": "bytes"
						},
						{
							"internalType": "uint256",
							"name": "_start",
							"type": "uint256"
						}
					],
					"name": "toUint256",
					"outputs": [
						{
							"internalType": "uint256",
							"name": "",
							"type": "uint256"
						}
					],
					"stateMutability": "pure",
					"type": "function"
				},
				{
					"inputs": [
						{
							"internalType": "uint256",
							"name": "_tokenId",
							"type": "uint256"
						}
					],
					"name": "withDrawTheNft",
					"outputs": [],
					"stateMutability": "nonpayable",
					"type": "function"
				}
			],
			"devdoc": {
				"kind": "dev",
				"methods": {},
				"version": 1
			},
			"evm": {
				"assembly": "    /* \"contracts/TheNftMarkContracts.sol\":232:5906  contract NFTMarket{... */\n  mstore(0x40, 0x80)\n    /* \"contracts/TheNftMarkContracts.sol\":1655:2036  constructor(address _erc20,address _erc721){... */\n  callvalue\n  dup1\n  iszero\n  tag_1\n  jumpi\n  0x00\n  dup1\n  revert\ntag_1:\n  pop\n  mload(0x40)\n  sub(codesize, bytecodeSize)\n  dup1\n  bytecodeSize\n  dup4\n  codecopy\n  dup2\n  dup2\n  add\n  0x40\n  mstore\n  dup2\n  add\n  swap1\n  tag_2\n  swap2\n  swap1\n  tag_3\n  jump\t// in\ntag_2:\n    /* \"contracts/TheNftMarkContracts.sol\":1735:1736  0 */\n  0x00\n    /* \"contracts/TheNftMarkContracts.sol\":1717:1737  _erc20 != address(0) */\n  0xffffffffffffffffffffffffffffffffffffffff\n  and\n    /* \"contracts/TheNftMarkContracts.sol\":1717:1723  _erc20 */\n  dup3\n    /* \"contracts/TheNftMarkContracts.sol\":1717:1737  _erc20 != address(0) */\n  0xffffffffffffffffffffffffffffffffffffffff\n  and\n  sub\n    /* \"contracts/TheNftMarkContracts.sol\":1709:1771  require(_erc20 != address(0),\"address is 0 not fixed the law\") */\n  tag_6\n  jumpi\n  mload(0x40)\n  0x08c379a000000000000000000000000000000000000000000000000000000000\n  dup2\n  mstore\n  0x04\n  add\n  tag_7\n  swap1\n  tag_8\n  jump\t// in\ntag_7:\n  mload(0x40)\n  dup1\n  swap2\n  sub\n  swap1\n  revert\ntag_6:\n    /* \"contracts/TheNftMarkContracts.sol\":1808:1809  0 */\n  0x00\n    /* \"contracts/TheNftMarkContracts.sol\":1790:1810  _erc721 !=address(0) */\n  0xffffffffffffffffffffffffffffffffffffffff\n  and\n    /* \"contracts/TheNftMarkContracts.sol\":1790:1797  _erc721 */\n  dup2\n    /* \"contracts/TheNftMarkContracts.sol\":1790:1810  _erc721 !=address(0) */\n  0xffffffffffffffffffffffffffffffffffffffff\n  and\n  sub\n    /* \"contracts/TheNftMarkContracts.sol\":1782:1844  require(_erc721 !=address(0),\"address is 0 not fixed the law\") */\n  tag_9\n  jumpi\n  mload(0x40)\n  0x08c379a000000000000000000000000000000000000000000000000000000000\n  dup2\n  mstore\n  0x04\n  add\n  tag_10\n  swap1\n  tag_8\n  jump\t// in\ntag_10:\n  mload(0x40)\n  dup1\n  swap2\n  sub\n  swap1\n  revert\ntag_9:\n    /* \"contracts/TheNftMarkContracts.sol\":1987:1993  _erc20 */\n  dup2\n    /* \"contracts/TheNftMarkContracts.sol\":1974:1979  erc20 */\n  0x00\n  dup1\n    /* \"contracts/TheNftMarkContracts.sol\":1974:1994  erc20=IERC20(_erc20) */\n  0x0100\n  exp\n  dup2\n  sload\n  dup2\n  0xffffffffffffffffffffffffffffffffffffffff\n  mul\n  not\n  and\n  swap1\n  dup4\n  0xffffffffffffffffffffffffffffffffffffffff\n  and\n  mul\n  or\n  swap1\n  sstore\n  pop\n    /* \"contracts/TheNftMarkContracts.sol\":2020:2027  _erc721 */\n  dup1\n    /* \"contracts/TheNftMarkContracts.sol\":2005:2011  erc721 */\n  0x01\n  0x00\n    /* \"contracts/TheNftMarkContracts.sol\":2005:2028  erc721=IERC721(_erc721) */\n  0x0100\n  exp\n  dup2\n  sload\n  dup2\n  0xffffffffffffffffffffffffffffffffffffffff\n  mul\n  not\n  and\n  swap1\n  dup4\n  0xffffffffffffffffffffffffffffffffffffffff\n  and\n  mul\n  or\n  swap1\n  sstore\n  pop\n    /* \"contracts/TheNftMarkContracts.sol\":1655:2036  constructor(address _erc20,address _erc721){... */\n  pop\n  pop\n    /* \"contracts/TheNftMarkContracts.sol\":232:5906  contract NFTMarket{... */\n  jump(tag_11)\n    /* \"#utility.yul\":88:205   */\ntag_13:\n    /* \"#utility.yul\":197:198   */\n  0x00\n    /* \"#utility.yul\":194:195   */\n  dup1\n    /* \"#utility.yul\":187:199   */\n  revert\n    /* \"#utility.yul\":334:460   */\ntag_15:\n    /* \"#utility.yul\":371:378   */\n  0x00\n    /* \"#utility.yul\":411:453   */\n  0xffffffffffffffffffffffffffffffffffffffff\n    /* \"#utility.yul\":404:409   */\n  dup3\n    /* \"#utility.yul\":400:454   */\n  and\n    /* \"#utility.yul\":389:454   */\n  swap1\n  pop\n    /* \"#utility.yul\":334:460   */\n  swap2\n  swap1\n  pop\n  jump\t// out\n    /* \"#utility.yul\":466:562   */\ntag_16:\n    /* \"#utility.yul\":503:510   */\n  0x00\n    /* \"#utility.yul\":532:556   */\n  tag_28\n    /* \"#utility.yul\":550:555   */\n  dup3\n    /* \"#utility.yul\":532:556   */\n  tag_15\n  jump\t// in\ntag_28:\n    /* \"#utility.yul\":521:556   */\n  swap1\n  pop\n    /* \"#utility.yul\":466:562   */\n  swap2\n  swap1\n  pop\n  jump\t// out\n    /* \"#utility.yul\":568:690   */\ntag_17:\n    /* \"#utility.yul\":641:665   */\n  tag_30\n    /* \"#utility.yul\":659:664   */\n  dup2\n    /* \"#utility.yul\":641:665   */\n  tag_16\n  jump\t// in\ntag_30:\n    /* \"#utility.yul\":634:639   */\n  dup2\n    /* \"#utility.yul\":631:666   */\n  eq\n    /* \"#utility.yul\":621:684   */\n  tag_31\n  jumpi\n    /* \"#utility.yul\":680:681   */\n  0x00\n    /* \"#utility.yul\":677:678   */\n  dup1\n    /* \"#utility.yul\":670:682   */\n  revert\n    /* \"#utility.yul\":621:684   */\ntag_31:\n    /* \"#utility.yul\":568:690   */\n  pop\n  jump\t// out\n    /* \"#utility.yul\":696:839   */\ntag_18:\n    /* \"#utility.yul\":753:758   */\n  0x00\n    /* \"#utility.yul\":784:790   */\n  dup2\n    /* \"#utility.yul\":778:791   */\n  mload\n    /* \"#utility.yul\":769:791   */\n  swap1\n  pop\n    /* \"#utility.yul\":800:833   */\n  tag_33\n    /* \"#utility.yul\":827:832   */\n  dup2\n    /* \"#utility.yul\":800:833   */\n  tag_17\n  jump\t// in\ntag_33:\n    /* \"#utility.yul\":696:839   */\n  swap3\n  swap2\n  pop\n  pop\n  jump\t// out\n    /* \"#utility.yul\":845:1352   */\ntag_3:\n    /* \"#utility.yul\":924:930   */\n  0x00\n    /* \"#utility.yul\":932:938   */\n  dup1\n    /* \"#utility.yul\":981:983   */\n  0x40\n    /* \"#utility.yul\":969:978   */\n  dup4\n    /* \"#utility.yul\":960:967   */\n  dup6\n    /* \"#utility.yul\":956:979   */\n  sub\n    /* \"#utility.yul\":952:984   */\n  slt\n    /* \"#utility.yul\":949:1068   */\n  iszero\n  tag_35\n  jumpi\n    /* \"#utility.yul\":987:1066   */\n  tag_36\n  tag_13\n  jump\t// in\ntag_36:\n    /* \"#utility.yul\":949:1068   */\ntag_35:\n    /* \"#utility.yul\":1107:1108   */\n  0x00\n    /* \"#utility.yul\":1132:1196   */\n  tag_37\n    /* \"#utility.yul\":1188:1195   */\n  dup6\n    /* \"#utility.yul\":1179:1185   */\n  dup3\n    /* \"#utility.yul\":1168:1177   */\n  dup7\n    /* \"#utility.yul\":1164:1186   */\n  add\n    /* \"#utility.yul\":1132:1196   */\n  tag_18\n  jump\t// in\ntag_37:\n    /* \"#utility.yul\":1122:1196   */\n  swap3\n  pop\n    /* \"#utility.yul\":1078:1206   */\n  pop\n    /* \"#utility.yul\":1245:1247   */\n  0x20\n    /* \"#utility.yul\":1271:1335   */\n  tag_38\n    /* \"#utility.yul\":1327:1334   */\n  dup6\n    /* \"#utility.yul\":1318:1324   */\n  dup3\n    /* \"#utility.yul\":1307:1316   */\n  dup7\n    /* \"#utility.yul\":1303:1325   */\n  add\n    /* \"#utility.yul\":1271:1335   */\n  tag_18\n  jump\t// in\ntag_38:\n    /* \"#utility.yul\":1261:1335   */\n  swap2\n  pop\n    /* \"#utility.yul\":1216:1345   */\n  pop\n    /* \"#utility.yul\":845:1352   */\n  swap3\n  pop\n  swap3\n  swap1\n  pop\n  jump\t// out\n    /* \"#utility.yul\":1358:1527   */\ntag_19:\n    /* \"#utility.yul\":1442:1453   */\n  0x00\n    /* \"#utility.yul\":1476:1482   */\n  dup3\n    /* \"#utility.yul\":1471:1474   */\n  dup3\n    /* \"#utility.yul\":1464:1483   */\n  mstore\n    /* \"#utility.yul\":1516:1520   */\n  0x20\n    /* \"#utility.yul\":1511:1514   */\n  dup3\n    /* \"#utility.yul\":1507:1521   */\n  add\n    /* \"#utility.yul\":1492:1521   */\n  swap1\n  pop\n    /* \"#utility.yul\":1358:1527   */\n  swap3\n  swap2\n  pop\n  pop\n  jump\t// out\n    /* \"#utility.yul\":1533:1713   */\ntag_20:\n    /* \"#utility.yul\":1673:1705   */\n  0x616464726573732069732030206e6f7420666978656420746865206c61770000\n    /* \"#utility.yul\":1669:1670   */\n  0x00\n    /* \"#utility.yul\":1661:1667   */\n  dup3\n    /* \"#utility.yul\":1657:1671   */\n  add\n    /* \"#utility.yul\":1650:1706   */\n  mstore\n    /* \"#utility.yul\":1533:1713   */\n  pop\n  jump\t// out\n    /* \"#utility.yul\":1719:2085   */\ntag_21:\n    /* \"#utility.yul\":1861:1864   */\n  0x00\n    /* \"#utility.yul\":1882:1949   */\n  tag_42\n    /* \"#utility.yul\":1946:1948   */\n  0x1e\n    /* \"#utility.yul\":1941:1944   */\n  dup4\n    /* \"#utility.yul\":1882:1949   */\n  tag_19\n  jump\t// in\ntag_42:\n    /* \"#utility.yul\":1875:1949   */\n  swap2\n  pop\n    /* \"#utility.yul\":1958:2051   */\n  tag_43\n    /* \"#utility.yul\":2047:2050   */\n  dup3\n    /* \"#utility.yul\":1958:2051   */\n  tag_20\n  jump\t// in\ntag_43:\n    /* \"#utility.yul\":2076:2078   */\n  0x20\n    /* \"#utility.yul\":2071:2074   */\n  dup3\n    /* \"#utility.yul\":2067:2079   */\n  add\n    /* \"#utility.yul\":2060:2079   */\n  swap1\n  pop\n    /* \"#utility.yul\":1719:2085   */\n  swap2\n  swap1\n  pop\n  jump\t// out\n    /* \"#utility.yul\":2091:2510   */\ntag_8:\n    /* \"#utility.yul\":2257:2261   */\n  0x00\n    /* \"#utility.yul\":2295:2297   */\n  0x20\n    /* \"#utility.yul\":2284:2293   */\n  dup3\n    /* \"#utility.yul\":2280:2298   */\n  add\n    /* \"#utility.yul\":2272:2298   */\n  swap1\n  pop\n    /* \"#utility.yul\":2344:2353   */\n  dup2\n    /* \"#utility.yul\":2338:2342   */\n  dup2\n    /* \"#utility.yul\":2334:2354   */\n  sub\n    /* \"#utility.yul\":2330:2331   */\n  0x00\n    /* \"#utility.yul\":2319:2328   */\n  dup4\n    /* \"#utility.yul\":2315:2332   */\n  add\n    /* \"#utility.yul\":2308:2355   */\n  mstore\n    /* \"#utility.yul\":2372:2503   */\n  tag_45\n    /* \"#utility.yul\":2498:2502   */\n  dup2\n    /* \"#utility.yul\":2372:2503   */\n  tag_21\n  jump\t// in\ntag_45:\n    /* \"#utility.yul\":2364:2503   */\n  swap1\n  pop\n    /* \"#utility.yul\":2091:2510   */\n  swap2\n  swap1\n  pop\n  jump\t// out\n    /* \"contracts/TheNftMarkContracts.sol\":232:5906  contract NFTMarket{... */\ntag_11:\n  dataSize(sub_0)\n  dup1\n  dataOffset(sub_0)\n  0x00\n  codecopy\n  0x00\n  return\nstop\n\nsub_0: assembly {\n        /* \"contracts/TheNftMarkContracts.sol\":232:5906  contract NFTMarket{... */\n      mstore(0x40, 0x80)\n      callvalue\n      dup1\n      iszero\n      tag_1\n      jumpi\n      0x00\n      dup1\n      revert\n    tag_1:\n      pop\n      jumpi(tag_2, lt(calldatasize, 0x04))\n      shr(0xe0, calldataload(0x00))\n      dup1\n      0xa85c38ef\n      gt\n      tag_13\n      jumpi\n      dup1\n      0xa85c38ef\n      eq\n      tag_8\n      jumpi\n      dup1\n      0xb5cdf924\n      eq\n      tag_9\n      jumpi\n      dup1\n      0xbca6ce64\n      eq\n      tag_10\n      jumpi\n      dup1\n      0xdcceb7a0\n      eq\n      tag_11\n      jumpi\n      dup1\n      0xf0b9e5ba\n      eq\n      tag_12\n      jumpi\n      jump(tag_2)\n    tag_13:\n      dup1\n      0x394a9077\n      eq\n      tag_3\n      jumpi\n      dup1\n      0x54b39af6\n      eq\n      tag_4\n      jumpi\n      dup1\n      0x785e9e86\n      eq\n      tag_5\n      jumpi\n      dup1\n      0x84bd60f5\n      eq\n      tag_6\n      jumpi\n      dup1\n      0x97f78c5b\n      eq\n      tag_7\n      jumpi\n    tag_2:\n      0x00\n      dup1\n      revert\n        /* \"contracts/TheNftMarkContracts.sol\":905:946  mapping(uint256 =>Order) public orderOfId */\n    tag_3:\n      tag_14\n      0x04\n      dup1\n      calldatasize\n      sub\n      dup2\n      add\n      swap1\n      tag_15\n      swap2\n      swap1\n      tag_16\n      jump\t// in\n    tag_15:\n      tag_17\n      jump\t// in\n    tag_14:\n      mload(0x40)\n      tag_18\n      swap6\n      swap5\n      swap4\n      swap3\n      swap2\n      swap1\n      tag_19\n      jump\t// in\n    tag_18:\n      mload(0x40)\n      dup1\n      swap2\n      sub\n      swap1\n      return\n        /* \"contracts/TheNftMarkContracts.sol\":2104:3126  function purchaseTheNft(uint256 _tokenId) external{... */\n    tag_4:\n      tag_20\n      0x04\n      dup1\n      calldatasize\n      sub\n      dup2\n      add\n      swap1\n      tag_21\n      swap2\n      swap1\n      tag_16\n      jump\t// in\n    tag_21:\n      tag_22\n      jump\t// in\n    tag_20:\n      stop\n        /* \"contracts/TheNftMarkContracts.sol\":259:278  IERC20 public erc20 */\n    tag_5:\n      tag_23\n      tag_24\n      jump\t// in\n    tag_23:\n      mload(0x40)\n      tag_25\n      swap2\n      swap1\n      tag_26\n      jump\t// in\n    tag_25:\n      mload(0x40)\n      dup1\n      swap2\n      sub\n      swap1\n      return\n        /* \"contracts/TheNftMarkContracts.sol\":3884:4419  function withDrawTheNft(uint256 _tokenId) external {... */\n    tag_6:\n      tag_27\n      0x04\n      dup1\n      calldatasize\n      sub\n      dup2\n      add\n      swap1\n      tag_28\n      swap2\n      swap1\n      tag_16\n      jump\t// in\n    tag_28:\n      tag_29\n      jump\t// in\n    tag_27:\n      stop\n        /* \"contracts/TheNftMarkContracts.sol\":1083:1131  mapping(uint256 =>uint256) public idToIndexOrder */\n    tag_7:\n      tag_30\n      0x04\n      dup1\n      calldatasize\n      sub\n      dup2\n      add\n      swap1\n      tag_31\n      swap2\n      swap1\n      tag_16\n      jump\t// in\n    tag_31:\n      tag_32\n      jump\t// in\n    tag_30:\n      mload(0x40)\n      tag_33\n      swap2\n      swap1\n      tag_34\n      jump\t// in\n    tag_33:\n      mload(0x40)\n      dup1\n      swap2\n      sub\n      swap1\n      return\n        /* \"contracts/TheNftMarkContracts.sol\":1003:1024  Order[] public orders */\n    tag_8:\n      tag_35\n      0x04\n      dup1\n      calldatasize\n      sub\n      dup2\n      add\n      swap1\n      tag_36\n      swap2\n      swap1\n      tag_16\n      jump\t// in\n    tag_36:\n      tag_37\n      jump\t// in\n    tag_35:\n      mload(0x40)\n      tag_38\n      swap6\n      swap5\n      swap4\n      swap3\n      swap2\n      swap1\n      tag_19\n      jump\t// in\n    tag_38:\n      mload(0x40)\n      dup1\n      swap2\n      sub\n      swap1\n      return\n        /* \"contracts/TheNftMarkContracts.sol\":4963:5349  function toUint256(bytes memory _bytes, uint256 _start) public pure returns (uint256) {... */\n    tag_9:\n      tag_39\n      0x04\n      dup1\n      calldatasize\n      sub\n      dup2\n      add\n      swap1\n      tag_40\n      swap2\n      swap1\n      tag_41\n      jump\t// in\n    tag_40:\n      tag_42\n      jump\t// in\n    tag_39:\n      mload(0x40)\n      tag_43\n      swap2\n      swap1\n      tag_34\n      jump\t// in\n    tag_43:\n      mload(0x40)\n      dup1\n      swap2\n      sub\n      swap1\n      return\n        /* \"contracts/TheNftMarkContracts.sol\":291:312  IERC721 public erc721 */\n    tag_10:\n      tag_44\n      tag_45\n      jump\t// in\n    tag_44:\n      mload(0x40)\n      tag_46\n      swap2\n      swap1\n      tag_47\n      jump\t// in\n    tag_46:\n      mload(0x40)\n      dup1\n      swap2\n      sub\n      swap1\n      return\n        /* \"contracts/TheNftMarkContracts.sol\":3169:3850  function changeTheNftPrice(uint _tokenId,uint256 newPrice) external{... */\n    tag_11:\n      tag_48\n      0x04\n      dup1\n      calldatasize\n      sub\n      dup2\n      add\n      swap1\n      tag_49\n      swap2\n      swap1\n      tag_50\n      jump\t// in\n    tag_49:\n      tag_51\n      jump\t// in\n    tag_48:\n      stop\n        /* \"contracts/TheNftMarkContracts.sol\":4425:4955  function onERC721Received(... */\n    tag_12:\n      tag_52\n      0x04\n      dup1\n      calldatasize\n      sub\n      dup2\n      add\n      swap1\n      tag_53\n      swap2\n      swap1\n      tag_54\n      jump\t// in\n    tag_53:\n      tag_55\n      jump\t// in\n    tag_52:\n      mload(0x40)\n      tag_56\n      swap2\n      swap1\n      tag_57\n      jump\t// in\n    tag_56:\n      mload(0x40)\n      dup1\n      swap2\n      sub\n      swap1\n      return\n        /* \"contracts/TheNftMarkContracts.sol\":905:946  mapping(uint256 =>Order) public orderOfId */\n    tag_17:\n      mstore(0x20, 0x02)\n      dup1\n      0x00\n      mstore\n      keccak256(0x00, 0x40)\n      0x00\n      swap2\n      pop\n      swap1\n      pop\n      dup1\n      0x00\n      add\n      0x00\n      swap1\n      sload\n      swap1\n      0x0100\n      exp\n      swap1\n      div\n      0xffffffffffffffffffffffffffffffffffffffff\n      and\n      swap1\n      dup1\n      0x01\n      add\n      sload\n      swap1\n      dup1\n      0x02\n      add\n      sload\n      swap1\n      dup1\n      0x03\n      add\n      sload\n      swap1\n      dup1\n      0x04\n      add\n      0x00\n      swap1\n      sload\n      swap1\n      0x0100\n      exp\n      swap1\n      div\n      0xff\n      and\n      swap1\n      pop\n      dup6\n      jump\t// out\n        /* \"contracts/TheNftMarkContracts.sol\":2104:3126  function purchaseTheNft(uint256 _tokenId) external{... */\n    tag_22:\n        /* \"contracts/TheNftMarkContracts.sol\":2183:2184  0 */\n      0x00\n        /* \"contracts/TheNftMarkContracts.sol\":2173:2181  _tokenId */\n      dup2\n        /* \"contracts/TheNftMarkContracts.sol\":2173:2184  _tokenId!=0 */\n      sub\n        /* \"contracts/TheNftMarkContracts.sol\":2165:2220  require(_tokenId!=0,\"_tokenId is 0 ,not fixed the law\") */\n      tag_59\n      jumpi\n      mload(0x40)\n      0x08c379a000000000000000000000000000000000000000000000000000000000\n      dup2\n      mstore\n      0x04\n      add\n      tag_60\n      swap1\n      tag_61\n      jump\t// in\n    tag_60:\n      mload(0x40)\n      dup1\n      swap2\n      sub\n      swap1\n      revert\n    tag_59:\n        /* \"contracts/TheNftMarkContracts.sol\":2289:2309  address theNftSeller */\n      0x00\n        /* \"contracts/TheNftMarkContracts.sol\":2310:2319  orderOfId */\n      0x02\n        /* \"contracts/TheNftMarkContracts.sol\":2310:2329  orderOfId[_tokenId] */\n      0x00\n        /* \"contracts/TheNftMarkContracts.sol\":2320:2328  _tokenId */\n      dup4\n        /* \"contracts/TheNftMarkContracts.sol\":2310:2329  orderOfId[_tokenId] */\n      dup2\n      mstore\n      0x20\n      add\n      swap1\n      dup2\n      mstore\n      0x20\n      add\n      0x00\n      keccak256\n        /* \"contracts/TheNftMarkContracts.sol\":2310:2336  orderOfId[_tokenId].seller */\n      0x00\n      add\n      0x00\n      swap1\n      sload\n      swap1\n      0x0100\n      exp\n      swap1\n      div\n      0xffffffffffffffffffffffffffffffffffffffff\n      and\n        /* \"contracts/TheNftMarkContracts.sol\":2289:2336  address theNftSeller=orderOfId[_tokenId].seller */\n      swap1\n      pop\n        /* \"contracts/TheNftMarkContracts.sol\":2347:2369  address theNftPuchaser */\n      0x00\n        /* \"contracts/TheNftMarkContracts.sol\":2370:2380  msg.sender */\n      caller\n        /* \"contracts/TheNftMarkContracts.sol\":2347:2380  address theNftPuchaser=msg.sender */\n      swap1\n      pop\n        /* \"contracts/TheNftMarkContracts.sol\":2391:2410  uint256 theNftPrice */\n      0x00\n        /* \"contracts/TheNftMarkContracts.sol\":2411:2420  orderOfId */\n      0x02\n        /* \"contracts/TheNftMarkContracts.sol\":2411:2430  orderOfId[_tokenId] */\n      0x00\n        /* \"contracts/TheNftMarkContracts.sol\":2421:2429  _tokenId */\n      dup6\n        /* \"contracts/TheNftMarkContracts.sol\":2411:2430  orderOfId[_tokenId] */\n      dup2\n      mstore\n      0x20\n      add\n      swap1\n      dup2\n      mstore\n      0x20\n      add\n      0x00\n      keccak256\n        /* \"contracts/TheNftMarkContracts.sol\":2411:2436  orderOfId[_tokenId].price */\n      0x01\n      add\n      sload\n        /* \"contracts/TheNftMarkContracts.sol\":2391:2436  uint256 theNftPrice=orderOfId[_tokenId].price */\n      swap1\n      pop\n        /* \"contracts/TheNftMarkContracts.sol\":2497:2502  erc20 */\n      0x00\n      dup1\n      sload\n      swap1\n      0x0100\n      exp\n      swap1\n      div\n      0xffffffffffffffffffffffffffffffffffffffff\n      and\n        /* \"contracts/TheNftMarkContracts.sol\":2497:2515  erc20.transferFrom */\n      0xffffffffffffffffffffffffffffffffffffffff\n      and\n      0x23b872dd\n        /* \"contracts/TheNftMarkContracts.sol\":2516:2530  theNftPuchaser */\n      dup4\n        /* \"contracts/TheNftMarkContracts.sol\":2531:2543  theNftSeller */\n      dup6\n        /* \"contracts/TheNftMarkContracts.sol\":2544:2555  theNftPrice */\n      dup5\n        /* \"contracts/TheNftMarkContracts.sol\":2497:2556  erc20.transferFrom(theNftPuchaser,theNftSeller,theNftPrice) */\n      mload(0x40)\n      dup5\n      0xffffffff\n      and\n      0xe0\n      shl\n      dup2\n      mstore\n      0x04\n      add\n      tag_62\n      swap4\n      swap3\n      swap2\n      swap1\n      tag_63\n      jump\t// in\n    tag_62:\n      0x20\n      mload(0x40)\n      dup1\n      dup4\n      sub\n      dup2\n      0x00\n      dup8\n      gas\n      call\n      iszero\n      dup1\n      iszero\n      tag_65\n      jumpi\n      returndatasize\n      0x00\n      dup1\n      returndatacopy\n      revert(0x00, returndatasize)\n    tag_65:\n      pop\n      pop\n      pop\n      pop\n      mload(0x40)\n      returndatasize\n      not(0x1f)\n      0x1f\n      dup3\n      add\n      and\n      dup3\n      add\n      dup1\n      0x40\n      mstore\n      pop\n      dup2\n      add\n      swap1\n      tag_66\n      swap2\n      swap1\n      tag_67\n      jump\t// in\n    tag_66:\n        /* \"contracts/TheNftMarkContracts.sol\":2489:2581  require(erc20.transferFrom(theNftPuchaser,theNftSeller,theNftPrice),\"purchased not sucesse\") */\n      tag_68\n      jumpi\n      mload(0x40)\n      0x08c379a000000000000000000000000000000000000000000000000000000000\n      dup2\n      mstore\n      0x04\n      add\n      tag_69\n      swap1\n      tag_70\n      jump\t// in\n    tag_69:\n      mload(0x40)\n      dup1\n      swap2\n      sub\n      swap1\n      revert\n    tag_68:\n        /* \"contracts/TheNftMarkContracts.sol\":2646:2652  erc721 */\n      0x01\n      0x00\n      swap1\n      sload\n      swap1\n      0x0100\n      exp\n      swap1\n      div\n      0xffffffffffffffffffffffffffffffffffffffff\n      and\n        /* \"contracts/TheNftMarkContracts.sol\":2646:2669  erc721.safeTransferFrom */\n      0xffffffffffffffffffffffffffffffffffffffff\n      and\n      0x42842e0e\n        /* \"contracts/TheNftMarkContracts.sol\":2678:2682  this */\n      address\n        /* \"contracts/TheNftMarkContracts.sol\":2684:2698  theNftPuchaser */\n      dup5\n        /* \"contracts/TheNftMarkContracts.sol\":2699:2707  _tokenId */\n      dup8\n        /* \"contracts/TheNftMarkContracts.sol\":2646:2708  erc721.safeTransferFrom(address(this),theNftPuchaser,_tokenId) */\n      mload(0x40)\n      dup5\n      0xffffffff\n      and\n      0xe0\n      shl\n      dup2\n      mstore\n      0x04\n      add\n      tag_71\n      swap4\n      swap3\n      swap2\n      swap1\n      tag_63\n      jump\t// in\n    tag_71:\n      0x00\n      mload(0x40)\n      dup1\n      dup4\n      sub\n      dup2\n      0x00\n      dup8\n      dup1\n      extcodesize\n      iszero\n      dup1\n      iszero\n      tag_72\n      jumpi\n      0x00\n      dup1\n      revert\n    tag_72:\n      pop\n      gas\n      call\n      iszero\n      dup1\n      iszero\n      tag_74\n      jumpi\n      returndatasize\n      0x00\n      dup1\n      returndatacopy\n      revert(0x00, returndatasize)\n    tag_74:\n      pop\n      pop\n      pop\n      pop\n        /* \"contracts/TheNftMarkContracts.sol\":2719:2741  removeOrders(_tokenId) */\n      tag_75\n        /* \"contracts/TheNftMarkContracts.sol\":2732:2740  _tokenId */\n      dup5\n        /* \"contracts/TheNftMarkContracts.sol\":2719:2731  removeOrders */\n      tag_76\n        /* \"contracts/TheNftMarkContracts.sol\":2719:2741  removeOrders(_tokenId) */\n      jump\t// in\n    tag_75:\n        /* \"contracts/TheNftMarkContracts.sol\":2912:2931  Order storage order */\n      0x00\n        /* \"contracts/TheNftMarkContracts.sol\":2932:2938  orders */\n      0x03\n        /* \"contracts/TheNftMarkContracts.sol\":2939:2953  idToIndexOrder */\n      0x04\n        /* \"contracts/TheNftMarkContracts.sol\":2939:2963  idToIndexOrder[_tokenId] */\n      0x00\n        /* \"contracts/TheNftMarkContracts.sol\":2954:2962  _tokenId */\n      dup8\n        /* \"contracts/TheNftMarkContracts.sol\":2939:2963  idToIndexOrder[_tokenId] */\n      dup2\n      mstore\n      0x20\n      add\n      swap1\n      dup2\n      mstore\n      0x20\n      add\n      0x00\n      keccak256\n      sload\n        /* \"contracts/TheNftMarkContracts.sol\":2932:2964  orders[idToIndexOrder[_tokenId]] */\n      dup2\n      sload\n      dup2\n      lt\n      tag_77\n      jumpi\n      tag_78\n      tag_79\n      jump\t// in\n    tag_78:\n    tag_77:\n      swap1\n      0x00\n      mstore\n      keccak256(0x00, 0x20)\n      swap1\n      0x05\n      mul\n      add\n        /* \"contracts/TheNftMarkContracts.sol\":2912:2964  Order storage order=orders[idToIndexOrder[_tokenId]] */\n      swap1\n      pop\n        /* \"contracts/TheNftMarkContracts.sol\":2991:2996  false */\n      0x00\n        /* \"contracts/TheNftMarkContracts.sol\":2975:2980  order */\n      dup2\n        /* \"contracts/TheNftMarkContracts.sol\":2975:2990  order.saleState */\n      0x04\n      add\n      0x00\n        /* \"contracts/TheNftMarkContracts.sol\":2975:2996  order.saleState=false */\n      0x0100\n      exp\n      dup2\n      sload\n      dup2\n      0xff\n      mul\n      not\n      and\n      swap1\n      dup4\n      iszero\n      iszero\n      mul\n      or\n      swap1\n      sstore\n      pop\n        /* \"contracts/TheNftMarkContracts.sol\":3054:3118  Deal(theNftSeller, theNftPuchaser, _tokenId, theNftPrice, false) */\n      0xbb8477095798ca0d448fc330d66ba05daff8782e1ac120d01d10af8427e106a5\n        /* \"contracts/TheNftMarkContracts.sol\":3059:3071  theNftSeller */\n      dup5\n        /* \"contracts/TheNftMarkContracts.sol\":3073:3087  theNftPuchaser */\n      dup5\n        /* \"contracts/TheNftMarkContracts.sol\":3089:3097  _tokenId */\n      dup8\n        /* \"contracts/TheNftMarkContracts.sol\":3099:3110  theNftPrice */\n      dup6\n        /* \"contracts/TheNftMarkContracts.sol\":3112:3117  false */\n      0x00\n        /* \"contracts/TheNftMarkContracts.sol\":3054:3118  Deal(theNftSeller, theNftPuchaser, _tokenId, theNftPrice, false) */\n      mload(0x40)\n      tag_81\n      swap6\n      swap5\n      swap4\n      swap3\n      swap2\n      swap1\n      tag_82\n      jump\t// in\n    tag_81:\n      mload(0x40)\n      dup1\n      swap2\n      sub\n      swap1\n      log1\n        /* \"contracts/TheNftMarkContracts.sol\":2154:3126  {... */\n      pop\n      pop\n      pop\n      pop\n        /* \"contracts/TheNftMarkContracts.sol\":2104:3126  function purchaseTheNft(uint256 _tokenId) external{... */\n      pop\n      jump\t// out\n        /* \"contracts/TheNftMarkContracts.sol\":259:278  IERC20 public erc20 */\n    tag_24:\n      0x00\n      dup1\n      sload\n      swap1\n      0x0100\n      exp\n      swap1\n      div\n      0xffffffffffffffffffffffffffffffffffffffff\n      and\n      dup2\n      jump\t// out\n        /* \"contracts/TheNftMarkContracts.sol\":3884:4419  function withDrawTheNft(uint256 _tokenId) external {... */\n    tag_29:\n        /* \"contracts/TheNftMarkContracts.sol\":3946:3962  address theOwner */\n      0x00\n        /* \"contracts/TheNftMarkContracts.sol\":3963:3972  orderOfId */\n      0x02\n        /* \"contracts/TheNftMarkContracts.sol\":3963:3982  orderOfId[_tokenId] */\n      0x00\n        /* \"contracts/TheNftMarkContracts.sol\":3973:3981  _tokenId */\n      dup4\n        /* \"contracts/TheNftMarkContracts.sol\":3963:3982  orderOfId[_tokenId] */\n      dup2\n      mstore\n      0x20\n      add\n      swap1\n      dup2\n      mstore\n      0x20\n      add\n      0x00\n      keccak256\n        /* \"contracts/TheNftMarkContracts.sol\":3963:3989  orderOfId[_tokenId].seller */\n      0x00\n      add\n      0x00\n      swap1\n      sload\n      swap1\n      0x0100\n      exp\n      swap1\n      div\n      0xffffffffffffffffffffffffffffffffffffffff\n      and\n        /* \"contracts/TheNftMarkContracts.sol\":3946:3989  address theOwner=orderOfId[_tokenId].seller */\n      swap1\n      pop\n        /* \"contracts/TheNftMarkContracts.sol\":4000:4016  address nowOwner */\n      0x00\n        /* \"contracts/TheNftMarkContracts.sol\":4017:4027  msg.sender */\n      caller\n        /* \"contracts/TheNftMarkContracts.sol\":4000:4027  address nowOwner=msg.sender */\n      swap1\n      pop\n        /* \"contracts/TheNftMarkContracts.sol\":4056:4064  theOwner */\n      dup2\n        /* \"contracts/TheNftMarkContracts.sol\":4046:4064  nowOwner==theOwner */\n      0xffffffffffffffffffffffffffffffffffffffff\n      and\n        /* \"contracts/TheNftMarkContracts.sol\":4046:4054  nowOwner */\n      dup2\n        /* \"contracts/TheNftMarkContracts.sol\":4046:4064  nowOwner==theOwner */\n      0xffffffffffffffffffffffffffffffffffffffff\n      and\n      eq\n        /* \"contracts/TheNftMarkContracts.sol\":4046:4080  nowOwner==theOwner && _tokenId !=0 */\n      dup1\n      iszero\n      tag_84\n      jumpi\n      pop\n        /* \"contracts/TheNftMarkContracts.sol\":4079:4080  0 */\n      0x00\n        /* \"contracts/TheNftMarkContracts.sol\":4068:4076  _tokenId */\n      dup4\n        /* \"contracts/TheNftMarkContracts.sol\":4068:4080  _tokenId !=0 */\n      eq\n      iszero\n        /* \"contracts/TheNftMarkContracts.sol\":4046:4080  nowOwner==theOwner && _tokenId !=0 */\n    tag_84:\n        /* \"contracts/TheNftMarkContracts.sol\":4038:4110  require(nowOwner==theOwner && _tokenId !=0,\"you can not withDrawTheNft\") */\n      tag_85\n      jumpi\n      mload(0x40)\n      0x08c379a000000000000000000000000000000000000000000000000000000000\n      dup2\n      mstore\n      0x04\n      add\n      tag_86\n      swap1\n      tag_87\n      jump\t// in\n    tag_86:\n      mload(0x40)\n      dup1\n      swap2\n      sub\n      swap1\n      revert\n    tag_85:\n        /* \"contracts/TheNftMarkContracts.sol\":4121:4140  Order storage order */\n      0x00\n        /* \"contracts/TheNftMarkContracts.sol\":4141:4147  orders */\n      0x03\n        /* \"contracts/TheNftMarkContracts.sol\":4148:4162  idToIndexOrder */\n      0x04\n        /* \"contracts/TheNftMarkContracts.sol\":4148:4172  idToIndexOrder[_tokenId] */\n      0x00\n        /* \"contracts/TheNftMarkContracts.sol\":4163:4171  _tokenId */\n      dup7\n        /* \"contracts/TheNftMarkContracts.sol\":4148:4172  idToIndexOrder[_tokenId] */\n      dup2\n      mstore\n      0x20\n      add\n      swap1\n      dup2\n      mstore\n      0x20\n      add\n      0x00\n      keccak256\n      sload\n        /* \"contracts/TheNftMarkContracts.sol\":4141:4173  orders[idToIndexOrder[_tokenId]] */\n      dup2\n      sload\n      dup2\n      lt\n      tag_88\n      jumpi\n      tag_89\n      tag_79\n      jump\t// in\n    tag_89:\n    tag_88:\n      swap1\n      0x00\n      mstore\n      keccak256(0x00, 0x20)\n      swap1\n      0x05\n      mul\n      add\n        /* \"contracts/TheNftMarkContracts.sol\":4121:4173  Order storage order=orders[idToIndexOrder[_tokenId]] */\n      swap1\n      pop\n        /* \"contracts/TheNftMarkContracts.sol\":4200:4205  false */\n      0x00\n        /* \"contracts/TheNftMarkContracts.sol\":4184:4189  order */\n      dup2\n        /* \"contracts/TheNftMarkContracts.sol\":4184:4199  order.saleState */\n      0x04\n      add\n      0x00\n        /* \"contracts/TheNftMarkContracts.sol\":4184:4205  order.saleState=false */\n      0x0100\n      exp\n      dup2\n      sload\n      dup2\n      0xff\n      mul\n      not\n      and\n      swap1\n      dup4\n      iszero\n      iszero\n      mul\n      or\n      swap1\n      sstore\n      pop\n        /* \"contracts/TheNftMarkContracts.sol\":4258:4280  removeOrders(_tokenId) */\n      tag_91\n        /* \"contracts/TheNftMarkContracts.sol\":4271:4279  _tokenId */\n      dup5\n        /* \"contracts/TheNftMarkContracts.sol\":4258:4270  removeOrders */\n      tag_76\n        /* \"contracts/TheNftMarkContracts.sol\":4258:4280  removeOrders(_tokenId) */\n      jump\t// in\n    tag_91:\n        /* \"contracts/TheNftMarkContracts.sol\":4291:4297  erc721 */\n      0x01\n      0x00\n      swap1\n      sload\n      swap1\n      0x0100\n      exp\n      swap1\n      div\n      0xffffffffffffffffffffffffffffffffffffffff\n      and\n        /* \"contracts/TheNftMarkContracts.sol\":4291:4314  erc721.safeTransferFrom */\n      0xffffffffffffffffffffffffffffffffffffffff\n      and\n      0x42842e0e\n        /* \"contracts/TheNftMarkContracts.sol\":4323:4327  this */\n      address\n        /* \"contracts/TheNftMarkContracts.sol\":4329:4337  theOwner */\n      dup6\n        /* \"contracts/TheNftMarkContracts.sol\":4338:4346  _tokenId */\n      dup8\n        /* \"contracts/TheNftMarkContracts.sol\":4291:4347  erc721.safeTransferFrom(address(this),theOwner,_tokenId) */\n      mload(0x40)\n      dup5\n      0xffffffff\n      and\n      0xe0\n      shl\n      dup2\n      mstore\n      0x04\n      add\n      tag_92\n      swap4\n      swap3\n      swap2\n      swap1\n      tag_63\n      jump\t// in\n    tag_92:\n      0x00\n      mload(0x40)\n      dup1\n      dup4\n      sub\n      dup2\n      0x00\n      dup8\n      dup1\n      extcodesize\n      iszero\n      dup1\n      iszero\n      tag_93\n      jumpi\n      0x00\n      dup1\n      revert\n    tag_93:\n      pop\n      gas\n      call\n      iszero\n      dup1\n      iszero\n      tag_95\n      jumpi\n      returndatasize\n      0x00\n      dup1\n      returndatacopy\n      revert(0x00, returndatasize)\n    tag_95:\n      pop\n      pop\n      pop\n      pop\n        /* \"contracts/TheNftMarkContracts.sol\":4363:4411  WithdrawTheNFTOrder(msg.sender, _tokenId, false) */\n      0xeac99d824b2ce09533c9b429bead0ff5e1d359bba205dd853617db8795589ce3\n        /* \"contracts/TheNftMarkContracts.sol\":4383:4393  msg.sender */\n      caller\n        /* \"contracts/TheNftMarkContracts.sol\":4395:4403  _tokenId */\n      dup6\n        /* \"contracts/TheNftMarkContracts.sol\":4405:4410  false */\n      0x00\n        /* \"contracts/TheNftMarkContracts.sol\":4363:4411  WithdrawTheNFTOrder(msg.sender, _tokenId, false) */\n      mload(0x40)\n      tag_96\n      swap4\n      swap3\n      swap2\n      swap1\n      tag_97\n      jump\t// in\n    tag_96:\n      mload(0x40)\n      dup1\n      swap2\n      sub\n      swap1\n      log1\n        /* \"contracts/TheNftMarkContracts.sol\":3935:4419  {... */\n      pop\n      pop\n      pop\n        /* \"contracts/TheNftMarkContracts.sol\":3884:4419  function withDrawTheNft(uint256 _tokenId) external {... */\n      pop\n      jump\t// out\n        /* \"contracts/TheNftMarkContracts.sol\":1083:1131  mapping(uint256 =>uint256) public idToIndexOrder */\n    tag_32:\n      mstore(0x20, 0x04)\n      dup1\n      0x00\n      mstore\n      keccak256(0x00, 0x40)\n      0x00\n      swap2\n      pop\n      swap1\n      pop\n      sload\n      dup2\n      jump\t// out\n        /* \"contracts/TheNftMarkContracts.sol\":1003:1024  Order[] public orders */\n    tag_37:\n      0x03\n      dup2\n      dup2\n      sload\n      dup2\n      lt\n      tag_98\n      jumpi\n      0x00\n      dup1\n      revert\n    tag_98:\n      swap1\n      0x00\n      mstore\n      keccak256(0x00, 0x20)\n      swap1\n      0x05\n      mul\n      add\n      0x00\n      swap2\n      pop\n      swap1\n      pop\n      dup1\n      0x00\n      add\n      0x00\n      swap1\n      sload\n      swap1\n      0x0100\n      exp\n      swap1\n      div\n      0xffffffffffffffffffffffffffffffffffffffff\n      and\n      swap1\n      dup1\n      0x01\n      add\n      sload\n      swap1\n      dup1\n      0x02\n      add\n      sload\n      swap1\n      dup1\n      0x03\n      add\n      sload\n      swap1\n      dup1\n      0x04\n      add\n      0x00\n      swap1\n      sload\n      swap1\n      0x0100\n      exp\n      swap1\n      div\n      0xff\n      and\n      swap1\n      pop\n      dup6\n      jump\t// out\n        /* \"contracts/TheNftMarkContracts.sol\":4963:5349  function toUint256(bytes memory _bytes, uint256 _start) public pure returns (uint256) {... */\n    tag_42:\n        /* \"contracts/TheNftMarkContracts.sol\":5040:5047  uint256 */\n      0x00\n        /* \"contracts/TheNftMarkContracts.sol\":5095:5097  32 */\n      0x20\n        /* \"contracts/TheNftMarkContracts.sol\":5086:5092  _start */\n      dup3\n        /* \"contracts/TheNftMarkContracts.sol\":5086:5097  _start + 32 */\n      tag_101\n      swap2\n      swap1\n      tag_102\n      jump\t// in\n    tag_101:\n        /* \"contracts/TheNftMarkContracts.sol\":5068:5074  _bytes */\n      dup4\n        /* \"contracts/TheNftMarkContracts.sol\":5068:5081  _bytes.length */\n      mload\n        /* \"contracts/TheNftMarkContracts.sol\":5068:5098  _bytes.length >= (_start + 32) */\n      lt\n      iszero\n        /* \"contracts/TheNftMarkContracts.sol\":5060:5129  require(_bytes.length >= (_start + 32), \"Market:Uint256 outOfBounds\") */\n      tag_103\n      jumpi\n      mload(0x40)\n      0x08c379a000000000000000000000000000000000000000000000000000000000\n      dup2\n      mstore\n      0x04\n      add\n      tag_104\n      swap1\n      tag_105\n      jump\t// in\n    tag_104:\n      mload(0x40)\n      dup1\n      swap2\n      sub\n      swap1\n      revert\n    tag_103:\n        /* \"contracts/TheNftMarkContracts.sol\":5161:5167  _start */\n      dup2\n        /* \"contracts/TheNftMarkContracts.sol\":5156:5158  32 */\n      0x20\n        /* \"contracts/TheNftMarkContracts.sol\":5148:5154  _start */\n      dup4\n        /* \"contracts/TheNftMarkContracts.sol\":5148:5158  _start +32 */\n      tag_106\n      swap2\n      swap1\n      tag_102\n      jump\t// in\n    tag_106:\n        /* \"contracts/TheNftMarkContracts.sol\":5148:5167  _start +32 >=_start */\n      lt\n      iszero\n        /* \"contracts/TheNftMarkContracts.sol\":5140:5194  require(_start +32 >=_start,\"Market:Uint256 overflow\") */\n      tag_107\n      jumpi\n      mload(0x40)\n      0x08c379a000000000000000000000000000000000000000000000000000000000\n      dup2\n      mstore\n      0x04\n      add\n      tag_108\n      swap1\n      tag_109\n      jump\t// in\n    tag_108:\n      mload(0x40)\n      dup1\n      swap2\n      sub\n      swap1\n      revert\n    tag_107:\n        /* \"contracts/TheNftMarkContracts.sol\":5205:5221  uint256 tempUint */\n      0x00\n        /* \"contracts/TheNftMarkContracts.sol\":5297:5303  _start */\n      dup3\n        /* \"contracts/TheNftMarkContracts.sol\":5290:5294  0x20 */\n      0x20\n        /* \"contracts/TheNftMarkContracts.sol\":5282:5288  _bytes */\n      dup6\n        /* \"contracts/TheNftMarkContracts.sol\":5278:5295  add(_bytes, 0x20) */\n      add\n        /* \"contracts/TheNftMarkContracts.sol\":5274:5304  add(add(_bytes, 0x20), _start) */\n      add\n        /* \"contracts/TheNftMarkContracts.sol\":5268:5305  mload(add(add(_bytes, 0x20), _start)) */\n      mload\n        /* \"contracts/TheNftMarkContracts.sol\":5256:5305  tempUint := mload(add(add(_bytes, 0x20), _start)) */\n      swap1\n      pop\n        /* \"contracts/TheNftMarkContracts.sol\":5333:5341  tempUint */\n      dup1\n        /* \"contracts/TheNftMarkContracts.sol\":5326:5341  return tempUint */\n      swap2\n      pop\n      pop\n        /* \"contracts/TheNftMarkContracts.sol\":4963:5349  function toUint256(bytes memory _bytes, uint256 _start) public pure returns (uint256) {... */\n      swap3\n      swap2\n      pop\n      pop\n      jump\t// out\n        /* \"contracts/TheNftMarkContracts.sol\":291:312  IERC721 public erc721 */\n    tag_45:\n      0x01\n      0x00\n      swap1\n      sload\n      swap1\n      0x0100\n      exp\n      swap1\n      div\n      0xffffffffffffffffffffffffffffffffffffffff\n      and\n      dup2\n      jump\t// out\n        /* \"contracts/TheNftMarkContracts.sol\":3169:3850  function changeTheNftPrice(uint _tokenId,uint256 newPrice) external{... */\n    tag_51:\n        /* \"contracts/TheNftMarkContracts.sol\":3265:3266  0 */\n      0x00\n        /* \"contracts/TheNftMarkContracts.sol\":3255:3263  _tokenId */\n      dup3\n        /* \"contracts/TheNftMarkContracts.sol\":3255:3266  _tokenId!=0 */\n      eq\n      iszero\n        /* \"contracts/TheNftMarkContracts.sol\":3255:3281  _tokenId!=0 && newPrice!=0 */\n      dup1\n      iszero\n      tag_111\n      jumpi\n      pop\n        /* \"contracts/TheNftMarkContracts.sol\":3280:3281  0 */\n      0x00\n        /* \"contracts/TheNftMarkContracts.sol\":3270:3278  newPrice */\n      dup2\n        /* \"contracts/TheNftMarkContracts.sol\":3270:3281  newPrice!=0 */\n      eq\n      iszero\n        /* \"contracts/TheNftMarkContracts.sol\":3255:3281  _tokenId!=0 && newPrice!=0 */\n    tag_111:\n        /* \"contracts/TheNftMarkContracts.sol\":3247:3331  require(_tokenId!=0 && newPrice!=0,\"_tokenId is 0 or price is 0 ,not fixed the law\") */\n      tag_112\n      jumpi\n      mload(0x40)\n      0x08c379a000000000000000000000000000000000000000000000000000000000\n      dup2\n      mstore\n      0x04\n      add\n      tag_113\n      swap1\n      tag_114\n      jump\t// in\n    tag_113:\n      mload(0x40)\n      dup1\n      swap2\n      sub\n      swap1\n      revert\n    tag_112:\n        /* \"contracts/TheNftMarkContracts.sol\":3342:3356  address seller */\n      0x00\n        /* \"contracts/TheNftMarkContracts.sol\":3357:3366  orderOfId */\n      0x02\n        /* \"contracts/TheNftMarkContracts.sol\":3357:3376  orderOfId[_tokenId] */\n      0x00\n        /* \"contracts/TheNftMarkContracts.sol\":3367:3375  _tokenId */\n      dup5\n        /* \"contracts/TheNftMarkContracts.sol\":3357:3376  orderOfId[_tokenId] */\n      dup2\n      mstore\n      0x20\n      add\n      swap1\n      dup2\n      mstore\n      0x20\n      add\n      0x00\n      keccak256\n        /* \"contracts/TheNftMarkContracts.sol\":3357:3383  orderOfId[_tokenId].seller */\n      0x00\n      add\n      0x00\n      swap1\n      sload\n      swap1\n      0x0100\n      exp\n      swap1\n      div\n      0xffffffffffffffffffffffffffffffffffffffff\n      and\n        /* \"contracts/TheNftMarkContracts.sol\":3342:3383  address seller=orderOfId[_tokenId].seller */\n      swap1\n      pop\n        /* \"contracts/TheNftMarkContracts.sol\":3394:3413  address theNftOwner */\n      0x00\n        /* \"contracts/TheNftMarkContracts.sol\":3414:3424  msg.sender */\n      caller\n        /* \"contracts/TheNftMarkContracts.sol\":3394:3424  address theNftOwner=msg.sender */\n      swap1\n      pop\n        /* \"contracts/TheNftMarkContracts.sol\":3435:3454  uint256 theNftPrice */\n      0x00\n        /* \"contracts/TheNftMarkContracts.sol\":3455:3464  orderOfId */\n      0x02\n        /* \"contracts/TheNftMarkContracts.sol\":3455:3474  orderOfId[_tokenId] */\n      0x00\n        /* \"contracts/TheNftMarkContracts.sol\":3465:3473  _tokenId */\n      dup7\n        /* \"contracts/TheNftMarkContracts.sol\":3455:3474  orderOfId[_tokenId] */\n      dup2\n      mstore\n      0x20\n      add\n      swap1\n      dup2\n      mstore\n      0x20\n      add\n      0x00\n      keccak256\n        /* \"contracts/TheNftMarkContracts.sol\":3455:3480  orderOfId[_tokenId].price */\n      0x01\n      add\n      sload\n        /* \"contracts/TheNftMarkContracts.sol\":3435:3480  uint256 theNftPrice=orderOfId[_tokenId].price */\n      swap1\n      pop\n        /* \"contracts/TheNftMarkContracts.sol\":3507:3518  theNftOwner */\n      dup2\n        /* \"contracts/TheNftMarkContracts.sol\":3499:3518  seller==theNftOwner */\n      0xffffffffffffffffffffffffffffffffffffffff\n      and\n        /* \"contracts/TheNftMarkContracts.sol\":3499:3505  seller */\n      dup4\n        /* \"contracts/TheNftMarkContracts.sol\":3499:3518  seller==theNftOwner */\n      0xffffffffffffffffffffffffffffffffffffffff\n      and\n      eq\n        /* \"contracts/TheNftMarkContracts.sol\":3491:3568  require(seller==theNftOwner,\"you are not the owner,please check the tokenId\") */\n      tag_115\n      jumpi\n      mload(0x40)\n      0x08c379a000000000000000000000000000000000000000000000000000000000\n      dup2\n      mstore\n      0x04\n      add\n      tag_116\n      swap1\n      tag_117\n      jump\t// in\n    tag_116:\n      mload(0x40)\n      dup1\n      swap2\n      sub\n      swap1\n      revert\n    tag_115:\n        /* \"contracts/TheNftMarkContracts.sol\":3605:3613  newPrice */\n      dup4\n        /* \"contracts/TheNftMarkContracts.sol\":3579:3588  orderOfId */\n      0x02\n        /* \"contracts/TheNftMarkContracts.sol\":3579:3598  orderOfId[_tokenId] */\n      0x00\n        /* \"contracts/TheNftMarkContracts.sol\":3589:3597  _tokenId */\n      dup8\n        /* \"contracts/TheNftMarkContracts.sol\":3579:3598  orderOfId[_tokenId] */\n      dup2\n      mstore\n      0x20\n      add\n      swap1\n      dup2\n      mstore\n      0x20\n      add\n      0x00\n      keccak256\n        /* \"contracts/TheNftMarkContracts.sol\":3579:3604  orderOfId[_tokenId].price */\n      0x01\n      add\n        /* \"contracts/TheNftMarkContracts.sol\":3579:3613  orderOfId[_tokenId].price=newPrice */\n      dup2\n      swap1\n      sstore\n      pop\n        /* \"contracts/TheNftMarkContracts.sol\":3678:3697  Order storage order */\n      0x00\n        /* \"contracts/TheNftMarkContracts.sol\":3698:3704  orders */\n      0x03\n        /* \"contracts/TheNftMarkContracts.sol\":3705:3719  idToIndexOrder */\n      0x04\n        /* \"contracts/TheNftMarkContracts.sol\":3705:3729  idToIndexOrder[_tokenId] */\n      0x00\n        /* \"contracts/TheNftMarkContracts.sol\":3720:3728  _tokenId */\n      dup9\n        /* \"contracts/TheNftMarkContracts.sol\":3705:3729  idToIndexOrder[_tokenId] */\n      dup2\n      mstore\n      0x20\n      add\n      swap1\n      dup2\n      mstore\n      0x20\n      add\n      0x00\n      keccak256\n      sload\n        /* \"contracts/TheNftMarkContracts.sol\":3698:3730  orders[idToIndexOrder[_tokenId]] */\n      dup2\n      sload\n      dup2\n      lt\n      tag_118\n      jumpi\n      tag_119\n      tag_79\n      jump\t// in\n    tag_119:\n    tag_118:\n      swap1\n      0x00\n      mstore\n      keccak256(0x00, 0x20)\n      swap1\n      0x05\n      mul\n      add\n        /* \"contracts/TheNftMarkContracts.sol\":3678:3730  Order storage order=orders[idToIndexOrder[_tokenId]] */\n      swap1\n      pop\n        /* \"contracts/TheNftMarkContracts.sol\":3753:3761  newPrice */\n      dup5\n        /* \"contracts/TheNftMarkContracts.sol\":3741:3746  order */\n      dup2\n        /* \"contracts/TheNftMarkContracts.sol\":3741:3752  order.price */\n      0x01\n      add\n        /* \"contracts/TheNftMarkContracts.sol\":3741:3761  order.price=newPrice */\n      dup2\n      swap1\n      sstore\n      pop\n        /* \"contracts/TheNftMarkContracts.sol\":3777:3842  RedefineTheNFTPrice(theNftOwner, _tokenId, theNftPrice, newPrice) */\n      0x4c28e91cd513810fade8e86f66c971b7e56b185a2f2f79cd1acd005108e45d98\n        /* \"contracts/TheNftMarkContracts.sol\":3797:3808  theNftOwner */\n      dup4\n        /* \"contracts/TheNftMarkContracts.sol\":3810:3818  _tokenId */\n      dup8\n        /* \"contracts/TheNftMarkContracts.sol\":3820:3831  theNftPrice */\n      dup5\n        /* \"contracts/TheNftMarkContracts.sol\":3833:3841  newPrice */\n      dup9\n        /* \"contracts/TheNftMarkContracts.sol\":3777:3842  RedefineTheNFTPrice(theNftOwner, _tokenId, theNftPrice, newPrice) */\n      mload(0x40)\n      tag_121\n      swap5\n      swap4\n      swap3\n      swap2\n      swap1\n      tag_122\n      jump\t// in\n    tag_121:\n      mload(0x40)\n      dup1\n      swap2\n      sub\n      swap1\n      log1\n        /* \"contracts/TheNftMarkContracts.sol\":3236:3850  {... */\n      pop\n      pop\n      pop\n      pop\n        /* \"contracts/TheNftMarkContracts.sol\":3169:3850  function changeTheNftPrice(uint _tokenId,uint256 newPrice) external{... */\n      pop\n      pop\n      jump\t// out\n        /* \"contracts/TheNftMarkContracts.sol\":4425:4955  function onERC721Received(... */\n    tag_55:\n        /* \"contracts/TheNftMarkContracts.sol\":4550:4556  bytes4 */\n      0x00\n        /* \"contracts/TheNftMarkContracts.sol\":4574:4587  uint256 price */\n      dup1\n        /* \"contracts/TheNftMarkContracts.sol\":4588:4606  toUint256(data, 0) */\n      tag_124\n        /* \"contracts/TheNftMarkContracts.sol\":4598:4602  data */\n      dup5\n      dup5\n        /* \"contracts/TheNftMarkContracts.sol\":4588:4606  toUint256(data, 0) */\n      dup1\n      dup1\n      0x1f\n      add\n      0x20\n      dup1\n      swap2\n      div\n      mul\n      0x20\n      add\n      mload(0x40)\n      swap1\n      dup2\n      add\n      0x40\n      mstore\n      dup1\n      swap4\n      swap3\n      swap2\n      swap1\n      dup2\n      dup2\n      mstore\n      0x20\n      add\n      dup4\n      dup4\n      dup1\n      dup3\n      dup5\n      calldatacopy\n      0x00\n      dup2\n      dup5\n      add\n      mstore\n      not(0x1f)\n      0x1f\n      dup3\n      add\n      and\n      swap1\n      pop\n      dup1\n      dup4\n      add\n      swap3\n      pop\n      pop\n      pop\n      pop\n      pop\n      pop\n      pop\n        /* \"contracts/TheNftMarkContracts.sol\":4604:4605  0 */\n      0x00\n        /* \"contracts/TheNftMarkContracts.sol\":4588:4597  toUint256 */\n      tag_42\n        /* \"contracts/TheNftMarkContracts.sol\":4588:4606  toUint256(data, 0) */\n      jump\t// in\n    tag_124:\n        /* \"contracts/TheNftMarkContracts.sol\":4574:4606  uint256 price=toUint256(data, 0) */\n      swap1\n      pop\n        /* \"contracts/TheNftMarkContracts.sol\":4631:4632  0 */\n      0x00\n        /* \"contracts/TheNftMarkContracts.sol\":4625:4630  price */\n      dup2\n        /* \"contracts/TheNftMarkContracts.sol\":4625:4632  price>0 */\n      gt\n        /* \"contracts/TheNftMarkContracts.sol\":4617:4664  require(price>0,\"price must be greater than 0\") */\n      tag_125\n      jumpi\n      mload(0x40)\n      0x08c379a000000000000000000000000000000000000000000000000000000000\n      dup2\n      mstore\n      0x04\n      add\n      tag_126\n      swap1\n      tag_127\n      jump\t// in\n    tag_126:\n      mload(0x40)\n      dup1\n      swap2\n      sub\n      swap1\n      revert\n    tag_125:\n        /* \"contracts/TheNftMarkContracts.sol\":4675:4681  orders */\n      0x03\n        /* \"contracts/TheNftMarkContracts.sol\":4687:4724  Order(from,price,_tokenId,0x1a1,true) */\n      mload(0x40)\n      dup1\n      0xa0\n      add\n      0x40\n      mstore\n      dup1\n        /* \"contracts/TheNftMarkContracts.sol\":4693:4697  from */\n      dup9\n        /* \"contracts/TheNftMarkContracts.sol\":4687:4724  Order(from,price,_tokenId,0x1a1,true) */\n      0xffffffffffffffffffffffffffffffffffffffff\n      and\n      dup2\n      mstore\n      0x20\n      add\n        /* \"contracts/TheNftMarkContracts.sol\":4698:4703  price */\n      dup4\n        /* \"contracts/TheNftMarkContracts.sol\":4687:4724  Order(from,price,_tokenId,0x1a1,true) */\n      dup2\n      mstore\n      0x20\n      add\n        /* \"contracts/TheNftMarkContracts.sol\":4704:4712  _tokenId */\n      dup8\n        /* \"contracts/TheNftMarkContracts.sol\":4687:4724  Order(from,price,_tokenId,0x1a1,true) */\n      dup2\n      mstore\n      0x20\n      add\n        /* \"contracts/TheNftMarkContracts.sol\":4713:4718  0x1a1 */\n      0x01a1\n        /* \"contracts/TheNftMarkContracts.sol\":4687:4724  Order(from,price,_tokenId,0x1a1,true) */\n      dup2\n      mstore\n      0x20\n      add\n        /* \"contracts/TheNftMarkContracts.sol\":4719:4723  true */\n      0x01\n        /* \"contracts/TheNftMarkContracts.sol\":4687:4724  Order(from,price,_tokenId,0x1a1,true) */\n      iszero\n      iszero\n      dup2\n      mstore\n      pop\n        /* \"contracts/TheNftMarkContracts.sol\":4675:4725  orders.push(Order(from,price,_tokenId,0x1a1,true)) */\n      swap1\n      dup1\n      0x01\n      dup2\n      sload\n      add\n      dup1\n      dup3\n      sstore\n      dup1\n      swap2\n      pop\n      pop\n      0x01\n      swap1\n      sub\n      swap1\n      0x00\n      mstore\n      keccak256(0x00, 0x20)\n      swap1\n      0x05\n      mul\n      add\n      0x00\n      swap1\n      swap2\n      swap1\n      swap2\n      swap1\n      swap2\n      pop\n      0x00\n      dup3\n      add\n      mload\n      dup2\n      0x00\n      add\n      exp(0x0100, 0x00)\n      dup2\n      sload\n      dup2\n      0xffffffffffffffffffffffffffffffffffffffff\n      mul\n      not\n      and\n      swap1\n      dup4\n      0xffffffffffffffffffffffffffffffffffffffff\n      and\n      mul\n      or\n      swap1\n      sstore\n      pop\n      0x20\n      dup3\n      add\n      mload\n      dup2\n      0x01\n      add\n      sstore\n      0x40\n      dup3\n      add\n      mload\n      dup2\n      0x02\n      add\n      sstore\n      0x60\n      dup3\n      add\n      mload\n      dup2\n      0x03\n      add\n      sstore\n      0x80\n      dup3\n      add\n      mload\n      dup2\n      0x04\n      add\n      exp(0x0100, 0x00)\n      dup2\n      sload\n      dup2\n      0xff\n      mul\n      not\n      and\n      swap1\n      dup4\n      iszero\n      iszero\n      mul\n      or\n      swap1\n      sstore\n      pop\n      pop\n      pop\n        /* \"contracts/TheNftMarkContracts.sol\":4753:4790  Order(from,price,_tokenId,0x1a1,true) */\n      mload(0x40)\n      dup1\n      0xa0\n      add\n      0x40\n      mstore\n      dup1\n        /* \"contracts/TheNftMarkContracts.sol\":4759:4763  from */\n      dup8\n        /* \"contracts/TheNftMarkContracts.sol\":4753:4790  Order(from,price,_tokenId,0x1a1,true) */\n      0xffffffffffffffffffffffffffffffffffffffff\n      and\n      dup2\n      mstore\n      0x20\n      add\n        /* \"contracts/TheNftMarkContracts.sol\":4764:4769  price */\n      dup3\n        /* \"contracts/TheNftMarkContracts.sol\":4753:4790  Order(from,price,_tokenId,0x1a1,true) */\n      dup2\n      mstore\n      0x20\n      add\n        /* \"contracts/TheNftMarkContracts.sol\":4770:4778  _tokenId */\n      dup7\n        /* \"contracts/TheNftMarkContracts.sol\":4753:4790  Order(from,price,_tokenId,0x1a1,true) */\n      dup2\n      mstore\n      0x20\n      add\n        /* \"contracts/TheNftMarkContracts.sol\":4779:4784  0x1a1 */\n      0x01a1\n        /* \"contracts/TheNftMarkContracts.sol\":4753:4790  Order(from,price,_tokenId,0x1a1,true) */\n      dup2\n      mstore\n      0x20\n      add\n        /* \"contracts/TheNftMarkContracts.sol\":4785:4789  true */\n      0x01\n        /* \"contracts/TheNftMarkContracts.sol\":4753:4790  Order(from,price,_tokenId,0x1a1,true) */\n      iszero\n      iszero\n      dup2\n      mstore\n      pop\n        /* \"contracts/TheNftMarkContracts.sol\":4736:4742  orders */\n      0x03\n        /* \"contracts/TheNftMarkContracts.sol\":4743:4751  _tokenId */\n      dup7\n        /* \"contracts/TheNftMarkContracts.sol\":4736:4752  orders[_tokenId] */\n      dup2\n      sload\n      dup2\n      lt\n      tag_129\n      jumpi\n      tag_130\n      tag_79\n      jump\t// in\n    tag_130:\n    tag_129:\n      swap1\n      0x00\n      mstore\n      keccak256(0x00, 0x20)\n      swap1\n      0x05\n      mul\n      add\n        /* \"contracts/TheNftMarkContracts.sol\":4736:4790  orders[_tokenId]=Order(from,price,_tokenId,0x1a1,true) */\n      0x00\n      dup3\n      add\n      mload\n      dup2\n      0x00\n      add\n      exp(0x0100, 0x00)\n      dup2\n      sload\n      dup2\n      0xffffffffffffffffffffffffffffffffffffffff\n      mul\n      not\n      and\n      swap1\n      dup4\n      0xffffffffffffffffffffffffffffffffffffffff\n      and\n      mul\n      or\n      swap1\n      sstore\n      pop\n      0x20\n      dup3\n      add\n      mload\n      dup2\n      0x01\n      add\n      sstore\n      0x40\n      dup3\n      add\n      mload\n      dup2\n      0x02\n      add\n      sstore\n      0x60\n      dup3\n      add\n      mload\n      dup2\n      0x03\n      add\n      sstore\n      0x80\n      dup3\n      add\n      mload\n      dup2\n      0x04\n      add\n      exp(0x0100, 0x00)\n      dup2\n      sload\n      dup2\n      0xff\n      mul\n      not\n      and\n      swap1\n      dup4\n      iszero\n      iszero\n      mul\n      or\n      swap1\n      sstore\n      pop\n      swap1\n      pop\n      pop\n        /* \"contracts/TheNftMarkContracts.sol\":4840:4841  1 */\n      0x01\n        /* \"contracts/TheNftMarkContracts.sol\":4826:4832  orders */\n      0x03\n        /* \"contracts/TheNftMarkContracts.sol\":4826:4839  orders.length */\n      dup1\n      sload\n      swap1\n      pop\n        /* \"contracts/TheNftMarkContracts.sol\":4826:4841  orders.length-1 */\n      tag_132\n      swap2\n      swap1\n      tag_133\n      jump\t// in\n    tag_132:\n        /* \"contracts/TheNftMarkContracts.sol\":4801:4815  idToIndexOrder */\n      0x04\n        /* \"contracts/TheNftMarkContracts.sol\":4801:4825  idToIndexOrder[_tokenId] */\n      0x00\n        /* \"contracts/TheNftMarkContracts.sol\":4816:4824  _tokenId */\n      dup8\n        /* \"contracts/TheNftMarkContracts.sol\":4801:4825  idToIndexOrder[_tokenId] */\n      dup2\n      mstore\n      0x20\n      add\n      swap1\n      dup2\n      mstore\n      0x20\n      add\n      0x00\n      keccak256\n        /* \"contracts/TheNftMarkContracts.sol\":4801:4841  idToIndexOrder[_tokenId]=orders.length-1 */\n      dup2\n      swap1\n      sstore\n      pop\n        /* \"contracts/TheNftMarkContracts.sol\":4857:4903  NFTLoadToTheMarket(from, _tokenId, price,true) */\n      0x329ee163aac40df2720825989cf396f769b8587f10a9a98e3d8331df7700ce7b\n        /* \"contracts/TheNftMarkContracts.sol\":4876:4880  from */\n      dup7\n        /* \"contracts/TheNftMarkContracts.sol\":4882:4890  _tokenId */\n      dup7\n        /* \"contracts/TheNftMarkContracts.sol\":4892:4897  price */\n      dup4\n        /* \"contracts/TheNftMarkContracts.sol\":4898:4902  true */\n      0x01\n        /* \"contracts/TheNftMarkContracts.sol\":4857:4903  NFTLoadToTheMarket(from, _tokenId, price,true) */\n      mload(0x40)\n      tag_134\n      swap5\n      swap4\n      swap3\n      swap2\n      swap1\n      tag_135\n      jump\t// in\n    tag_134:\n      mload(0x40)\n      dup1\n      swap2\n      sub\n      swap1\n      log1\n        /* \"contracts/TheNftMarkContracts.sol\":375:385  0x150b7a02 */\n      0x150b7a02\n        /* \"contracts/TheNftMarkContracts.sol\":4922:4946  MAGIC_ON_ERC721_RECEIVED */\n      0xe0\n      shl\n        /* \"contracts/TheNftMarkContracts.sol\":4914:4946  return  MAGIC_ON_ERC721_RECEIVED */\n      swap2\n      pop\n      pop\n        /* \"contracts/TheNftMarkContracts.sol\":4425:4955  function onERC721Received(... */\n      swap5\n      swap4\n      pop\n      pop\n      pop\n      pop\n      jump\t// out\n        /* \"contracts/TheNftMarkContracts.sol\":5395:5903  function removeOrders(uint256 _tokenId) internal{... */\n    tag_76:\n        /* \"contracts/TheNftMarkContracts.sol\":5535:5548  uint256 index */\n      0x00\n        /* \"contracts/TheNftMarkContracts.sol\":5549:5563  idToIndexOrder */\n      0x04\n        /* \"contracts/TheNftMarkContracts.sol\":5549:5573  idToIndexOrder[_tokenId] */\n      0x00\n        /* \"contracts/TheNftMarkContracts.sol\":5564:5572  _tokenId */\n      dup4\n        /* \"contracts/TheNftMarkContracts.sol\":5549:5573  idToIndexOrder[_tokenId] */\n      dup2\n      mstore\n      0x20\n      add\n      swap1\n      dup2\n      mstore\n      0x20\n      add\n      0x00\n      keccak256\n      sload\n        /* \"contracts/TheNftMarkContracts.sol\":5535:5573  uint256 index=idToIndexOrder[_tokenId] */\n      swap1\n      pop\n        /* \"contracts/TheNftMarkContracts.sol\":5584:5601  uint256 lastIndex */\n      0x00\n        /* \"contracts/TheNftMarkContracts.sol\":5616:5617  1 */\n      0x01\n        /* \"contracts/TheNftMarkContracts.sol\":5602:5608  orders */\n      0x03\n        /* \"contracts/TheNftMarkContracts.sol\":5602:5615  orders.length */\n      dup1\n      sload\n      swap1\n      pop\n        /* \"contracts/TheNftMarkContracts.sol\":5602:5617  orders.length-1 */\n      tag_137\n      swap2\n      swap1\n      tag_133\n      jump\t// in\n    tag_137:\n        /* \"contracts/TheNftMarkContracts.sol\":5584:5617  uint256 lastIndex=orders.length-1 */\n      swap1\n      pop\n        /* \"contracts/TheNftMarkContracts.sol\":5638:5647  lastIndex */\n      dup1\n        /* \"contracts/TheNftMarkContracts.sol\":5631:5636  index */\n      dup3\n        /* \"contracts/TheNftMarkContracts.sol\":5631:5647  index!=lastIndex */\n      eq\n        /* \"contracts/TheNftMarkContracts.sol\":5628:5797  if(index!=lastIndex){... */\n      tag_138\n      jumpi\n        /* \"contracts/TheNftMarkContracts.sol\":5663:5682  Order storage order */\n      0x00\n        /* \"contracts/TheNftMarkContracts.sol\":5683:5689  orders */\n      0x03\n        /* \"contracts/TheNftMarkContracts.sol\":5690:5699  lastIndex */\n      dup3\n        /* \"contracts/TheNftMarkContracts.sol\":5683:5700  orders[lastIndex] */\n      dup2\n      sload\n      dup2\n      lt\n      tag_139\n      jumpi\n      tag_140\n      tag_79\n      jump\t// in\n    tag_140:\n    tag_139:\n      swap1\n      0x00\n      mstore\n      keccak256(0x00, 0x20)\n      swap1\n      0x05\n      mul\n      add\n        /* \"contracts/TheNftMarkContracts.sol\":5663:5700  Order storage order=orders[lastIndex] */\n      swap1\n      pop\n        /* \"contracts/TheNftMarkContracts.sol\":5729:5734  order */\n      dup1\n        /* \"contracts/TheNftMarkContracts.sol\":5715:5721  orders */\n      0x03\n        /* \"contracts/TheNftMarkContracts.sol\":5722:5727  index */\n      dup5\n        /* \"contracts/TheNftMarkContracts.sol\":5715:5728  orders[index] */\n      dup2\n      sload\n      dup2\n      lt\n      tag_142\n      jumpi\n      tag_143\n      tag_79\n      jump\t// in\n    tag_143:\n    tag_142:\n      swap1\n      0x00\n      mstore\n      keccak256(0x00, 0x20)\n      swap1\n      0x05\n      mul\n      add\n        /* \"contracts/TheNftMarkContracts.sol\":5715:5734  orders[index]=order */\n      0x00\n      dup3\n      add\n      0x00\n      swap1\n      sload\n      swap1\n      0x0100\n      exp\n      swap1\n      div\n      0xffffffffffffffffffffffffffffffffffffffff\n      and\n      dup2\n      0x00\n      add\n      exp(0x0100, 0x00)\n      dup2\n      sload\n      dup2\n      0xffffffffffffffffffffffffffffffffffffffff\n      mul\n      not\n      and\n      swap1\n      dup4\n      0xffffffffffffffffffffffffffffffffffffffff\n      and\n      mul\n      or\n      swap1\n      sstore\n      pop\n      0x01\n      dup3\n      add\n      sload\n      dup2\n      0x01\n      add\n      sstore\n      0x02\n      dup3\n      add\n      sload\n      dup2\n      0x02\n      add\n      sstore\n      0x03\n      dup3\n      add\n      sload\n      dup2\n      0x03\n      add\n      sstore\n      0x04\n      dup3\n      add\n      0x00\n      swap1\n      sload\n      swap1\n      0x0100\n      exp\n      swap1\n      div\n      0xff\n      and\n      dup2\n      0x04\n      add\n      exp(0x0100, 0x00)\n      dup2\n      sload\n      dup2\n      0xff\n      mul\n      not\n      and\n      swap1\n      dup4\n      iszero\n      iszero\n      mul\n      or\n      swap1\n      sstore\n      pop\n      swap1\n      pop\n      pop\n        /* \"contracts/TheNftMarkContracts.sol\":5780:5785  index */\n      dup3\n        /* \"contracts/TheNftMarkContracts.sol\":5749:5763  idToIndexOrder */\n      0x04\n        /* \"contracts/TheNftMarkContracts.sol\":5749:5779  idToIndexOrder[order._tokenId] */\n      0x00\n        /* \"contracts/TheNftMarkContracts.sol\":5764:5769  order */\n      dup4\n        /* \"contracts/TheNftMarkContracts.sol\":5764:5778  order._tokenId */\n      0x02\n      add\n      sload\n        /* \"contracts/TheNftMarkContracts.sol\":5749:5779  idToIndexOrder[order._tokenId] */\n      dup2\n      mstore\n      0x20\n      add\n      swap1\n      dup2\n      mstore\n      0x20\n      add\n      0x00\n      keccak256\n        /* \"contracts/TheNftMarkContracts.sol\":5749:5785  idToIndexOrder[order._tokenId]=index */\n      dup2\n      swap1\n      sstore\n      pop\n        /* \"contracts/TheNftMarkContracts.sol\":5648:5797  {... */\n      pop\n        /* \"contracts/TheNftMarkContracts.sol\":5628:5797  if(index!=lastIndex){... */\n    tag_138:\n        /* \"contracts/TheNftMarkContracts.sol\":5807:5813  orders */\n      0x03\n        /* \"contracts/TheNftMarkContracts.sol\":5807:5819  orders.pop() */\n      dup1\n      sload\n      dup1\n      tag_145\n      jumpi\n      tag_146\n      tag_147\n      jump\t// in\n    tag_146:\n    tag_145:\n      0x01\n      swap1\n      sub\n      dup2\n      dup2\n      swap1\n      0x00\n      mstore\n      keccak256(0x00, 0x20)\n      swap1\n      0x05\n      mul\n      add\n      0x00\n      dup1\n      dup3\n      add\n      exp(0x0100, 0x00)\n      dup2\n      sload\n      swap1\n      0xffffffffffffffffffffffffffffffffffffffff\n      mul\n      not\n      and\n      swap1\n      sstore\n      0x01\n      dup3\n      add\n      0x00\n      swap1\n      sstore\n      0x02\n      dup3\n      add\n      0x00\n      swap1\n      sstore\n      0x03\n      dup3\n      add\n      0x00\n      swap1\n      sstore\n      0x04\n      dup3\n      add\n      exp(0x0100, 0x00)\n      dup2\n      sload\n      swap1\n      0xff\n      mul\n      not\n      and\n      swap1\n      sstore\n      pop\n      pop\n      swap1\n      sstore\n        /* \"contracts/TheNftMarkContracts.sol\":5837:5843  orders */\n      0x03\n        /* \"contracts/TheNftMarkContracts.sol\":5844:5852  _tokenId */\n      dup4\n        /* \"contracts/TheNftMarkContracts.sol\":5837:5853  orders[_tokenId] */\n      dup2\n      sload\n      dup2\n      lt\n      tag_149\n      jumpi\n      tag_150\n      tag_79\n      jump\t// in\n    tag_150:\n    tag_149:\n      swap1\n      0x00\n      mstore\n      keccak256(0x00, 0x20)\n      swap1\n      0x05\n      mul\n      add\n      0x00\n        /* \"contracts/TheNftMarkContracts.sol\":5830:5853  delete orders[_tokenId] */\n      dup1\n      dup3\n      add\n      exp(0x0100, 0x00)\n      dup2\n      sload\n      swap1\n      0xffffffffffffffffffffffffffffffffffffffff\n      mul\n      not\n      and\n      swap1\n      sstore\n      0x01\n      dup3\n      add\n      0x00\n      swap1\n      sstore\n      0x02\n      dup3\n      add\n      0x00\n      swap1\n      sstore\n      0x03\n      dup3\n      add\n      0x00\n      swap1\n      sstore\n      0x04\n      dup3\n      add\n      exp(0x0100, 0x00)\n      dup2\n      sload\n      swap1\n      0xff\n      mul\n      not\n      and\n      swap1\n      sstore\n      pop\n      pop\n        /* \"contracts/TheNftMarkContracts.sol\":5871:5885  idToIndexOrder */\n      0x04\n        /* \"contracts/TheNftMarkContracts.sol\":5871:5895  idToIndexOrder[_tokenId] */\n      0x00\n        /* \"contracts/TheNftMarkContracts.sol\":5886:5894  _tokenId */\n      dup5\n        /* \"contracts/TheNftMarkContracts.sol\":5871:5895  idToIndexOrder[_tokenId] */\n      dup2\n      mstore\n      0x20\n      add\n      swap1\n      dup2\n      mstore\n      0x20\n      add\n      0x00\n      keccak256\n        /* \"contracts/TheNftMarkContracts.sol\":5864:5895  delete idToIndexOrder[_tokenId] */\n      0x00\n      swap1\n      sstore\n        /* \"contracts/TheNftMarkContracts.sol\":5443:5903  {... */\n      pop\n      pop\n        /* \"contracts/TheNftMarkContracts.sol\":5395:5903  function removeOrders(uint256 _tokenId) internal{... */\n      pop\n      jump\t// out\n        /* \"#utility.yul\":7:82   */\n    tag_152:\n        /* \"#utility.yul\":40:46   */\n      0x00\n        /* \"#utility.yul\":73:75   */\n      0x40\n        /* \"#utility.yul\":67:76   */\n      mload\n        /* \"#utility.yul\":57:76   */\n      swap1\n      pop\n        /* \"#utility.yul\":7:82   */\n      swap1\n      jump\t// out\n        /* \"#utility.yul\":88:205   */\n    tag_153:\n        /* \"#utility.yul\":197:198   */\n      0x00\n        /* \"#utility.yul\":194:195   */\n      dup1\n        /* \"#utility.yul\":187:199   */\n      revert\n        /* \"#utility.yul\":211:328   */\n    tag_154:\n        /* \"#utility.yul\":320:321   */\n      0x00\n        /* \"#utility.yul\":317:318   */\n      dup1\n        /* \"#utility.yul\":310:322   */\n      revert\n        /* \"#utility.yul\":334:411   */\n    tag_155:\n        /* \"#utility.yul\":371:378   */\n      0x00\n        /* \"#utility.yul\":400:405   */\n      dup2\n        /* \"#utility.yul\":389:405   */\n      swap1\n      pop\n        /* \"#utility.yul\":334:411   */\n      swap2\n      swap1\n      pop\n      jump\t// out\n        /* \"#utility.yul\":417:539   */\n    tag_156:\n        /* \"#utility.yul\":490:514   */\n      tag_214\n        /* \"#utility.yul\":508:513   */\n      dup2\n        /* \"#utility.yul\":490:514   */\n      tag_155\n      jump\t// in\n    tag_214:\n        /* \"#utility.yul\":483:488   */\n      dup2\n        /* \"#utility.yul\":480:515   */\n      eq\n        /* \"#utility.yul\":470:533   */\n      tag_215\n      jumpi\n        /* \"#utility.yul\":529:530   */\n      0x00\n        /* \"#utility.yul\":526:527   */\n      dup1\n        /* \"#utility.yul\":519:531   */\n      revert\n        /* \"#utility.yul\":470:533   */\n    tag_215:\n        /* \"#utility.yul\":417:539   */\n      pop\n      jump\t// out\n        /* \"#utility.yul\":545:684   */\n    tag_157:\n        /* \"#utility.yul\":591:596   */\n      0x00\n        /* \"#utility.yul\":629:635   */\n      dup2\n        /* \"#utility.yul\":616:636   */\n      calldataload\n        /* \"#utility.yul\":607:636   */\n      swap1\n      pop\n        /* \"#utility.yul\":645:678   */\n      tag_217\n        /* \"#utility.yul\":672:677   */\n      dup2\n        /* \"#utility.yul\":645:678   */\n      tag_156\n      jump\t// in\n    tag_217:\n        /* \"#utility.yul\":545:684   */\n      swap3\n      swap2\n      pop\n      pop\n      jump\t// out\n        /* \"#utility.yul\":690:1019   */\n    tag_16:\n        /* \"#utility.yul\":749:755   */\n      0x00\n        /* \"#utility.yul\":798:800   */\n      0x20\n        /* \"#utility.yul\":786:795   */\n      dup3\n        /* \"#utility.yul\":777:784   */\n      dup5\n        /* \"#utility.yul\":773:796   */\n      sub\n        /* \"#utility.yul\":769:801   */\n      slt\n        /* \"#utility.yul\":766:885   */\n      iszero\n      tag_219\n      jumpi\n        /* \"#utility.yul\":804:883   */\n      tag_220\n      tag_153\n      jump\t// in\n    tag_220:\n        /* \"#utility.yul\":766:885   */\n    tag_219:\n        /* \"#utility.yul\":924:925   */\n      0x00\n        /* \"#utility.yul\":949:1002   */\n      tag_221\n        /* \"#utility.yul\":994:1001   */\n      dup5\n        /* \"#utility.yul\":985:991   */\n      dup3\n        /* \"#utility.yul\":974:983   */\n      dup6\n        /* \"#utility.yul\":970:992   */\n      add\n        /* \"#utility.yul\":949:1002   */\n      tag_157\n      jump\t// in\n    tag_221:\n        /* \"#utility.yul\":939:1002   */\n      swap2\n      pop\n        /* \"#utility.yul\":895:1012   */\n      pop\n        /* \"#utility.yul\":690:1019   */\n      swap3\n      swap2\n      pop\n      pop\n      jump\t// out\n        /* \"#utility.yul\":1025:1151   */\n    tag_158:\n        /* \"#utility.yul\":1062:1069   */\n      0x00\n        /* \"#utility.yul\":1102:1144   */\n      0xffffffffffffffffffffffffffffffffffffffff\n        /* \"#utility.yul\":1095:1100   */\n      dup3\n        /* \"#utility.yul\":1091:1145   */\n      and\n        /* \"#utility.yul\":1080:1145   */\n      swap1\n      pop\n        /* \"#utility.yul\":1025:1151   */\n      swap2\n      swap1\n      pop\n      jump\t// out\n        /* \"#utility.yul\":1157:1253   */\n    tag_159:\n        /* \"#utility.yul\":1194:1201   */\n      0x00\n        /* \"#utility.yul\":1223:1247   */\n      tag_224\n        /* \"#utility.yul\":1241:1246   */\n      dup3\n        /* \"#utility.yul\":1223:1247   */\n      tag_158\n      jump\t// in\n    tag_224:\n        /* \"#utility.yul\":1212:1247   */\n      swap1\n      pop\n        /* \"#utility.yul\":1157:1253   */\n      swap2\n      swap1\n      pop\n      jump\t// out\n        /* \"#utility.yul\":1259:1377   */\n    tag_160:\n        /* \"#utility.yul\":1346:1370   */\n      tag_226\n        /* \"#utility.yul\":1364:1369   */\n      dup2\n        /* \"#utility.yul\":1346:1370   */\n      tag_159\n      jump\t// in\n    tag_226:\n        /* \"#utility.yul\":1341:1344   */\n      dup3\n        /* \"#utility.yul\":1334:1371   */\n      mstore\n        /* \"#utility.yul\":1259:1377   */\n      pop\n      pop\n      jump\t// out\n        /* \"#utility.yul\":1383:1501   */\n    tag_161:\n        /* \"#utility.yul\":1470:1494   */\n      tag_228\n        /* \"#utility.yul\":1488:1493   */\n      dup2\n        /* \"#utility.yul\":1470:1494   */\n      tag_155\n      jump\t// in\n    tag_228:\n        /* \"#utility.yul\":1465:1468   */\n      dup3\n        /* \"#utility.yul\":1458:1495   */\n      mstore\n        /* \"#utility.yul\":1383:1501   */\n      pop\n      pop\n      jump\t// out\n        /* \"#utility.yul\":1507:1597   */\n    tag_162:\n        /* \"#utility.yul\":1541:1548   */\n      0x00\n        /* \"#utility.yul\":1584:1589   */\n      dup2\n        /* \"#utility.yul\":1577:1590   */\n      iszero\n        /* \"#utility.yul\":1570:1591   */\n      iszero\n        /* \"#utility.yul\":1559:1591   */\n      swap1\n      pop\n        /* \"#utility.yul\":1507:1597   */\n      swap2\n      swap1\n      pop\n      jump\t// out\n        /* \"#utility.yul\":1603:1712   */\n    tag_163:\n        /* \"#utility.yul\":1684:1705   */\n      tag_231\n        /* \"#utility.yul\":1699:1704   */\n      dup2\n        /* \"#utility.yul\":1684:1705   */\n      tag_162\n      jump\t// in\n    tag_231:\n        /* \"#utility.yul\":1679:1682   */\n      dup3\n        /* \"#utility.yul\":1672:1706   */\n      mstore\n        /* \"#utility.yul\":1603:1712   */\n      pop\n      pop\n      jump\t// out\n        /* \"#utility.yul\":1718:2370   */\n    tag_19:\n        /* \"#utility.yul\":1917:1921   */\n      0x00\n        /* \"#utility.yul\":1955:1958   */\n      0xa0\n        /* \"#utility.yul\":1944:1953   */\n      dup3\n        /* \"#utility.yul\":1940:1959   */\n      add\n        /* \"#utility.yul\":1932:1959   */\n      swap1\n      pop\n        /* \"#utility.yul\":1969:2040   */\n      tag_233\n        /* \"#utility.yul\":2037:2038   */\n      0x00\n        /* \"#utility.yul\":2026:2035   */\n      dup4\n        /* \"#utility.yul\":2022:2039   */\n      add\n        /* \"#utility.yul\":2013:2019   */\n      dup9\n        /* \"#utility.yul\":1969:2040   */\n      tag_160\n      jump\t// in\n    tag_233:\n        /* \"#utility.yul\":2050:2122   */\n      tag_234\n        /* \"#utility.yul\":2118:2120   */\n      0x20\n        /* \"#utility.yul\":2107:2116   */\n      dup4\n        /* \"#utility.yul\":2103:2121   */\n      add\n        /* \"#utility.yul\":2094:2100   */\n      dup8\n        /* \"#utility.yul\":2050:2122   */\n      tag_161\n      jump\t// in\n    tag_234:\n        /* \"#utility.yul\":2132:2204   */\n      tag_235\n        /* \"#utility.yul\":2200:2202   */\n      0x40\n        /* \"#utility.yul\":2189:2198   */\n      dup4\n        /* \"#utility.yul\":2185:2203   */\n      add\n        /* \"#utility.yul\":2176:2182   */\n      dup7\n        /* \"#utility.yul\":2132:2204   */\n      tag_161\n      jump\t// in\n    tag_235:\n        /* \"#utility.yul\":2214:2286   */\n      tag_236\n        /* \"#utility.yul\":2282:2284   */\n      0x60\n        /* \"#utility.yul\":2271:2280   */\n      dup4\n        /* \"#utility.yul\":2267:2285   */\n      add\n        /* \"#utility.yul\":2258:2264   */\n      dup6\n        /* \"#utility.yul\":2214:2286   */\n      tag_161\n      jump\t// in\n    tag_236:\n        /* \"#utility.yul\":2296:2363   */\n      tag_237\n        /* \"#utility.yul\":2358:2361   */\n      0x80\n        /* \"#utility.yul\":2347:2356   */\n      dup4\n        /* \"#utility.yul\":2343:2362   */\n      add\n        /* \"#utility.yul\":2334:2340   */\n      dup5\n        /* \"#utility.yul\":2296:2363   */\n      tag_163\n      jump\t// in\n    tag_237:\n        /* \"#utility.yul\":1718:2370   */\n      swap7\n      swap6\n      pop\n      pop\n      pop\n      pop\n      pop\n      pop\n      jump\t// out\n        /* \"#utility.yul\":2376:2436   */\n    tag_164:\n        /* \"#utility.yul\":2404:2407   */\n      0x00\n        /* \"#utility.yul\":2425:2430   */\n      dup2\n        /* \"#utility.yul\":2418:2430   */\n      swap1\n      pop\n        /* \"#utility.yul\":2376:2436   */\n      swap2\n      swap1\n      pop\n      jump\t// out\n        /* \"#utility.yul\":2442:2584   */\n    tag_165:\n        /* \"#utility.yul\":2492:2501   */\n      0x00\n        /* \"#utility.yul\":2525:2578   */\n      tag_240\n        /* \"#utility.yul\":2543:2577   */\n      tag_241\n        /* \"#utility.yul\":2552:2576   */\n      tag_242\n        /* \"#utility.yul\":2570:2575   */\n      dup5\n        /* \"#utility.yul\":2552:2576   */\n      tag_158\n      jump\t// in\n    tag_242:\n        /* \"#utility.yul\":2543:2577   */\n      tag_164\n      jump\t// in\n    tag_241:\n        /* \"#utility.yul\":2525:2578   */\n      tag_158\n      jump\t// in\n    tag_240:\n        /* \"#utility.yul\":2512:2578   */\n      swap1\n      pop\n        /* \"#utility.yul\":2442:2584   */\n      swap2\n      swap1\n      pop\n      jump\t// out\n        /* \"#utility.yul\":2590:2716   */\n    tag_166:\n        /* \"#utility.yul\":2640:2649   */\n      0x00\n        /* \"#utility.yul\":2673:2710   */\n      tag_244\n        /* \"#utility.yul\":2704:2709   */\n      dup3\n        /* \"#utility.yul\":2673:2710   */\n      tag_165\n      jump\t// in\n    tag_244:\n        /* \"#utility.yul\":2660:2710   */\n      swap1\n      pop\n        /* \"#utility.yul\":2590:2716   */\n      swap2\n      swap1\n      pop\n      jump\t// out\n        /* \"#utility.yul\":2722:2861   */\n    tag_167:\n        /* \"#utility.yul\":2785:2794   */\n      0x00\n        /* \"#utility.yul\":2818:2855   */\n      tag_246\n        /* \"#utility.yul\":2849:2854   */\n      dup3\n        /* \"#utility.yul\":2818:2855   */\n      tag_166\n      jump\t// in\n    tag_246:\n        /* \"#utility.yul\":2805:2855   */\n      swap1\n      pop\n        /* \"#utility.yul\":2722:2861   */\n      swap2\n      swap1\n      pop\n      jump\t// out\n        /* \"#utility.yul\":2867:3024   */\n    tag_168:\n        /* \"#utility.yul\":2967:3017   */\n      tag_248\n        /* \"#utility.yul\":3011:3016   */\n      dup2\n        /* \"#utility.yul\":2967:3017   */\n      tag_167\n      jump\t// in\n    tag_248:\n        /* \"#utility.yul\":2962:2965   */\n      dup3\n        /* \"#utility.yul\":2955:3018   */\n      mstore\n        /* \"#utility.yul\":2867:3024   */\n      pop\n      pop\n      jump\t// out\n        /* \"#utility.yul\":3030:3278   */\n    tag_26:\n        /* \"#utility.yul\":3136:3140   */\n      0x00\n        /* \"#utility.yul\":3174:3176   */\n      0x20\n        /* \"#utility.yul\":3163:3172   */\n      dup3\n        /* \"#utility.yul\":3159:3177   */\n      add\n        /* \"#utility.yul\":3151:3177   */\n      swap1\n      pop\n        /* \"#utility.yul\":3187:3271   */\n      tag_250\n        /* \"#utility.yul\":3268:3269   */\n      0x00\n        /* \"#utility.yul\":3257:3266   */\n      dup4\n        /* \"#utility.yul\":3253:3270   */\n      add\n        /* \"#utility.yul\":3244:3250   */\n      dup5\n        /* \"#utility.yul\":3187:3271   */\n      tag_168\n      jump\t// in\n    tag_250:\n        /* \"#utility.yul\":3030:3278   */\n      swap3\n      swap2\n      pop\n      pop\n      jump\t// out\n        /* \"#utility.yul\":3284:3506   */\n    tag_34:\n        /* \"#utility.yul\":3377:3381   */\n      0x00\n        /* \"#utility.yul\":3415:3417   */\n      0x20\n        /* \"#utility.yul\":3404:3413   */\n      dup3\n        /* \"#utility.yul\":3400:3418   */\n      add\n        /* \"#utility.yul\":3392:3418   */\n      swap1\n      pop\n        /* \"#utility.yul\":3428:3499   */\n      tag_252\n        /* \"#utility.yul\":3496:3497   */\n      0x00\n        /* \"#utility.yul\":3485:3494   */\n      dup4\n        /* \"#utility.yul\":3481:3498   */\n      add\n        /* \"#utility.yul\":3472:3478   */\n      dup5\n        /* \"#utility.yul\":3428:3499   */\n      tag_161\n      jump\t// in\n    tag_252:\n        /* \"#utility.yul\":3284:3506   */\n      swap3\n      swap2\n      pop\n      pop\n      jump\t// out\n        /* \"#utility.yul\":3512:3629   */\n    tag_169:\n        /* \"#utility.yul\":3621:3622   */\n      0x00\n        /* \"#utility.yul\":3618:3619   */\n      dup1\n        /* \"#utility.yul\":3611:3623   */\n      revert\n        /* \"#utility.yul\":3635:3752   */\n    tag_170:\n        /* \"#utility.yul\":3744:3745   */\n      0x00\n        /* \"#utility.yul\":3741:3742   */\n      dup1\n        /* \"#utility.yul\":3734:3746   */\n      revert\n        /* \"#utility.yul\":3758:3860   */\n    tag_171:\n        /* \"#utility.yul\":3799:3805   */\n      0x00\n        /* \"#utility.yul\":3850:3852   */\n      0x1f\n        /* \"#utility.yul\":3846:3853   */\n      not\n        /* \"#utility.yul\":3841:3843   */\n      0x1f\n        /* \"#utility.yul\":3834:3839   */\n      dup4\n        /* \"#utility.yul\":3830:3844   */\n      add\n        /* \"#utility.yul\":3826:3854   */\n      and\n        /* \"#utility.yul\":3816:3854   */\n      swap1\n      pop\n        /* \"#utility.yul\":3758:3860   */\n      swap2\n      swap1\n      pop\n      jump\t// out\n        /* \"#utility.yul\":3866:4046   */\n    tag_172:\n        /* \"#utility.yul\":3914:3991   */\n      0x4e487b7100000000000000000000000000000000000000000000000000000000\n        /* \"#utility.yul\":3911:3912   */\n      0x00\n        /* \"#utility.yul\":3904:3992   */\n      mstore\n        /* \"#utility.yul\":4011:4015   */\n      0x41\n        /* \"#utility.yul\":4008:4009   */\n      0x04\n        /* \"#utility.yul\":4001:4016   */\n      mstore\n        /* \"#utility.yul\":4035:4039   */\n      0x24\n        /* \"#utility.yul\":4032:4033   */\n      0x00\n        /* \"#utility.yul\":4025:4040   */\n      revert\n        /* \"#utility.yul\":4052:4333   */\n    tag_173:\n        /* \"#utility.yul\":4135:4162   */\n      tag_258\n        /* \"#utility.yul\":4157:4161   */\n      dup3\n        /* \"#utility.yul\":4135:4162   */\n      tag_171\n      jump\t// in\n    tag_258:\n        /* \"#utility.yul\":4127:4133   */\n      dup2\n        /* \"#utility.yul\":4123:4163   */\n      add\n        /* \"#utility.yul\":4265:4271   */\n      dup2\n        /* \"#utility.yul\":4253:4263   */\n      dup2\n        /* \"#utility.yul\":4250:4272   */\n      lt\n        /* \"#utility.yul\":4229:4247   */\n      0xffffffffffffffff\n        /* \"#utility.yul\":4217:4227   */\n      dup3\n        /* \"#utility.yul\":4214:4248   */\n      gt\n        /* \"#utility.yul\":4211:4273   */\n      or\n        /* \"#utility.yul\":4208:4296   */\n      iszero\n      tag_259\n      jumpi\n        /* \"#utility.yul\":4276:4294   */\n      tag_260\n      tag_172\n      jump\t// in\n    tag_260:\n        /* \"#utility.yul\":4208:4296   */\n    tag_259:\n        /* \"#utility.yul\":4316:4326   */\n      dup1\n        /* \"#utility.yul\":4312:4314   */\n      0x40\n        /* \"#utility.yul\":4305:4327   */\n      mstore\n        /* \"#utility.yul\":4095:4333   */\n      pop\n        /* \"#utility.yul\":4052:4333   */\n      pop\n      pop\n      jump\t// out\n        /* \"#utility.yul\":4339:4468   */\n    tag_174:\n        /* \"#utility.yul\":4373:4379   */\n      0x00\n        /* \"#utility.yul\":4400:4420   */\n      tag_262\n      tag_152\n      jump\t// in\n    tag_262:\n        /* \"#utility.yul\":4390:4420   */\n      swap1\n      pop\n        /* \"#utility.yul\":4429:4462   */\n      tag_263\n        /* \"#utility.yul\":4457:4461   */\n      dup3\n        /* \"#utility.yul\":4449:4455   */\n      dup3\n        /* \"#utility.yul\":4429:4462   */\n      tag_173\n      jump\t// in\n    tag_263:\n        /* \"#utility.yul\":4339:4468   */\n      swap2\n      swap1\n      pop\n      jump\t// out\n        /* \"#utility.yul\":4474:4781   */\n    tag_175:\n        /* \"#utility.yul\":4535:4539   */\n      0x00\n        /* \"#utility.yul\":4625:4643   */\n      0xffffffffffffffff\n        /* \"#utility.yul\":4617:4623   */\n      dup3\n        /* \"#utility.yul\":4614:4644   */\n      gt\n        /* \"#utility.yul\":4611:4667   */\n      iszero\n      tag_265\n      jumpi\n        /* \"#utility.yul\":4647:4665   */\n      tag_266\n      tag_172\n      jump\t// in\n    tag_266:\n        /* \"#utility.yul\":4611:4667   */\n    tag_265:\n        /* \"#utility.yul\":4685:4714   */\n      tag_267\n        /* \"#utility.yul\":4707:4713   */\n      dup3\n        /* \"#utility.yul\":4685:4714   */\n      tag_171\n      jump\t// in\n    tag_267:\n        /* \"#utility.yul\":4677:4714   */\n      swap1\n      pop\n        /* \"#utility.yul\":4769:4773   */\n      0x20\n        /* \"#utility.yul\":4763:4767   */\n      dup2\n        /* \"#utility.yul\":4759:4774   */\n      add\n        /* \"#utility.yul\":4751:4774   */\n      swap1\n      pop\n        /* \"#utility.yul\":4474:4781   */\n      swap2\n      swap1\n      pop\n      jump\t// out\n        /* \"#utility.yul\":4787:4933   */\n    tag_176:\n        /* \"#utility.yul\":4884:4890   */\n      dup3\n        /* \"#utility.yul\":4879:4882   */\n      dup2\n        /* \"#utility.yul\":4874:4877   */\n      dup4\n        /* \"#utility.yul\":4861:4891   */\n      calldatacopy\n        /* \"#utility.yul\":4925:4926   */\n      0x00\n        /* \"#utility.yul\":4916:4922   */\n      dup4\n        /* \"#utility.yul\":4911:4914   */\n      dup4\n        /* \"#utility.yul\":4907:4923   */\n      add\n        /* \"#utility.yul\":4900:4927   */\n      mstore\n        /* \"#utility.yul\":4787:4933   */\n      pop\n      pop\n      pop\n      jump\t// out\n        /* \"#utility.yul\":4939:5362   */\n    tag_177:\n        /* \"#utility.yul\":5016:5021   */\n      0x00\n        /* \"#utility.yul\":5041:5106   */\n      tag_270\n        /* \"#utility.yul\":5057:5105   */\n      tag_271\n        /* \"#utility.yul\":5098:5104   */\n      dup5\n        /* \"#utility.yul\":5057:5105   */\n      tag_175\n      jump\t// in\n    tag_271:\n        /* \"#utility.yul\":5041:5106   */\n      tag_174\n      jump\t// in\n    tag_270:\n        /* \"#utility.yul\":5032:5106   */\n      swap1\n      pop\n        /* \"#utility.yul\":5129:5135   */\n      dup3\n        /* \"#utility.yul\":5122:5127   */\n      dup2\n        /* \"#utility.yul\":5115:5136   */\n      mstore\n        /* \"#utility.yul\":5167:5171   */\n      0x20\n        /* \"#utility.yul\":5160:5165   */\n      dup2\n        /* \"#utility.yul\":5156:5172   */\n      add\n        /* \"#utility.yul\":5205:5208   */\n      dup5\n        /* \"#utility.yul\":5196:5202   */\n      dup5\n        /* \"#utility.yul\":5191:5194   */\n      dup5\n        /* \"#utility.yul\":5187:5203   */\n      add\n        /* \"#utility.yul\":5184:5209   */\n      gt\n        /* \"#utility.yul\":5181:5293   */\n      iszero\n      tag_272\n      jumpi\n        /* \"#utility.yul\":5212:5291   */\n      tag_273\n      tag_170\n      jump\t// in\n    tag_273:\n        /* \"#utility.yul\":5181:5293   */\n    tag_272:\n        /* \"#utility.yul\":5302:5356   */\n      tag_274\n        /* \"#utility.yul\":5349:5355   */\n      dup5\n        /* \"#utility.yul\":5344:5347   */\n      dup3\n        /* \"#utility.yul\":5339:5342   */\n      dup6\n        /* \"#utility.yul\":5302:5356   */\n      tag_176\n      jump\t// in\n    tag_274:\n        /* \"#utility.yul\":5022:5362   */\n      pop\n        /* \"#utility.yul\":4939:5362   */\n      swap4\n      swap3\n      pop\n      pop\n      pop\n      jump\t// out\n        /* \"#utility.yul\":5381:5719   */\n    tag_178:\n        /* \"#utility.yul\":5436:5441   */\n      0x00\n        /* \"#utility.yul\":5485:5488   */\n      dup3\n        /* \"#utility.yul\":5478:5482   */\n      0x1f\n        /* \"#utility.yul\":5470:5476   */\n      dup4\n        /* \"#utility.yul\":5466:5483   */\n      add\n        /* \"#utility.yul\":5462:5489   */\n      slt\n        /* \"#utility.yul\":5452:5574   */\n      tag_276\n      jumpi\n        /* \"#utility.yul\":5493:5572   */\n      tag_277\n      tag_169\n      jump\t// in\n    tag_277:\n        /* \"#utility.yul\":5452:5574   */\n    tag_276:\n        /* \"#utility.yul\":5610:5616   */\n      dup2\n        /* \"#utility.yul\":5597:5617   */\n      calldataload\n        /* \"#utility.yul\":5635:5713   */\n      tag_278\n        /* \"#utility.yul\":5709:5712   */\n      dup5\n        /* \"#utility.yul\":5701:5707   */\n      dup3\n        /* \"#utility.yul\":5694:5698   */\n      0x20\n        /* \"#utility.yul\":5686:5692   */\n      dup7\n        /* \"#utility.yul\":5682:5699   */\n      add\n        /* \"#utility.yul\":5635:5713   */\n      tag_177\n      jump\t// in\n    tag_278:\n        /* \"#utility.yul\":5626:5713   */\n      swap2\n      pop\n        /* \"#utility.yul\":5442:5719   */\n      pop\n        /* \"#utility.yul\":5381:5719   */\n      swap3\n      swap2\n      pop\n      pop\n      jump\t// out\n        /* \"#utility.yul\":5725:6377   */\n    tag_41:\n        /* \"#utility.yul\":5802:5808   */\n      0x00\n        /* \"#utility.yul\":5810:5816   */\n      dup1\n        /* \"#utility.yul\":5859:5861   */\n      0x40\n        /* \"#utility.yul\":5847:5856   */\n      dup4\n        /* \"#utility.yul\":5838:5845   */\n      dup6\n        /* \"#utility.yul\":5834:5857   */\n      sub\n        /* \"#utility.yul\":5830:5862   */\n      slt\n        /* \"#utility.yul\":5827:5946   */\n      iszero\n      tag_280\n      jumpi\n        /* \"#utility.yul\":5865:5944   */\n      tag_281\n      tag_153\n      jump\t// in\n    tag_281:\n        /* \"#utility.yul\":5827:5946   */\n    tag_280:\n        /* \"#utility.yul\":6013:6014   */\n      0x00\n        /* \"#utility.yul\":6002:6011   */\n      dup4\n        /* \"#utility.yul\":5998:6015   */\n      add\n        /* \"#utility.yul\":5985:6016   */\n      calldataload\n        /* \"#utility.yul\":6043:6061   */\n      0xffffffffffffffff\n        /* \"#utility.yul\":6035:6041   */\n      dup2\n        /* \"#utility.yul\":6032:6062   */\n      gt\n        /* \"#utility.yul\":6029:6146   */\n      iszero\n      tag_282\n      jumpi\n        /* \"#utility.yul\":6065:6144   */\n      tag_283\n      tag_154\n      jump\t// in\n    tag_283:\n        /* \"#utility.yul\":6029:6146   */\n    tag_282:\n        /* \"#utility.yul\":6170:6232   */\n      tag_284\n        /* \"#utility.yul\":6224:6231   */\n      dup6\n        /* \"#utility.yul\":6215:6221   */\n      dup3\n        /* \"#utility.yul\":6204:6213   */\n      dup7\n        /* \"#utility.yul\":6200:6222   */\n      add\n        /* \"#utility.yul\":6170:6232   */\n      tag_178\n      jump\t// in\n    tag_284:\n        /* \"#utility.yul\":6160:6232   */\n      swap3\n      pop\n        /* \"#utility.yul\":5956:6242   */\n      pop\n        /* \"#utility.yul\":6281:6283   */\n      0x20\n        /* \"#utility.yul\":6307:6360   */\n      tag_285\n        /* \"#utility.yul\":6352:6359   */\n      dup6\n        /* \"#utility.yul\":6343:6349   */\n      dup3\n        /* \"#utility.yul\":6332:6341   */\n      dup7\n        /* \"#utility.yul\":6328:6350   */\n      add\n        /* \"#utility.yul\":6307:6360   */\n      tag_157\n      jump\t// in\n    tag_285:\n        /* \"#utility.yul\":6297:6360   */\n      swap2\n      pop\n        /* \"#utility.yul\":6252:6370   */\n      pop\n        /* \"#utility.yul\":5725:6377   */\n      swap3\n      pop\n      swap3\n      swap1\n      pop\n      jump\t// out\n        /* \"#utility.yul\":6383:6524   */\n    tag_179:\n        /* \"#utility.yul\":6448:6457   */\n      0x00\n        /* \"#utility.yul\":6481:6518   */\n      tag_287\n        /* \"#utility.yul\":6512:6517   */\n      dup3\n        /* \"#utility.yul\":6481:6518   */\n      tag_166\n      jump\t// in\n    tag_287:\n        /* \"#utility.yul\":6468:6518   */\n      swap1\n      pop\n        /* \"#utility.yul\":6383:6524   */\n      swap2\n      swap1\n      pop\n      jump\t// out\n        /* \"#utility.yul\":6530:6691   */\n    tag_180:\n        /* \"#utility.yul\":6632:6684   */\n      tag_289\n        /* \"#utility.yul\":6678:6683   */\n      dup2\n        /* \"#utility.yul\":6632:6684   */\n      tag_179\n      jump\t// in\n    tag_289:\n        /* \"#utility.yul\":6627:6630   */\n      dup3\n        /* \"#utility.yul\":6620:6685   */\n      mstore\n        /* \"#utility.yul\":6530:6691   */\n      pop\n      pop\n      jump\t// out\n        /* \"#utility.yul\":6697:6949   */\n    tag_47:\n        /* \"#utility.yul\":6805:6809   */\n      0x00\n        /* \"#utility.yul\":6843:6845   */\n      0x20\n        /* \"#utility.yul\":6832:6841   */\n      dup3\n        /* \"#utility.yul\":6828:6846   */\n      add\n        /* \"#utility.yul\":6820:6846   */\n      swap1\n      pop\n        /* \"#utility.yul\":6856:6942   */\n      tag_291\n        /* \"#utility.yul\":6939:6940   */\n      0x00\n        /* \"#utility.yul\":6928:6937   */\n      dup4\n        /* \"#utility.yul\":6924:6941   */\n      add\n        /* \"#utility.yul\":6915:6921   */\n      dup5\n        /* \"#utility.yul\":6856:6942   */\n      tag_180\n      jump\t// in\n    tag_291:\n        /* \"#utility.yul\":6697:6949   */\n      swap3\n      swap2\n      pop\n      pop\n      jump\t// out\n        /* \"#utility.yul\":6955:7429   */\n    tag_50:\n        /* \"#utility.yul\":7023:7029   */\n      0x00\n        /* \"#utility.yul\":7031:7037   */\n      dup1\n        /* \"#utility.yul\":7080:7082   */\n      0x40\n        /* \"#utility.yul\":7068:7077   */\n      dup4\n        /* \"#utility.yul\":7059:7066   */\n      dup6\n        /* \"#utility.yul\":7055:7078   */\n      sub\n        /* \"#utility.yul\":7051:7083   */\n      slt\n        /* \"#utility.yul\":7048:7167   */\n      iszero\n      tag_293\n      jumpi\n        /* \"#utility.yul\":7086:7165   */\n      tag_294\n      tag_153\n      jump\t// in\n    tag_294:\n        /* \"#utility.yul\":7048:7167   */\n    tag_293:\n        /* \"#utility.yul\":7206:7207   */\n      0x00\n        /* \"#utility.yul\":7231:7284   */\n      tag_295\n        /* \"#utility.yul\":7276:7283   */\n      dup6\n        /* \"#utility.yul\":7267:7273   */\n      dup3\n        /* \"#utility.yul\":7256:7265   */\n      dup7\n        /* \"#utility.yul\":7252:7274   */\n      add\n        /* \"#utility.yul\":7231:7284   */\n      tag_157\n      jump\t// in\n    tag_295:\n        /* \"#utility.yul\":7221:7284   */\n      swap3\n      pop\n        /* \"#utility.yul\":7177:7294   */\n      pop\n        /* \"#utility.yul\":7333:7335   */\n      0x20\n        /* \"#utility.yul\":7359:7412   */\n      tag_296\n        /* \"#utility.yul\":7404:7411   */\n      dup6\n        /* \"#utility.yul\":7395:7401   */\n      dup3\n        /* \"#utility.yul\":7384:7393   */\n      dup7\n        /* \"#utility.yul\":7380:7402   */\n      add\n        /* \"#utility.yul\":7359:7412   */\n      tag_157\n      jump\t// in\n    tag_296:\n        /* \"#utility.yul\":7349:7412   */\n      swap2\n      pop\n        /* \"#utility.yul\":7304:7422   */\n      pop\n        /* \"#utility.yul\":6955:7429   */\n      swap3\n      pop\n      swap3\n      swap1\n      pop\n      jump\t// out\n        /* \"#utility.yul\":7435:7557   */\n    tag_181:\n        /* \"#utility.yul\":7508:7532   */\n      tag_298\n        /* \"#utility.yul\":7526:7531   */\n      dup2\n        /* \"#utility.yul\":7508:7532   */\n      tag_159\n      jump\t// in\n    tag_298:\n        /* \"#utility.yul\":7501:7506   */\n      dup2\n        /* \"#utility.yul\":7498:7533   */\n      eq\n        /* \"#utility.yul\":7488:7551   */\n      tag_299\n      jumpi\n        /* \"#utility.yul\":7547:7548   */\n      0x00\n        /* \"#utility.yul\":7544:7545   */\n      dup1\n        /* \"#utility.yul\":7537:7549   */\n      revert\n        /* \"#utility.yul\":7488:7551   */\n    tag_299:\n        /* \"#utility.yul\":7435:7557   */\n      pop\n      jump\t// out\n        /* \"#utility.yul\":7563:7702   */\n    tag_182:\n        /* \"#utility.yul\":7609:7614   */\n      0x00\n        /* \"#utility.yul\":7647:7653   */\n      dup2\n        /* \"#utility.yul\":7634:7654   */\n      calldataload\n        /* \"#utility.yul\":7625:7654   */\n      swap1\n      pop\n        /* \"#utility.yul\":7663:7696   */\n      tag_301\n        /* \"#utility.yul\":7690:7695   */\n      dup2\n        /* \"#utility.yul\":7663:7696   */\n      tag_181\n      jump\t// in\n    tag_301:\n        /* \"#utility.yul\":7563:7702   */\n      swap3\n      swap2\n      pop\n      pop\n      jump\t// out\n        /* \"#utility.yul\":7708:7825   */\n    tag_183:\n        /* \"#utility.yul\":7817:7818   */\n      0x00\n        /* \"#utility.yul\":7814:7815   */\n      dup1\n        /* \"#utility.yul\":7807:7819   */\n      revert\n        /* \"#utility.yul\":7831:7948   */\n    tag_184:\n        /* \"#utility.yul\":7940:7941   */\n      0x00\n        /* \"#utility.yul\":7937:7938   */\n      dup1\n        /* \"#utility.yul\":7930:7942   */\n      revert\n        /* \"#utility.yul\":7967:8519   */\n    tag_185:\n        /* \"#utility.yul\":8024:8032   */\n      0x00\n        /* \"#utility.yul\":8034:8040   */\n      dup1\n        /* \"#utility.yul\":8084:8087   */\n      dup4\n        /* \"#utility.yul\":8077:8081   */\n      0x1f\n        /* \"#utility.yul\":8069:8075   */\n      dup5\n        /* \"#utility.yul\":8065:8082   */\n      add\n        /* \"#utility.yul\":8061:8088   */\n      slt\n        /* \"#utility.yul\":8051:8173   */\n      tag_305\n      jumpi\n        /* \"#utility.yul\":8092:8171   */\n      tag_306\n      tag_169\n      jump\t// in\n    tag_306:\n        /* \"#utility.yul\":8051:8173   */\n    tag_305:\n        /* \"#utility.yul\":8205:8211   */\n      dup3\n        /* \"#utility.yul\":8192:8212   */\n      calldataload\n        /* \"#utility.yul\":8182:8212   */\n      swap1\n      pop\n        /* \"#utility.yul\":8235:8253   */\n      0xffffffffffffffff\n        /* \"#utility.yul\":8227:8233   */\n      dup2\n        /* \"#utility.yul\":8224:8254   */\n      gt\n        /* \"#utility.yul\":8221:8338   */\n      iszero\n      tag_307\n      jumpi\n        /* \"#utility.yul\":8257:8336   */\n      tag_308\n      tag_183\n      jump\t// in\n    tag_308:\n        /* \"#utility.yul\":8221:8338   */\n    tag_307:\n        /* \"#utility.yul\":8371:8375   */\n      0x20\n        /* \"#utility.yul\":8363:8369   */\n      dup4\n        /* \"#utility.yul\":8359:8376   */\n      add\n        /* \"#utility.yul\":8347:8376   */\n      swap2\n      pop\n        /* \"#utility.yul\":8425:8428   */\n      dup4\n        /* \"#utility.yul\":8417:8421   */\n      0x01\n        /* \"#utility.yul\":8409:8415   */\n      dup3\n        /* \"#utility.yul\":8405:8422   */\n      mul\n        /* \"#utility.yul\":8395:8403   */\n      dup4\n        /* \"#utility.yul\":8391:8423   */\n      add\n        /* \"#utility.yul\":8388:8429   */\n      gt\n        /* \"#utility.yul\":8385:8513   */\n      iszero\n      tag_309\n      jumpi\n        /* \"#utility.yul\":8432:8511   */\n      tag_310\n      tag_184\n      jump\t// in\n    tag_310:\n        /* \"#utility.yul\":8385:8513   */\n    tag_309:\n        /* \"#utility.yul\":7967:8519   */\n      swap3\n      pop\n      swap3\n      swap1\n      pop\n      jump\t// out\n        /* \"#utility.yul\":8525:9342   */\n    tag_54:\n        /* \"#utility.yul\":8613:8619   */\n      0x00\n        /* \"#utility.yul\":8621:8627   */\n      dup1\n        /* \"#utility.yul\":8629:8635   */\n      0x00\n        /* \"#utility.yul\":8637:8643   */\n      dup1\n        /* \"#utility.yul\":8686:8688   */\n      0x60\n        /* \"#utility.yul\":8674:8683   */\n      dup6\n        /* \"#utility.yul\":8665:8672   */\n      dup8\n        /* \"#utility.yul\":8661:8684   */\n      sub\n        /* \"#utility.yul\":8657:8689   */\n      slt\n        /* \"#utility.yul\":8654:8773   */\n      iszero\n      tag_312\n      jumpi\n        /* \"#utility.yul\":8692:8771   */\n      tag_313\n      tag_153\n      jump\t// in\n    tag_313:\n        /* \"#utility.yul\":8654:8773   */\n    tag_312:\n        /* \"#utility.yul\":8812:8813   */\n      0x00\n        /* \"#utility.yul\":8837:8890   */\n      tag_314\n        /* \"#utility.yul\":8882:8889   */\n      dup8\n        /* \"#utility.yul\":8873:8879   */\n      dup3\n        /* \"#utility.yul\":8862:8871   */\n      dup9\n        /* \"#utility.yul\":8858:8880   */\n      add\n        /* \"#utility.yul\":8837:8890   */\n      tag_182\n      jump\t// in\n    tag_314:\n        /* \"#utility.yul\":8827:8890   */\n      swap5\n      pop\n        /* \"#utility.yul\":8783:8900   */\n      pop\n        /* \"#utility.yul\":8939:8941   */\n      0x20\n        /* \"#utility.yul\":8965:9018   */\n      tag_315\n        /* \"#utility.yul\":9010:9017   */\n      dup8\n        /* \"#utility.yul\":9001:9007   */\n      dup3\n        /* \"#utility.yul\":8990:8999   */\n      dup9\n        /* \"#utility.yul\":8986:9008   */\n      add\n        /* \"#utility.yul\":8965:9018   */\n      tag_157\n      jump\t// in\n    tag_315:\n        /* \"#utility.yul\":8955:9018   */\n      swap4\n      pop\n        /* \"#utility.yul\":8910:9028   */\n      pop\n        /* \"#utility.yul\":9095:9097   */\n      0x40\n        /* \"#utility.yul\":9084:9093   */\n      dup6\n        /* \"#utility.yul\":9080:9098   */\n      add\n        /* \"#utility.yul\":9067:9099   */\n      calldataload\n        /* \"#utility.yul\":9126:9144   */\n      0xffffffffffffffff\n        /* \"#utility.yul\":9118:9124   */\n      dup2\n        /* \"#utility.yul\":9115:9145   */\n      gt\n        /* \"#utility.yul\":9112:9229   */\n      iszero\n      tag_316\n      jumpi\n        /* \"#utility.yul\":9148:9227   */\n      tag_317\n      tag_154\n      jump\t// in\n    tag_317:\n        /* \"#utility.yul\":9112:9229   */\n    tag_316:\n        /* \"#utility.yul\":9261:9325   */\n      tag_318\n        /* \"#utility.yul\":9317:9324   */\n      dup8\n        /* \"#utility.yul\":9308:9314   */\n      dup3\n        /* \"#utility.yul\":9297:9306   */\n      dup9\n        /* \"#utility.yul\":9293:9315   */\n      add\n        /* \"#utility.yul\":9261:9325   */\n      tag_185\n      jump\t// in\n    tag_318:\n        /* \"#utility.yul\":9243:9325   */\n      swap3\n      pop\n      swap3\n      pop\n        /* \"#utility.yul\":9038:9335   */\n      pop\n        /* \"#utility.yul\":8525:9342   */\n      swap3\n      swap6\n      swap2\n      swap5\n      pop\n      swap3\n      pop\n      jump\t// out\n        /* \"#utility.yul\":9348:9497   */\n    tag_186:\n        /* \"#utility.yul\":9384:9391   */\n      0x00\n        /* \"#utility.yul\":9424:9490   */\n      0xffffffff00000000000000000000000000000000000000000000000000000000\n        /* \"#utility.yul\":9417:9422   */\n      dup3\n        /* \"#utility.yul\":9413:9491   */\n      and\n        /* \"#utility.yul\":9402:9491   */\n      swap1\n      pop\n        /* \"#utility.yul\":9348:9497   */\n      swap2\n      swap1\n      pop\n      jump\t// out\n        /* \"#utility.yul\":9503:9618   */\n    tag_187:\n        /* \"#utility.yul\":9588:9611   */\n      tag_321\n        /* \"#utility.yul\":9605:9610   */\n      dup2\n        /* \"#utility.yul\":9588:9611   */\n      tag_186\n      jump\t// in\n    tag_321:\n        /* \"#utility.yul\":9583:9586   */\n      dup3\n        /* \"#utility.yul\":9576:9612   */\n      mstore\n        /* \"#utility.yul\":9503:9618   */\n      pop\n      pop\n      jump\t// out\n        /* \"#utility.yul\":9624:9842   */\n    tag_57:\n        /* \"#utility.yul\":9715:9719   */\n      0x00\n        /* \"#utility.yul\":9753:9755   */\n      0x20\n        /* \"#utility.yul\":9742:9751   */\n      dup3\n        /* \"#utility.yul\":9738:9756   */\n      add\n        /* \"#utility.yul\":9730:9756   */\n      swap1\n      pop\n        /* \"#utility.yul\":9766:9835   */\n      tag_323\n        /* \"#utility.yul\":9832:9833   */\n      0x00\n        /* \"#utility.yul\":9821:9830   */\n      dup4\n        /* \"#utility.yul\":9817:9834   */\n      add\n        /* \"#utility.yul\":9808:9814   */\n      dup5\n        /* \"#utility.yul\":9766:9835   */\n      tag_187\n      jump\t// in\n    tag_323:\n        /* \"#utility.yul\":9624:9842   */\n      swap3\n      swap2\n      pop\n      pop\n      jump\t// out\n        /* \"#utility.yul\":9848:10017   */\n    tag_188:\n        /* \"#utility.yul\":9932:9943   */\n      0x00\n        /* \"#utility.yul\":9966:9972   */\n      dup3\n        /* \"#utility.yul\":9961:9964   */\n      dup3\n        /* \"#utility.yul\":9954:9973   */\n      mstore\n        /* \"#utility.yul\":10006:10010   */\n      0x20\n        /* \"#utility.yul\":10001:10004   */\n      dup3\n        /* \"#utility.yul\":9997:10011   */\n      add\n        /* \"#utility.yul\":9982:10011   */\n      swap1\n      pop\n        /* \"#utility.yul\":9848:10017   */\n      swap3\n      swap2\n      pop\n      pop\n      jump\t// out\n        /* \"#utility.yul\":10023:10205   */\n    tag_189:\n        /* \"#utility.yul\":10163:10197   */\n      0x5f746f6b656e49642069732030202c6e6f7420666978656420746865206c6177\n        /* \"#utility.yul\":10159:10160   */\n      0x00\n        /* \"#utility.yul\":10151:10157   */\n      dup3\n        /* \"#utility.yul\":10147:10161   */\n      add\n        /* \"#utility.yul\":10140:10198   */\n      mstore\n        /* \"#utility.yul\":10023:10205   */\n      pop\n      jump\t// out\n        /* \"#utility.yul\":10211:10577   */\n    tag_190:\n        /* \"#utility.yul\":10353:10356   */\n      0x00\n        /* \"#utility.yul\":10374:10441   */\n      tag_327\n        /* \"#utility.yul\":10438:10440   */\n      0x20\n        /* \"#utility.yul\":10433:10436   */\n      dup4\n        /* \"#utility.yul\":10374:10441   */\n      tag_188\n      jump\t// in\n    tag_327:\n        /* \"#utility.yul\":10367:10441   */\n      swap2\n      pop\n        /* \"#utility.yul\":10450:10543   */\n      tag_328\n        /* \"#utility.yul\":10539:10542   */\n      dup3\n        /* \"#utility.yul\":10450:10543   */\n      tag_189\n      jump\t// in\n    tag_328:\n        /* \"#utility.yul\":10568:10570   */\n      0x20\n        /* \"#utility.yul\":10563:10566   */\n      dup3\n        /* \"#utility.yul\":10559:10571   */\n      add\n        /* \"#utility.yul\":10552:10571   */\n      swap1\n      pop\n        /* \"#utility.yul\":10211:10577   */\n      swap2\n      swap1\n      pop\n      jump\t// out\n        /* \"#utility.yul\":10583:11002   */\n    tag_61:\n        /* \"#utility.yul\":10749:10753   */\n      0x00\n        /* \"#utility.yul\":10787:10789   */\n      0x20\n        /* \"#utility.yul\":10776:10785   */\n      dup3\n        /* \"#utility.yul\":10772:10790   */\n      add\n        /* \"#utility.yul\":10764:10790   */\n      swap1\n      pop\n        /* \"#utility.yul\":10836:10845   */\n      dup2\n        /* \"#utility.yul\":10830:10834   */\n      dup2\n        /* \"#utility.yul\":10826:10846   */\n      sub\n        /* \"#utility.yul\":10822:10823   */\n      0x00\n        /* \"#utility.yul\":10811:10820   */\n      dup4\n        /* \"#utility.yul\":10807:10824   */\n      add\n        /* \"#utility.yul\":10800:10847   */\n      mstore\n        /* \"#utility.yul\":10864:10995   */\n      tag_330\n        /* \"#utility.yul\":10990:10994   */\n      dup2\n        /* \"#utility.yul\":10864:10995   */\n      tag_190\n      jump\t// in\n    tag_330:\n        /* \"#utility.yul\":10856:10995   */\n      swap1\n      pop\n        /* \"#utility.yul\":10583:11002   */\n      swap2\n      swap1\n      pop\n      jump\t// out\n        /* \"#utility.yul\":11008:11450   */\n    tag_63:\n        /* \"#utility.yul\":11157:11161   */\n      0x00\n        /* \"#utility.yul\":11195:11197   */\n      0x60\n        /* \"#utility.yul\":11184:11193   */\n      dup3\n        /* \"#utility.yul\":11180:11198   */\n      add\n        /* \"#utility.yul\":11172:11198   */\n      swap1\n      pop\n        /* \"#utility.yul\":11208:11279   */\n      tag_332\n        /* \"#utility.yul\":11276:11277   */\n      0x00\n        /* \"#utility.yul\":11265:11274   */\n      dup4\n        /* \"#utility.yul\":11261:11278   */\n      add\n        /* \"#utility.yul\":11252:11258   */\n      dup7\n        /* \"#utility.yul\":11208:11279   */\n      tag_160\n      jump\t// in\n    tag_332:\n        /* \"#utility.yul\":11289:11361   */\n      tag_333\n        /* \"#utility.yul\":11357:11359   */\n      0x20\n        /* \"#utility.yul\":11346:11355   */\n      dup4\n        /* \"#utility.yul\":11342:11360   */\n      add\n        /* \"#utility.yul\":11333:11339   */\n      dup6\n        /* \"#utility.yul\":11289:11361   */\n      tag_160\n      jump\t// in\n    tag_333:\n        /* \"#utility.yul\":11371:11443   */\n      tag_334\n        /* \"#utility.yul\":11439:11441   */\n      0x40\n        /* \"#utility.yul\":11428:11437   */\n      dup4\n        /* \"#utility.yul\":11424:11442   */\n      add\n        /* \"#utility.yul\":11415:11421   */\n      dup5\n        /* \"#utility.yul\":11371:11443   */\n      tag_161\n      jump\t// in\n    tag_334:\n        /* \"#utility.yul\":11008:11450   */\n      swap5\n      swap4\n      pop\n      pop\n      pop\n      pop\n      jump\t// out\n        /* \"#utility.yul\":11456:11572   */\n    tag_191:\n        /* \"#utility.yul\":11526:11547   */\n      tag_336\n        /* \"#utility.yul\":11541:11546   */\n      dup2\n        /* \"#utility.yul\":11526:11547   */\n      tag_162\n      jump\t// in\n    tag_336:\n        /* \"#utility.yul\":11519:11524   */\n      dup2\n        /* \"#utility.yul\":11516:11548   */\n      eq\n        /* \"#utility.yul\":11506:11566   */\n      tag_337\n      jumpi\n        /* \"#utility.yul\":11562:11563   */\n      0x00\n        /* \"#utility.yul\":11559:11560   */\n      dup1\n        /* \"#utility.yul\":11552:11564   */\n      revert\n        /* \"#utility.yul\":11506:11566   */\n    tag_337:\n        /* \"#utility.yul\":11456:11572   */\n      pop\n      jump\t// out\n        /* \"#utility.yul\":11578:11715   */\n    tag_192:\n        /* \"#utility.yul\":11632:11637   */\n      0x00\n        /* \"#utility.yul\":11663:11669   */\n      dup2\n        /* \"#utility.yul\":11657:11670   */\n      mload\n        /* \"#utility.yul\":11648:11670   */\n      swap1\n      pop\n        /* \"#utility.yul\":11679:11709   */\n      tag_339\n        /* \"#utility.yul\":11703:11708   */\n      dup2\n        /* \"#utility.yul\":11679:11709   */\n      tag_191\n      jump\t// in\n    tag_339:\n        /* \"#utility.yul\":11578:11715   */\n      swap3\n      swap2\n      pop\n      pop\n      jump\t// out\n        /* \"#utility.yul\":11721:12066   */\n    tag_67:\n        /* \"#utility.yul\":11788:11794   */\n      0x00\n        /* \"#utility.yul\":11837:11839   */\n      0x20\n        /* \"#utility.yul\":11825:11834   */\n      dup3\n        /* \"#utility.yul\":11816:11823   */\n      dup5\n        /* \"#utility.yul\":11812:11835   */\n      sub\n        /* \"#utility.yul\":11808:11840   */\n      slt\n        /* \"#utility.yul\":11805:11924   */\n      iszero\n      tag_341\n      jumpi\n        /* \"#utility.yul\":11843:11922   */\n      tag_342\n      tag_153\n      jump\t// in\n    tag_342:\n        /* \"#utility.yul\":11805:11924   */\n    tag_341:\n        /* \"#utility.yul\":11963:11964   */\n      0x00\n        /* \"#utility.yul\":11988:12049   */\n      tag_343\n        /* \"#utility.yul\":12041:12048   */\n      dup5\n        /* \"#utility.yul\":12032:12038   */\n      dup3\n        /* \"#utility.yul\":12021:12030   */\n      dup6\n        /* \"#utility.yul\":12017:12039   */\n      add\n        /* \"#utility.yul\":11988:12049   */\n      tag_192\n      jump\t// in\n    tag_343:\n        /* \"#utility.yul\":11978:12049   */\n      swap2\n      pop\n        /* \"#utility.yul\":11934:12059   */\n      pop\n        /* \"#utility.yul\":11721:12066   */\n      swap3\n      swap2\n      pop\n      pop\n      jump\t// out\n        /* \"#utility.yul\":12072:12243   */\n    tag_193:\n        /* \"#utility.yul\":12212:12235   */\n      0x707572636861736564206e6f7420737563657373650000000000000000000000\n        /* \"#utility.yul\":12208:12209   */\n      0x00\n        /* \"#utility.yul\":12200:12206   */\n      dup3\n        /* \"#utility.yul\":12196:12210   */\n      add\n        /* \"#utility.yul\":12189:12236   */\n      mstore\n        /* \"#utility.yul\":12072:12243   */\n      pop\n      jump\t// out\n        /* \"#utility.yul\":12249:12615   */\n    tag_194:\n        /* \"#utility.yul\":12391:12394   */\n      0x00\n        /* \"#utility.yul\":12412:12479   */\n      tag_346\n        /* \"#utility.yul\":12476:12478   */\n      0x15\n        /* \"#utility.yul\":12471:12474   */\n      dup4\n        /* \"#utility.yul\":12412:12479   */\n      tag_188\n      jump\t// in\n    tag_346:\n        /* \"#utility.yul\":12405:12479   */\n      swap2\n      pop\n        /* \"#utility.yul\":12488:12581   */\n      tag_347\n        /* \"#utility.yul\":12577:12580   */\n      dup3\n        /* \"#utility.yul\":12488:12581   */\n      tag_193\n      jump\t// in\n    tag_347:\n        /* \"#utility.yul\":12606:12608   */\n      0x20\n        /* \"#utility.yul\":12601:12604   */\n      dup3\n        /* \"#utility.yul\":12597:12609   */\n      add\n        /* \"#utility.yul\":12590:12609   */\n      swap1\n      pop\n        /* \"#utility.yul\":12249:12615   */\n      swap2\n      swap1\n      pop\n      jump\t// out\n        /* \"#utility.yul\":12621:13040   */\n    tag_70:\n        /* \"#utility.yul\":12787:12791   */\n      0x00\n        /* \"#utility.yul\":12825:12827   */\n      0x20\n        /* \"#utility.yul\":12814:12823   */\n      dup3\n        /* \"#utility.yul\":12810:12828   */\n      add\n        /* \"#utility.yul\":12802:12828   */\n      swap1\n      pop\n        /* \"#utility.yul\":12874:12883   */\n      dup2\n        /* \"#utility.yul\":12868:12872   */\n      dup2\n        /* \"#utility.yul\":12864:12884   */\n      sub\n        /* \"#utility.yul\":12860:12861   */\n      0x00\n        /* \"#utility.yul\":12849:12858   */\n      dup4\n        /* \"#utility.yul\":12845:12862   */\n      add\n        /* \"#utility.yul\":12838:12885   */\n      mstore\n        /* \"#utility.yul\":12902:13033   */\n      tag_349\n        /* \"#utility.yul\":13028:13032   */\n      dup2\n        /* \"#utility.yul\":12902:13033   */\n      tag_194\n      jump\t// in\n    tag_349:\n        /* \"#utility.yul\":12894:13033   */\n      swap1\n      pop\n        /* \"#utility.yul\":12621:13040   */\n      swap2\n      swap1\n      pop\n      jump\t// out\n        /* \"#utility.yul\":13046:13226   */\n    tag_79:\n        /* \"#utility.yul\":13094:13171   */\n      0x4e487b7100000000000000000000000000000000000000000000000000000000\n        /* \"#utility.yul\":13091:13092   */\n      0x00\n        /* \"#utility.yul\":13084:13172   */\n      mstore\n        /* \"#utility.yul\":13191:13195   */\n      0x32\n        /* \"#utility.yul\":13188:13189   */\n      0x04\n        /* \"#utility.yul\":13181:13196   */\n      mstore\n        /* \"#utility.yul\":13215:13219   */\n      0x24\n        /* \"#utility.yul\":13212:13213   */\n      0x00\n        /* \"#utility.yul\":13205:13220   */\n      revert\n        /* \"#utility.yul\":13232:13884   */\n    tag_82:\n        /* \"#utility.yul\":13431:13435   */\n      0x00\n        /* \"#utility.yul\":13469:13472   */\n      0xa0\n        /* \"#utility.yul\":13458:13467   */\n      dup3\n        /* \"#utility.yul\":13454:13473   */\n      add\n        /* \"#utility.yul\":13446:13473   */\n      swap1\n      pop\n        /* \"#utility.yul\":13483:13554   */\n      tag_352\n        /* \"#utility.yul\":13551:13552   */\n      0x00\n        /* \"#utility.yul\":13540:13549   */\n      dup4\n        /* \"#utility.yul\":13536:13553   */\n      add\n        /* \"#utility.yul\":13527:13533   */\n      dup9\n        /* \"#utility.yul\":13483:13554   */\n      tag_160\n      jump\t// in\n    tag_352:\n        /* \"#utility.yul\":13564:13636   */\n      tag_353\n        /* \"#utility.yul\":13632:13634   */\n      0x20\n        /* \"#utility.yul\":13621:13630   */\n      dup4\n        /* \"#utility.yul\":13617:13635   */\n      add\n        /* \"#utility.yul\":13608:13614   */\n      dup8\n        /* \"#utility.yul\":13564:13636   */\n      tag_160\n      jump\t// in\n    tag_353:\n        /* \"#utility.yul\":13646:13718   */\n      tag_354\n        /* \"#utility.yul\":13714:13716   */\n      0x40\n        /* \"#utility.yul\":13703:13712   */\n      dup4\n        /* \"#utility.yul\":13699:13717   */\n      add\n        /* \"#utility.yul\":13690:13696   */\n      dup7\n        /* \"#utility.yul\":13646:13718   */\n      tag_161\n      jump\t// in\n    tag_354:\n        /* \"#utility.yul\":13728:13800   */\n      tag_355\n        /* \"#utility.yul\":13796:13798   */\n      0x60\n        /* \"#utility.yul\":13785:13794   */\n      dup4\n        /* \"#utility.yul\":13781:13799   */\n      add\n        /* \"#utility.yul\":13772:13778   */\n      dup6\n        /* \"#utility.yul\":13728:13800   */\n      tag_161\n      jump\t// in\n    tag_355:\n        /* \"#utility.yul\":13810:13877   */\n      tag_356\n        /* \"#utility.yul\":13872:13875   */\n      0x80\n        /* \"#utility.yul\":13861:13870   */\n      dup4\n        /* \"#utility.yul\":13857:13876   */\n      add\n        /* \"#utility.yul\":13848:13854   */\n      dup5\n        /* \"#utility.yul\":13810:13877   */\n      tag_163\n      jump\t// in\n    tag_356:\n        /* \"#utility.yul\":13232:13884   */\n      swap7\n      swap6\n      pop\n      pop\n      pop\n      pop\n      pop\n      pop\n      jump\t// out\n        /* \"#utility.yul\":13890:14066   */\n    tag_195:\n        /* \"#utility.yul\":14030:14058   */\n      0x796f752063616e206e6f742077697468447261775468654e6674000000000000\n        /* \"#utility.yul\":14026:14027   */\n      0x00\n        /* \"#utility.yul\":14018:14024   */\n      dup3\n        /* \"#utility.yul\":14014:14028   */\n      add\n        /* \"#utility.yul\":14007:14059   */\n      mstore\n        /* \"#utility.yul\":13890:14066   */\n      pop\n      jump\t// out\n        /* \"#utility.yul\":14072:14438   */\n    tag_196:\n        /* \"#utility.yul\":14214:14217   */\n      0x00\n        /* \"#utility.yul\":14235:14302   */\n      tag_359\n        /* \"#utility.yul\":14299:14301   */\n      0x1a\n        /* \"#utility.yul\":14294:14297   */\n      dup4\n        /* \"#utility.yul\":14235:14302   */\n      tag_188\n      jump\t// in\n    tag_359:\n        /* \"#utility.yul\":14228:14302   */\n      swap2\n      pop\n        /* \"#utility.yul\":14311:14404   */\n      tag_360\n        /* \"#utility.yul\":14400:14403   */\n      dup3\n        /* \"#utility.yul\":14311:14404   */\n      tag_195\n      jump\t// in\n    tag_360:\n        /* \"#utility.yul\":14429:14431   */\n      0x20\n        /* \"#utility.yul\":14424:14427   */\n      dup3\n        /* \"#utility.yul\":14420:14432   */\n      add\n        /* \"#utility.yul\":14413:14432   */\n      swap1\n      pop\n        /* \"#utility.yul\":14072:14438   */\n      swap2\n      swap1\n      pop\n      jump\t// out\n        /* \"#utility.yul\":14444:14863   */\n    tag_87:\n        /* \"#utility.yul\":14610:14614   */\n      0x00\n        /* \"#utility.yul\":14648:14650   */\n      0x20\n        /* \"#utility.yul\":14637:14646   */\n      dup3\n        /* \"#utility.yul\":14633:14651   */\n      add\n        /* \"#utility.yul\":14625:14651   */\n      swap1\n      pop\n        /* \"#utility.yul\":14697:14706   */\n      dup2\n        /* \"#utility.yul\":14691:14695   */\n      dup2\n        /* \"#utility.yul\":14687:14707   */\n      sub\n        /* \"#utility.yul\":14683:14684   */\n      0x00\n        /* \"#utility.yul\":14672:14681   */\n      dup4\n        /* \"#utility.yul\":14668:14685   */\n      add\n        /* \"#utility.yul\":14661:14708   */\n      mstore\n        /* \"#utility.yul\":14725:14856   */\n      tag_362\n        /* \"#utility.yul\":14851:14855   */\n      dup2\n        /* \"#utility.yul\":14725:14856   */\n      tag_196\n      jump\t// in\n    tag_362:\n        /* \"#utility.yul\":14717:14856   */\n      swap1\n      pop\n        /* \"#utility.yul\":14444:14863   */\n      swap2\n      swap1\n      pop\n      jump\t// out\n        /* \"#utility.yul\":14869:15299   */\n    tag_97:\n        /* \"#utility.yul\":15012:15016   */\n      0x00\n        /* \"#utility.yul\":15050:15052   */\n      0x60\n        /* \"#utility.yul\":15039:15048   */\n      dup3\n        /* \"#utility.yul\":15035:15053   */\n      add\n        /* \"#utility.yul\":15027:15053   */\n      swap1\n      pop\n        /* \"#utility.yul\":15063:15134   */\n      tag_364\n        /* \"#utility.yul\":15131:15132   */\n      0x00\n        /* \"#utility.yul\":15120:15129   */\n      dup4\n        /* \"#utility.yul\":15116:15133   */\n      add\n        /* \"#utility.yul\":15107:15113   */\n      dup7\n        /* \"#utility.yul\":15063:15134   */\n      tag_160\n      jump\t// in\n    tag_364:\n        /* \"#utility.yul\":15144:15216   */\n      tag_365\n        /* \"#utility.yul\":15212:15214   */\n      0x20\n        /* \"#utility.yul\":15201:15210   */\n      dup4\n        /* \"#utility.yul\":15197:15215   */\n      add\n        /* \"#utility.yul\":15188:15194   */\n      dup6\n        /* \"#utility.yul\":15144:15216   */\n      tag_161\n      jump\t// in\n    tag_365:\n        /* \"#utility.yul\":15226:15292   */\n      tag_366\n        /* \"#utility.yul\":15288:15290   */\n      0x40\n        /* \"#utility.yul\":15277:15286   */\n      dup4\n        /* \"#utility.yul\":15273:15291   */\n      add\n        /* \"#utility.yul\":15264:15270   */\n      dup5\n        /* \"#utility.yul\":15226:15292   */\n      tag_163\n      jump\t// in\n    tag_366:\n        /* \"#utility.yul\":14869:15299   */\n      swap5\n      swap4\n      pop\n      pop\n      pop\n      pop\n      jump\t// out\n        /* \"#utility.yul\":15305:15485   */\n    tag_197:\n        /* \"#utility.yul\":15353:15430   */\n      0x4e487b7100000000000000000000000000000000000000000000000000000000\n        /* \"#utility.yul\":15350:15351   */\n      0x00\n        /* \"#utility.yul\":15343:15431   */\n      mstore\n        /* \"#utility.yul\":15450:15454   */\n      0x11\n        /* \"#utility.yul\":15447:15448   */\n      0x04\n        /* \"#utility.yul\":15440:15455   */\n      mstore\n        /* \"#utility.yul\":15474:15478   */\n      0x24\n        /* \"#utility.yul\":15471:15472   */\n      0x00\n        /* \"#utility.yul\":15464:15479   */\n      revert\n        /* \"#utility.yul\":15491:15682   */\n    tag_102:\n        /* \"#utility.yul\":15531:15534   */\n      0x00\n        /* \"#utility.yul\":15550:15570   */\n      tag_369\n        /* \"#utility.yul\":15568:15569   */\n      dup3\n        /* \"#utility.yul\":15550:15570   */\n      tag_155\n      jump\t// in\n    tag_369:\n        /* \"#utility.yul\":15545:15570   */\n      swap2\n      pop\n        /* \"#utility.yul\":15584:15604   */\n      tag_370\n        /* \"#utility.yul\":15602:15603   */\n      dup4\n        /* \"#utility.yul\":15584:15604   */\n      tag_155\n      jump\t// in\n    tag_370:\n        /* \"#utility.yul\":15579:15604   */\n      swap3\n      pop\n        /* \"#utility.yul\":15627:15628   */\n      dup3\n        /* \"#utility.yul\":15624:15625   */\n      dup3\n        /* \"#utility.yul\":15620:15629   */\n      add\n        /* \"#utility.yul\":15613:15629   */\n      swap1\n      pop\n        /* \"#utility.yul\":15648:15651   */\n      dup1\n        /* \"#utility.yul\":15645:15646   */\n      dup3\n        /* \"#utility.yul\":15642:15652   */\n      gt\n        /* \"#utility.yul\":15639:15675   */\n      iszero\n      tag_371\n      jumpi\n        /* \"#utility.yul\":15655:15673   */\n      tag_372\n      tag_197\n      jump\t// in\n    tag_372:\n        /* \"#utility.yul\":15639:15675   */\n    tag_371:\n        /* \"#utility.yul\":15491:15682   */\n      swap3\n      swap2\n      pop\n      pop\n      jump\t// out\n        /* \"#utility.yul\":15688:15864   */\n    tag_198:\n        /* \"#utility.yul\":15828:15856   */\n      0x4d61726b65743a55696e74323536206f75744f66426f756e6473000000000000\n        /* \"#utility.yul\":15824:15825   */\n      0x00\n        /* \"#utility.yul\":15816:15822   */\n      dup3\n        /* \"#utility.yul\":15812:15826   */\n      add\n        /* \"#utility.yul\":15805:15857   */\n      mstore\n        /* \"#utility.yul\":15688:15864   */\n      pop\n      jump\t// out\n        /* \"#utility.yul\":15870:16236   */\n    tag_199:\n        /* \"#utility.yul\":16012:16015   */\n      0x00\n        /* \"#utility.yul\":16033:16100   */\n      tag_375\n        /* \"#utility.yul\":16097:16099   */\n      0x1a\n        /* \"#utility.yul\":16092:16095   */\n      dup4\n        /* \"#utility.yul\":16033:16100   */\n      tag_188\n      jump\t// in\n    tag_375:\n        /* \"#utility.yul\":16026:16100   */\n      swap2\n      pop\n        /* \"#utility.yul\":16109:16202   */\n      tag_376\n        /* \"#utility.yul\":16198:16201   */\n      dup3\n        /* \"#utility.yul\":16109:16202   */\n      tag_198\n      jump\t// in\n    tag_376:\n        /* \"#utility.yul\":16227:16229   */\n      0x20\n        /* \"#utility.yul\":16222:16225   */\n      dup3\n        /* \"#utility.yul\":16218:16230   */\n      add\n        /* \"#utility.yul\":16211:16230   */\n      swap1\n      pop\n        /* \"#utility.yul\":15870:16236   */\n      swap2\n      swap1\n      pop\n      jump\t// out\n        /* \"#utility.yul\":16242:16661   */\n    tag_105:\n        /* \"#utility.yul\":16408:16412   */\n      0x00\n        /* \"#utility.yul\":16446:16448   */\n      0x20\n        /* \"#utility.yul\":16435:16444   */\n      dup3\n        /* \"#utility.yul\":16431:16449   */\n      add\n        /* \"#utility.yul\":16423:16449   */\n      swap1\n      pop\n        /* \"#utility.yul\":16495:16504   */\n      dup2\n        /* \"#utility.yul\":16489:16493   */\n      dup2\n        /* \"#utility.yul\":16485:16505   */\n      sub\n        /* \"#utility.yul\":16481:16482   */\n      0x00\n        /* \"#utility.yul\":16470:16479   */\n      dup4\n        /* \"#utility.yul\":16466:16483   */\n      add\n        /* \"#utility.yul\":16459:16506   */\n      mstore\n        /* \"#utility.yul\":16523:16654   */\n      tag_378\n        /* \"#utility.yul\":16649:16653   */\n      dup2\n        /* \"#utility.yul\":16523:16654   */\n      tag_199\n      jump\t// in\n    tag_378:\n        /* \"#utility.yul\":16515:16654   */\n      swap1\n      pop\n        /* \"#utility.yul\":16242:16661   */\n      swap2\n      swap1\n      pop\n      jump\t// out\n        /* \"#utility.yul\":16667:16840   */\n    tag_200:\n        /* \"#utility.yul\":16807:16832   */\n      0x4d61726b65743a55696e74323536206f766572666c6f77000000000000000000\n        /* \"#utility.yul\":16803:16804   */\n      0x00\n        /* \"#utility.yul\":16795:16801   */\n      dup3\n        /* \"#utility.yul\":16791:16805   */\n      add\n        /* \"#utility.yul\":16784:16833   */\n      mstore\n        /* \"#utility.yul\":16667:16840   */\n      pop\n      jump\t// out\n        /* \"#utility.yul\":16846:17212   */\n    tag_201:\n        /* \"#utility.yul\":16988:16991   */\n      0x00\n        /* \"#utility.yul\":17009:17076   */\n      tag_381\n        /* \"#utility.yul\":17073:17075   */\n      0x17\n        /* \"#utility.yul\":17068:17071   */\n      dup4\n        /* \"#utility.yul\":17009:17076   */\n      tag_188\n      jump\t// in\n    tag_381:\n        /* \"#utility.yul\":17002:17076   */\n      swap2\n      pop\n        /* \"#utility.yul\":17085:17178   */\n      tag_382\n        /* \"#utility.yul\":17174:17177   */\n      dup3\n        /* \"#utility.yul\":17085:17178   */\n      tag_200\n      jump\t// in\n    tag_382:\n        /* \"#utility.yul\":17203:17205   */\n      0x20\n        /* \"#utility.yul\":17198:17201   */\n      dup3\n        /* \"#utility.yul\":17194:17206   */\n      add\n        /* \"#utility.yul\":17187:17206   */\n      swap1\n      pop\n        /* \"#utility.yul\":16846:17212   */\n      swap2\n      swap1\n      pop\n      jump\t// out\n        /* \"#utility.yul\":17218:17637   */\n    tag_109:\n        /* \"#utility.yul\":17384:17388   */\n      0x00\n        /* \"#utility.yul\":17422:17424   */\n      0x20\n        /* \"#utility.yul\":17411:17420   */\n      dup3\n        /* \"#utility.yul\":17407:17425   */\n      add\n        /* \"#utility.yul\":17399:17425   */\n      swap1\n      pop\n        /* \"#utility.yul\":17471:17480   */\n      dup2\n        /* \"#utility.yul\":17465:17469   */\n      dup2\n        /* \"#utility.yul\":17461:17481   */\n      sub\n        /* \"#utility.yul\":17457:17458   */\n      0x00\n        /* \"#utility.yul\":17446:17455   */\n      dup4\n        /* \"#utility.yul\":17442:17459   */\n      add\n        /* \"#utility.yul\":17435:17482   */\n      mstore\n        /* \"#utility.yul\":17499:17630   */\n      tag_384\n        /* \"#utility.yul\":17625:17629   */\n      dup2\n        /* \"#utility.yul\":17499:17630   */\n      tag_201\n      jump\t// in\n    tag_384:\n        /* \"#utility.yul\":17491:17630   */\n      swap1\n      pop\n        /* \"#utility.yul\":17218:17637   */\n      swap2\n      swap1\n      pop\n      jump\t// out\n        /* \"#utility.yul\":17643:17876   */\n    tag_202:\n        /* \"#utility.yul\":17783:17817   */\n      0x5f746f6b656e49642069732030206f722070726963652069732030202c6e6f74\n        /* \"#utility.yul\":17779:17780   */\n      0x00\n        /* \"#utility.yul\":17771:17777   */\n      dup3\n        /* \"#utility.yul\":17767:17781   */\n      add\n        /* \"#utility.yul\":17760:17818   */\n      mstore\n        /* \"#utility.yul\":17852:17868   */\n      0x20666978656420746865206c6177000000000000000000000000000000000000\n        /* \"#utility.yul\":17847:17849   */\n      0x20\n        /* \"#utility.yul\":17839:17845   */\n      dup3\n        /* \"#utility.yul\":17835:17850   */\n      add\n        /* \"#utility.yul\":17828:17869   */\n      mstore\n        /* \"#utility.yul\":17643:17876   */\n      pop\n      jump\t// out\n        /* \"#utility.yul\":17882:18248   */\n    tag_203:\n        /* \"#utility.yul\":18024:18027   */\n      0x00\n        /* \"#utility.yul\":18045:18112   */\n      tag_387\n        /* \"#utility.yul\":18109:18111   */\n      0x2e\n        /* \"#utility.yul\":18104:18107   */\n      dup4\n        /* \"#utility.yul\":18045:18112   */\n      tag_188\n      jump\t// in\n    tag_387:\n        /* \"#utility.yul\":18038:18112   */\n      swap2\n      pop\n        /* \"#utility.yul\":18121:18214   */\n      tag_388\n        /* \"#utility.yul\":18210:18213   */\n      dup3\n        /* \"#utility.yul\":18121:18214   */\n      tag_202\n      jump\t// in\n    tag_388:\n        /* \"#utility.yul\":18239:18241   */\n      0x40\n        /* \"#utility.yul\":18234:18237   */\n      dup3\n        /* \"#utility.yul\":18230:18242   */\n      add\n        /* \"#utility.yul\":18223:18242   */\n      swap1\n      pop\n        /* \"#utility.yul\":17882:18248   */\n      swap2\n      swap1\n      pop\n      jump\t// out\n        /* \"#utility.yul\":18254:18673   */\n    tag_114:\n        /* \"#utility.yul\":18420:18424   */\n      0x00\n        /* \"#utility.yul\":18458:18460   */\n      0x20\n        /* \"#utility.yul\":18447:18456   */\n      dup3\n        /* \"#utility.yul\":18443:18461   */\n      add\n        /* \"#utility.yul\":18435:18461   */\n      swap1\n      pop\n        /* \"#utility.yul\":18507:18516   */\n      dup2\n        /* \"#utility.yul\":18501:18505   */\n      dup2\n        /* \"#utility.yul\":18497:18517   */\n      sub\n        /* \"#utility.yul\":18493:18494   */\n      0x00\n        /* \"#utility.yul\":18482:18491   */\n      dup4\n        /* \"#utility.yul\":18478:18495   */\n      add\n        /* \"#utility.yul\":18471:18518   */\n      mstore\n        /* \"#utility.yul\":18535:18666   */\n      tag_390\n        /* \"#utility.yul\":18661:18665   */\n      dup2\n        /* \"#utility.yul\":18535:18666   */\n      tag_203\n      jump\t// in\n    tag_390:\n        /* \"#utility.yul\":18527:18666   */\n      swap1\n      pop\n        /* \"#utility.yul\":18254:18673   */\n      swap2\n      swap1\n      pop\n      jump\t// out\n        /* \"#utility.yul\":18679:18912   */\n    tag_204:\n        /* \"#utility.yul\":18819:18853   */\n      0x796f7520617265206e6f7420746865206f776e65722c706c6561736520636865\n        /* \"#utility.yul\":18815:18816   */\n      0x00\n        /* \"#utility.yul\":18807:18813   */\n      dup3\n        /* \"#utility.yul\":18803:18817   */\n      add\n        /* \"#utility.yul\":18796:18854   */\n      mstore\n        /* \"#utility.yul\":18888:18904   */\n      0x636b2074686520746f6b656e4964000000000000000000000000000000000000\n        /* \"#utility.yul\":18883:18885   */\n      0x20\n        /* \"#utility.yul\":18875:18881   */\n      dup3\n        /* \"#utility.yul\":18871:18886   */\n      add\n        /* \"#utility.yul\":18864:18905   */\n      mstore\n        /* \"#utility.yul\":18679:18912   */\n      pop\n      jump\t// out\n        /* \"#utility.yul\":18918:19284   */\n    tag_205:\n        /* \"#utility.yul\":19060:19063   */\n      0x00\n        /* \"#utility.yul\":19081:19148   */\n      tag_393\n        /* \"#utility.yul\":19145:19147   */\n      0x2e\n        /* \"#utility.yul\":19140:19143   */\n      dup4\n        /* \"#utility.yul\":19081:19148   */\n      tag_188\n      jump\t// in\n    tag_393:\n        /* \"#utility.yul\":19074:19148   */\n      swap2\n      pop\n        /* \"#utility.yul\":19157:19250   */\n      tag_394\n        /* \"#utility.yul\":19246:19249   */\n      dup3\n        /* \"#utility.yul\":19157:19250   */\n      tag_204\n      jump\t// in\n    tag_394:\n        /* \"#utility.yul\":19275:19277   */\n      0x40\n        /* \"#utility.yul\":19270:19273   */\n      dup3\n        /* \"#utility.yul\":19266:19278   */\n      add\n        /* \"#utility.yul\":19259:19278   */\n      swap1\n      pop\n        /* \"#utility.yul\":18918:19284   */\n      swap2\n      swap1\n      pop\n      jump\t// out\n        /* \"#utility.yul\":19290:19709   */\n    tag_117:\n        /* \"#utility.yul\":19456:19460   */\n      0x00\n        /* \"#utility.yul\":19494:19496   */\n      0x20\n        /* \"#utility.yul\":19483:19492   */\n      dup3\n        /* \"#utility.yul\":19479:19497   */\n      add\n        /* \"#utility.yul\":19471:19497   */\n      swap1\n      pop\n        /* \"#utility.yul\":19543:19552   */\n      dup2\n        /* \"#utility.yul\":19537:19541   */\n      dup2\n        /* \"#utility.yul\":19533:19553   */\n      sub\n        /* \"#utility.yul\":19529:19530   */\n      0x00\n        /* \"#utility.yul\":19518:19527   */\n      dup4\n        /* \"#utility.yul\":19514:19531   */\n      add\n        /* \"#utility.yul\":19507:19554   */\n      mstore\n        /* \"#utility.yul\":19571:19702   */\n      tag_396\n        /* \"#utility.yul\":19697:19701   */\n      dup2\n        /* \"#utility.yul\":19571:19702   */\n      tag_205\n      jump\t// in\n    tag_396:\n        /* \"#utility.yul\":19563:19702   */\n      swap1\n      pop\n        /* \"#utility.yul\":19290:19709   */\n      swap2\n      swap1\n      pop\n      jump\t// out\n        /* \"#utility.yul\":19715:20268   */\n    tag_122:\n        /* \"#utility.yul\":19892:19896   */\n      0x00\n        /* \"#utility.yul\":19930:19933   */\n      0x80\n        /* \"#utility.yul\":19919:19928   */\n      dup3\n        /* \"#utility.yul\":19915:19934   */\n      add\n        /* \"#utility.yul\":19907:19934   */\n      swap1\n      pop\n        /* \"#utility.yul\":19944:20015   */\n      tag_398\n        /* \"#utility.yul\":20012:20013   */\n      0x00\n        /* \"#utility.yul\":20001:20010   */\n      dup4\n        /* \"#utility.yul\":19997:20014   */\n      add\n        /* \"#utility.yul\":19988:19994   */\n      dup8\n        /* \"#utility.yul\":19944:20015   */\n      tag_160\n      jump\t// in\n    tag_398:\n        /* \"#utility.yul\":20025:20097   */\n      tag_399\n        /* \"#utility.yul\":20093:20095   */\n      0x20\n        /* \"#utility.yul\":20082:20091   */\n      dup4\n        /* \"#utility.yul\":20078:20096   */\n      add\n        /* \"#utility.yul\":20069:20075   */\n      dup7\n        /* \"#utility.yul\":20025:20097   */\n      tag_161\n      jump\t// in\n    tag_399:\n        /* \"#utility.yul\":20107:20179   */\n      tag_400\n        /* \"#utility.yul\":20175:20177   */\n      0x40\n        /* \"#utility.yul\":20164:20173   */\n      dup4\n        /* \"#utility.yul\":20160:20178   */\n      add\n        /* \"#utility.yul\":20151:20157   */\n      dup6\n        /* \"#utility.yul\":20107:20179   */\n      tag_161\n      jump\t// in\n    tag_400:\n        /* \"#utility.yul\":20189:20261   */\n      tag_401\n        /* \"#utility.yul\":20257:20259   */\n      0x60\n        /* \"#utility.yul\":20246:20255   */\n      dup4\n        /* \"#utility.yul\":20242:20260   */\n      add\n        /* \"#utility.yul\":20233:20239   */\n      dup5\n        /* \"#utility.yul\":20189:20261   */\n      tag_161\n      jump\t// in\n    tag_401:\n        /* \"#utility.yul\":19715:20268   */\n      swap6\n      swap5\n      pop\n      pop\n      pop\n      pop\n      pop\n      jump\t// out\n        /* \"#utility.yul\":20274:20452   */\n    tag_206:\n        /* \"#utility.yul\":20414:20444   */\n      0x7072696365206d7573742062652067726561746572207468616e203000000000\n        /* \"#utility.yul\":20410:20411   */\n      0x00\n        /* \"#utility.yul\":20402:20408   */\n      dup3\n        /* \"#utility.yul\":20398:20412   */\n      add\n        /* \"#utility.yul\":20391:20445   */\n      mstore\n        /* \"#utility.yul\":20274:20452   */\n      pop\n      jump\t// out\n        /* \"#utility.yul\":20458:20824   */\n    tag_207:\n        /* \"#utility.yul\":20600:20603   */\n      0x00\n        /* \"#utility.yul\":20621:20688   */\n      tag_404\n        /* \"#utility.yul\":20685:20687   */\n      0x1c\n        /* \"#utility.yul\":20680:20683   */\n      dup4\n        /* \"#utility.yul\":20621:20688   */\n      tag_188\n      jump\t// in\n    tag_404:\n        /* \"#utility.yul\":20614:20688   */\n      swap2\n      pop\n        /* \"#utility.yul\":20697:20790   */\n      tag_405\n        /* \"#utility.yul\":20786:20789   */\n      dup3\n        /* \"#utility.yul\":20697:20790   */\n      tag_206\n      jump\t// in\n    tag_405:\n        /* \"#utility.yul\":20815:20817   */\n      0x20\n        /* \"#utility.yul\":20810:20813   */\n      dup3\n        /* \"#utility.yul\":20806:20818   */\n      add\n        /* \"#utility.yul\":20799:20818   */\n      swap1\n      pop\n        /* \"#utility.yul\":20458:20824   */\n      swap2\n      swap1\n      pop\n      jump\t// out\n        /* \"#utility.yul\":20830:21249   */\n    tag_127:\n        /* \"#utility.yul\":20996:21000   */\n      0x00\n        /* \"#utility.yul\":21034:21036   */\n      0x20\n        /* \"#utility.yul\":21023:21032   */\n      dup3\n        /* \"#utility.yul\":21019:21037   */\n      add\n        /* \"#utility.yul\":21011:21037   */\n      swap1\n      pop\n        /* \"#utility.yul\":21083:21092   */\n      dup2\n        /* \"#utility.yul\":21077:21081   */\n      dup2\n        /* \"#utility.yul\":21073:21093   */\n      sub\n        /* \"#utility.yul\":21069:21070   */\n      0x00\n        /* \"#utility.yul\":21058:21067   */\n      dup4\n        /* \"#utility.yul\":21054:21071   */\n      add\n        /* \"#utility.yul\":21047:21094   */\n      mstore\n        /* \"#utility.yul\":21111:21242   */\n      tag_407\n        /* \"#utility.yul\":21237:21241   */\n      dup2\n        /* \"#utility.yul\":21111:21242   */\n      tag_207\n      jump\t// in\n    tag_407:\n        /* \"#utility.yul\":21103:21242   */\n      swap1\n      pop\n        /* \"#utility.yul\":20830:21249   */\n      swap2\n      swap1\n      pop\n      jump\t// out\n        /* \"#utility.yul\":21255:21449   */\n    tag_133:\n        /* \"#utility.yul\":21295:21299   */\n      0x00\n        /* \"#utility.yul\":21315:21335   */\n      tag_409\n        /* \"#utility.yul\":21333:21334   */\n      dup3\n        /* \"#utility.yul\":21315:21335   */\n      tag_155\n      jump\t// in\n    tag_409:\n        /* \"#utility.yul\":21310:21335   */\n      swap2\n      pop\n        /* \"#utility.yul\":21349:21369   */\n      tag_410\n        /* \"#utility.yul\":21367:21368   */\n      dup4\n        /* \"#utility.yul\":21349:21369   */\n      tag_155\n      jump\t// in\n    tag_410:\n        /* \"#utility.yul\":21344:21369   */\n      swap3\n      pop\n        /* \"#utility.yul\":21393:21394   */\n      dup3\n        /* \"#utility.yul\":21390:21391   */\n      dup3\n        /* \"#utility.yul\":21386:21395   */\n      sub\n        /* \"#utility.yul\":21378:21395   */\n      swap1\n      pop\n        /* \"#utility.yul\":21417:21418   */\n      dup2\n        /* \"#utility.yul\":21411:21415   */\n      dup2\n        /* \"#utility.yul\":21408:21419   */\n      gt\n        /* \"#utility.yul\":21405:21442   */\n      iszero\n      tag_411\n      jumpi\n        /* \"#utility.yul\":21422:21440   */\n      tag_412\n      tag_197\n      jump\t// in\n    tag_412:\n        /* \"#utility.yul\":21405:21442   */\n    tag_411:\n        /* \"#utility.yul\":21255:21449   */\n      swap3\n      swap2\n      pop\n      pop\n      jump\t// out\n        /* \"#utility.yul\":21455:21996   */\n    tag_135:\n        /* \"#utility.yul\":21626:21630   */\n      0x00\n        /* \"#utility.yul\":21664:21667   */\n      0x80\n        /* \"#utility.yul\":21653:21662   */\n      dup3\n        /* \"#utility.yul\":21649:21668   */\n      add\n        /* \"#utility.yul\":21641:21668   */\n      swap1\n      pop\n        /* \"#utility.yul\":21678:21749   */\n      tag_414\n        /* \"#utility.yul\":21746:21747   */\n      0x00\n        /* \"#utility.yul\":21735:21744   */\n      dup4\n        /* \"#utility.yul\":21731:21748   */\n      add\n        /* \"#utility.yul\":21722:21728   */\n      dup8\n        /* \"#utility.yul\":21678:21749   */\n      tag_160\n      jump\t// in\n    tag_414:\n        /* \"#utility.yul\":21759:21831   */\n      tag_415\n        /* \"#utility.yul\":21827:21829   */\n      0x20\n        /* \"#utility.yul\":21816:21825   */\n      dup4\n        /* \"#utility.yul\":21812:21830   */\n      add\n        /* \"#utility.yul\":21803:21809   */\n      dup7\n        /* \"#utility.yul\":21759:21831   */\n      tag_161\n      jump\t// in\n    tag_415:\n        /* \"#utility.yul\":21841:21913   */\n      tag_416\n        /* \"#utility.yul\":21909:21911   */\n      0x40\n        /* \"#utility.yul\":21898:21907   */\n      dup4\n        /* \"#utility.yul\":21894:21912   */\n      add\n        /* \"#utility.yul\":21885:21891   */\n      dup6\n        /* \"#utility.yul\":21841:21913   */\n      tag_161\n      jump\t// in\n    tag_416:\n        /* \"#utility.yul\":21923:21989   */\n      tag_417\n        /* \"#utility.yul\":21985:21987   */\n      0x60\n        /* \"#utility.yul\":21974:21983   */\n      dup4\n        /* \"#utility.yul\":21970:21988   */\n      add\n        /* \"#utility.yul\":21961:21967   */\n      dup5\n        /* \"#utility.yul\":21923:21989   */\n      tag_163\n      jump\t// in\n    tag_417:\n        /* \"#utility.yul\":21455:21996   */\n      swap6\n      swap5\n      pop\n      pop\n      pop\n      pop\n      pop\n      jump\t// out\n        /* \"#utility.yul\":22002:22182   */\n    tag_147:\n        /* \"#utility.yul\":22050:22127   */\n      0x4e487b7100000000000000000000000000000000000000000000000000000000\n        /* \"#utility.yul\":22047:22048   */\n      0x00\n        /* \"#utility.yul\":22040:22128   */\n      mstore\n        /* \"#utility.yul\":22147:22151   */\n      0x31\n        /* \"#utility.yul\":22144:22145   */\n      0x04\n        /* \"#utility.yul\":22137:22152   */\n      mstore\n        /* \"#utility.yul\":22171:22175   */\n      0x24\n        /* \"#utility.yul\":22168:22169   */\n      0x00\n        /* \"#utility.yul\":22161:22176   */\n      revert\n\n    auxdata: 0xa2646970667358221220a12a224d055f59a662357cd7b45ab2686aa3d6bbd942d76ecf9c6a9dcc2ccd1c64736f6c63430008160033\n}\n",
				"bytecode": {
					"linkReferences": {},
					"object": "608060405234801562000010575f80fd5b5060405162001d7038038062001d70833981810160405281019062000036919062000204565b5f73ffffffffffffffffffffffffffffffffffffffff168273ffffffffffffffffffffffffffffffffffffffff1603620000a7576040517f08c379a00000000000000000000000000000000000000000000000000000000081526004016200009e90620002a7565b60405180910390fd5b5f73ffffffffffffffffffffffffffffffffffffffff168173ffffffffffffffffffffffffffffffffffffffff160362000118576040517f08c379a00000000000000000000000000000000000000000000000000000000081526004016200010f90620002a7565b60405180910390fd5b815f806101000a81548173ffffffffffffffffffffffffffffffffffffffff021916908373ffffffffffffffffffffffffffffffffffffffff1602179055508060015f6101000a81548173ffffffffffffffffffffffffffffffffffffffff021916908373ffffffffffffffffffffffffffffffffffffffff1602179055505050620002c7565b5f80fd5b5f73ffffffffffffffffffffffffffffffffffffffff82169050919050565b5f620001ce82620001a3565b9050919050565b620001e081620001c2565b8114620001eb575f80fd5b50565b5f81519050620001fe81620001d5565b92915050565b5f80604083850312156200021d576200021c6200019f565b5b5f6200022c85828601620001ee565b92505060206200023f85828601620001ee565b9150509250929050565b5f82825260208201905092915050565b7f616464726573732069732030206e6f7420666978656420746865206c617700005f82015250565b5f6200028f601e8362000249565b91506200029c8262000259565b602082019050919050565b5f6020820190508181035f830152620002c08162000281565b9050919050565b611a9b80620002d55f395ff3fe608060405234801561000f575f80fd5b506004361061009c575f3560e01c8063a85c38ef11610064578063a85c38ef1461015a578063b5cdf9241461018e578063bca6ce64146101be578063dcceb7a0146101dc578063f0b9e5ba146101f85761009c565b8063394a9077146100a057806354b39af6146100d4578063785e9e86146100f057806384bd60f51461010e57806397f78c5b1461012a575b5f80fd5b6100ba60048036038101906100b59190610f7d565b610228565b6040516100cb959493929190611010565b60405180910390f35b6100ee60048036038101906100e99190610f7d565b610285565b005b6100f861051d565b60405161010591906110bc565b60405180910390f35b61012860048036038101906101239190610f7d565b610540565b005b610144600480360381019061013f9190610f7d565b610718565b60405161015191906110d5565b60405180910390f35b610174600480360381019061016f9190610f7d565b61072d565b604051610185959493929190611010565b60405180910390f35b6101a860048036038101906101a3919061122a565b610799565b6040516101b591906110d5565b60405180910390f35b6101c661084d565b6040516101d391906112a4565b60405180910390f35b6101f660048036038101906101f191906112bd565b610872565b005b610212600480360381019061020d9190611382565b610a1c565b60405161021f919061142d565b60405180910390f35b6002602052805f5260405f205f91509050805f015f9054906101000a900473ffffffffffffffffffffffffffffffffffffffff1690806001015490806002015490806003015490806004015f9054906101000a900460ff16905085565b5f81036102c7576040517f08c379a00000000000000000000000000000000000000000000000000000000081526004016102be906114a0565b60405180910390fd5b5f60025f8381526020019081526020015f205f015f9054906101000a900473ffffffffffffffffffffffffffffffffffffffff1690505f3390505f60025f8581526020019081526020015f206001015490505f8054906101000a900473ffffffffffffffffffffffffffffffffffffffff1673ffffffffffffffffffffffffffffffffffffffff166323b872dd8385846040518463ffffffff1660e01b8152600401610375939291906114be565b6020604051808303815f875af1158015610391573d5f803e3d5ffd5b505050506040513d601f19601f820116820180604052508101906103b5919061151d565b6103f4576040517f08c379a00000000000000000000000000000000000000000000000000000000081526004016103eb90611592565b60405180910390fd5b60015f9054906101000a900473ffffffffffffffffffffffffffffffffffffffff1673ffffffffffffffffffffffffffffffffffffffff166342842e0e3084876040518463ffffffff1660e01b8152600401610452939291906114be565b5f604051808303815f87803b158015610469575f80fd5b505af115801561047b573d5f803e3d5ffd5b5050505061048884610cfa565b5f600360045f8781526020019081526020015f2054815481106104ae576104ad6115b0565b5b905f5260205f20906005020190505f816004015f6101000a81548160ff0219169083151502179055507fbb8477095798ca0d448fc330d66ba05daff8782e1ac120d01d10af8427e106a5848487855f60405161050e9594939291906115dd565b60405180910390a15050505050565b5f8054906101000a900473ffffffffffffffffffffffffffffffffffffffff1681565b5f60025f8381526020019081526020015f205f015f9054906101000a900473ffffffffffffffffffffffffffffffffffffffff1690505f3390508173ffffffffffffffffffffffffffffffffffffffff168173ffffffffffffffffffffffffffffffffffffffff161480156105b557505f8314155b6105f4576040517f08c379a00000000000000000000000000000000000000000000000000000000081526004016105eb90611678565b60405180910390fd5b5f600360045f8681526020019081526020015f20548154811061061a576106196115b0565b5b905f5260205f20906005020190505f816004015f6101000a81548160ff02191690831515021790555061064c84610cfa565b60015f9054906101000a900473ffffffffffffffffffffffffffffffffffffffff1673ffffffffffffffffffffffffffffffffffffffff166342842e0e3085876040518463ffffffff1660e01b81526004016106aa939291906114be565b5f604051808303815f87803b1580156106c1575f80fd5b505af11580156106d3573d5f803e3d5ffd5b505050507feac99d824b2ce09533c9b429bead0ff5e1d359bba205dd853617db8795589ce333855f60405161070a93929190611696565b60405180910390a150505050565b6004602052805f5260405f205f915090505481565b6003818154811061073c575f80fd5b905f5260205f2090600502015f91509050805f015f9054906101000a900473ffffffffffffffffffffffffffffffffffffffff1690806001015490806002015490806003015490806004015f9054906101000a900460ff16905085565b5f6020826107a791906116f8565b835110156107ea576040517f08c379a00000000000000000000000000000000000000000000000000000000081526004016107e190611775565b60405180910390fd5b816020836107f891906116f8565b1015610839576040517f08c379a0000000000000000000000000000000000000000000000000000000008152600401610830906117dd565b60405180910390fd5b5f8260208501015190508091505092915050565b60015f9054906101000a900473ffffffffffffffffffffffffffffffffffffffff1681565b5f821415801561088257505f8114155b6108c1576040517f08c379a00000000000000000000000000000000000000000000000000000000081526004016108b89061186b565b60405180910390fd5b5f60025f8481526020019081526020015f205f015f9054906101000a900473ffffffffffffffffffffffffffffffffffffffff1690505f3390505f60025f8681526020019081526020015f206001015490508173ffffffffffffffffffffffffffffffffffffffff168373ffffffffffffffffffffffffffffffffffffffff1614610981576040517f08c379a0000000000000000000000000000000000000000000000000000000008152600401610978906118f9565b60405180910390fd5b8360025f8781526020019081526020015f20600101819055505f600360045f8881526020019081526020015f2054815481106109c0576109bf6115b0565b5b905f5260205f20906005020190508481600101819055507f4c28e91cd513810fade8e86f66c971b7e56b185a2f2f79cd1acd005108e45d9883878488604051610a0c9493929190611917565b60405180910390a1505050505050565b5f80610a6b84848080601f0160208091040260200160405190810160405280939291908181526020018383808284375f81840152601f19601f820116905080830192505050505050505f610799565b90505f8111610aaf576040517f08c379a0000000000000000000000000000000000000000000000000000000008152600401610aa6906119a4565b60405180910390fd5b60036040518060a001604052808873ffffffffffffffffffffffffffffffffffffffff1681526020018381526020018781526020016101a1815260200160011515815250908060018154018082558091505060019003905f5260205f2090600502015f909190919091505f820151815f015f6101000a81548173ffffffffffffffffffffffffffffffffffffffff021916908373ffffffffffffffffffffffffffffffffffffffff1602179055506020820151816001015560408201518160020155606082015181600301556080820151816004015f6101000a81548160ff02191690831515021790555050506040518060a001604052808773ffffffffffffffffffffffffffffffffffffffff1681526020018281526020018681526020016101a181526020016001151581525060038681548110610bf257610bf16115b0565b5b905f5260205f2090600502015f820151815f015f6101000a81548173ffffffffffffffffffffffffffffffffffffffff021916908373ffffffffffffffffffffffffffffffffffffffff1602179055506020820151816001015560408201518160020155606082015181600301556080820151816004015f6101000a81548160ff0219169083151502179055509050506001600380549050610c9491906119c2565b60045f8781526020019081526020015f20819055507f329ee163aac40df2720825989cf396f769b8587f10a9a98e3d8331df7700ce7b8686836001604051610cdf94939291906119f5565b60405180910390a163150b7a0260e01b915050949350505050565b5f60045f8381526020019081526020015f205490505f6001600380549050610d2291906119c2565b9050808214610e3a575f60038281548110610d4057610d3f6115b0565b5b905f5260205f20906005020190508060038481548110610d6357610d626115b0565b5b905f5260205f2090600502015f82015f9054906101000a900473ffffffffffffffffffffffffffffffffffffffff16815f015f6101000a81548173ffffffffffffffffffffffffffffffffffffffff021916908373ffffffffffffffffffffffffffffffffffffffff160217905550600182015481600101556002820154816002015560038201548160030155600482015f9054906101000a900460ff16816004015f6101000a81548160ff0219169083151502179055509050508260045f836002015481526020019081526020015f2081905550505b6003805480610e4c57610e4b611a38565b5b600190038181905f5260205f2090600502015f8082015f6101000a81549073ffffffffffffffffffffffffffffffffffffffff0219169055600182015f9055600282015f9055600382015f9055600482015f6101000a81549060ff02191690555050905560038381548110610ec457610ec36115b0565b5b905f5260205f2090600502015f8082015f6101000a81549073ffffffffffffffffffffffffffffffffffffffff0219169055600182015f9055600282015f9055600382015f9055600482015f6101000a81549060ff0219169055505060045f8481526020019081526020015f205f9055505050565b5f604051905090565b5f80fd5b5f80fd5b5f819050919050565b610f5c81610f4a565b8114610f66575f80fd5b50565b5f81359050610f7781610f53565b92915050565b5f60208284031215610f9257610f91610f42565b5b5f610f9f84828501610f69565b91505092915050565b5f73ffffffffffffffffffffffffffffffffffffffff82169050919050565b5f610fd182610fa8565b9050919050565b610fe181610fc7565b82525050565b610ff081610f4a565b82525050565b5f8115159050919050565b61100a81610ff6565b82525050565b5f60a0820190506110235f830188610fd8565b6110306020830187610fe7565b61103d6040830186610fe7565b61104a6060830185610fe7565b6110576080830184611001565b9695505050505050565b5f819050919050565b5f61108461107f61107a84610fa8565b611061565b610fa8565b9050919050565b5f6110958261106a565b9050919050565b5f6110a68261108b565b9050919050565b6110b68161109c565b82525050565b5f6020820190506110cf5f8301846110ad565b92915050565b5f6020820190506110e85f830184610fe7565b92915050565b5f80fd5b5f80fd5b5f601f19601f8301169050919050565b7f4e487b71000000000000000000000000000000000000000000000000000000005f52604160045260245ffd5b61113c826110f6565b810181811067ffffffffffffffff8211171561115b5761115a611106565b5b80604052505050565b5f61116d610f39565b90506111798282611133565b919050565b5f67ffffffffffffffff82111561119857611197611106565b5b6111a1826110f6565b9050602081019050919050565b828183375f83830152505050565b5f6111ce6111c98461117e565b611164565b9050828152602081018484840111156111ea576111e96110f2565b5b6111f58482856111ae565b509392505050565b5f82601f830112611211576112106110ee565b5b81356112218482602086016111bc565b91505092915050565b5f80604083850312156112405761123f610f42565b5b5f83013567ffffffffffffffff81111561125d5761125c610f46565b5b611269858286016111fd565b925050602061127a85828601610f69565b9150509250929050565b5f61128e8261108b565b9050919050565b61129e81611284565b82525050565b5f6020820190506112b75f830184611295565b92915050565b5f80604083850312156112d3576112d2610f42565b5b5f6112e085828601610f69565b92505060206112f185828601610f69565b9150509250929050565b61130481610fc7565b811461130e575f80fd5b50565b5f8135905061131f816112fb565b92915050565b5f80fd5b5f80fd5b5f8083601f840112611342576113416110ee565b5b8235905067ffffffffffffffff81111561135f5761135e611325565b5b60208301915083600182028301111561137b5761137a611329565b5b9250929050565b5f805f806060858703121561139a57611399610f42565b5b5f6113a787828801611311565b94505060206113b887828801610f69565b935050604085013567ffffffffffffffff8111156113d9576113d8610f46565b5b6113e58782880161132d565b925092505092959194509250565b5f7fffffffff0000000000000000000000000000000000000000000000000000000082169050919050565b611427816113f3565b82525050565b5f6020820190506114405f83018461141e565b92915050565b5f82825260208201905092915050565b7f5f746f6b656e49642069732030202c6e6f7420666978656420746865206c61775f82015250565b5f61148a602083611446565b915061149582611456565b602082019050919050565b5f6020820190508181035f8301526114b78161147e565b9050919050565b5f6060820190506114d15f830186610fd8565b6114de6020830185610fd8565b6114eb6040830184610fe7565b949350505050565b6114fc81610ff6565b8114611506575f80fd5b50565b5f81519050611517816114f3565b92915050565b5f6020828403121561153257611531610f42565b5b5f61153f84828501611509565b91505092915050565b7f707572636861736564206e6f74207375636573736500000000000000000000005f82015250565b5f61157c601583611446565b915061158782611548565b602082019050919050565b5f6020820190508181035f8301526115a981611570565b9050919050565b7f4e487b71000000000000000000000000000000000000000000000000000000005f52603260045260245ffd5b5f60a0820190506115f05f830188610fd8565b6115fd6020830187610fd8565b61160a6040830186610fe7565b6116176060830185610fe7565b6116246080830184611001565b9695505050505050565b7f796f752063616e206e6f742077697468447261775468654e66740000000000005f82015250565b5f611662601a83611446565b915061166d8261162e565b602082019050919050565b5f6020820190508181035f83015261168f81611656565b9050919050565b5f6060820190506116a95f830186610fd8565b6116b66020830185610fe7565b6116c36040830184611001565b949350505050565b7f4e487b71000000000000000000000000000000000000000000000000000000005f52601160045260245ffd5b5f61170282610f4a565b915061170d83610f4a565b9250828201905080821115611725576117246116cb565b5b92915050565b7f4d61726b65743a55696e74323536206f75744f66426f756e64730000000000005f82015250565b5f61175f601a83611446565b915061176a8261172b565b602082019050919050565b5f6020820190508181035f83015261178c81611753565b9050919050565b7f4d61726b65743a55696e74323536206f766572666c6f770000000000000000005f82015250565b5f6117c7601783611446565b91506117d282611793565b602082019050919050565b5f6020820190508181035f8301526117f4816117bb565b9050919050565b7f5f746f6b656e49642069732030206f722070726963652069732030202c6e6f745f8201527f20666978656420746865206c6177000000000000000000000000000000000000602082015250565b5f611855602e83611446565b9150611860826117fb565b604082019050919050565b5f6020820190508181035f83015261188281611849565b9050919050565b7f796f7520617265206e6f7420746865206f776e65722c706c65617365206368655f8201527f636b2074686520746f6b656e4964000000000000000000000000000000000000602082015250565b5f6118e3602e83611446565b91506118ee82611889565b604082019050919050565b5f6020820190508181035f830152611910816118d7565b9050919050565b5f60808201905061192a5f830187610fd8565b6119376020830186610fe7565b6119446040830185610fe7565b6119516060830184610fe7565b95945050505050565b7f7072696365206d7573742062652067726561746572207468616e2030000000005f82015250565b5f61198e601c83611446565b91506119998261195a565b602082019050919050565b5f6020820190508181035f8301526119bb81611982565b9050919050565b5f6119cc82610f4a565b91506119d783610f4a565b92508282039050818111156119ef576119ee6116cb565b5b92915050565b5f608082019050611a085f830187610fd8565b611a156020830186610fe7565b611a226040830185610fe7565b611a2f6060830184611001565b95945050505050565b7f4e487b71000000000000000000000000000000000000000000000000000000005f52603160045260245ffdfea2646970667358221220a12a224d055f59a662357cd7b45ab2686aa3d6bbd942d76ecf9c6a9dcc2ccd1c64736f6c63430008160033",
					"opcodes": "PUSH1 0x80 PUSH1 0x40 MSTORE CALLVALUE DUP1 ISZERO PUSH3 0x10 JUMPI PUSH0 DUP1 REVERT JUMPDEST POP PUSH1 0x40 MLOAD PUSH3 0x1D70 CODESIZE SUB DUP1 PUSH3 0x1D70 DUP4 CODECOPY DUP2 DUP2 ADD PUSH1 0x40 MSTORE DUP2 ADD SWAP1 PUSH3 0x36 SWAP2 SWAP1 PUSH3 0x204 JUMP JUMPDEST PUSH0 PUSH20 0xFFFFFFFFFFFFFFFFFFFFFFFFFFFFFFFFFFFFFFFF AND DUP3 PUSH20 0xFFFFFFFFFFFFFFFFFFFFFFFFFFFFFFFFFFFFFFFF AND SUB PUSH3 0xA7 JUMPI PUSH1 0x40 MLOAD PUSH32 0x8C379A000000000000000000000000000000000000000000000000000000000 DUP2 MSTORE PUSH1 0x4 ADD PUSH3 0x9E SWAP1 PUSH3 0x2A7 JUMP JUMPDEST PUSH1 0x40 MLOAD DUP1 SWAP2 SUB SWAP1 REVERT JUMPDEST PUSH0 PUSH20 0xFFFFFFFFFFFFFFFFFFFFFFFFFFFFFFFFFFFFFFFF AND DUP2 PUSH20 0xFFFFFFFFFFFFFFFFFFFFFFFFFFFFFFFFFFFFFFFF AND SUB PUSH3 0x118 JUMPI PUSH1 0x40 MLOAD PUSH32 0x8C379A000000000000000000000000000000000000000000000000000000000 DUP2 MSTORE PUSH1 0x4 ADD PUSH3 0x10F SWAP1 PUSH3 0x2A7 JUMP JUMPDEST PUSH1 0x40 MLOAD DUP1 SWAP2 SUB SWAP1 REVERT JUMPDEST DUP2 PUSH0 DUP1 PUSH2 0x100 EXP DUP2 SLOAD DUP2 PUSH20 0xFFFFFFFFFFFFFFFFFFFFFFFFFFFFFFFFFFFFFFFF MUL NOT AND SWAP1 DUP4 PUSH20 0xFFFFFFFFFFFFFFFFFFFFFFFFFFFFFFFFFFFFFFFF AND MUL OR SWAP1 SSTORE POP DUP1 PUSH1 0x1 PUSH0 PUSH2 0x100 EXP DUP2 SLOAD DUP2 PUSH20 0xFFFFFFFFFFFFFFFFFFFFFFFFFFFFFFFFFFFFFFFF MUL NOT AND SWAP1 DUP4 PUSH20 0xFFFFFFFFFFFFFFFFFFFFFFFFFFFFFFFFFFFFFFFF AND MUL OR SWAP1 SSTORE POP POP POP PUSH3 0x2C7 JUMP JUMPDEST PUSH0 DUP1 REVERT JUMPDEST PUSH0 PUSH20 0xFFFFFFFFFFFFFFFFFFFFFFFFFFFFFFFFFFFFFFFF DUP3 AND SWAP1 POP SWAP2 SWAP1 POP JUMP JUMPDEST PUSH0 PUSH3 0x1CE DUP3 PUSH3 0x1A3 JUMP JUMPDEST SWAP1 POP SWAP2 SWAP1 POP JUMP JUMPDEST PUSH3 0x1E0 DUP2 PUSH3 0x1C2 JUMP JUMPDEST DUP2 EQ PUSH3 0x1EB JUMPI PUSH0 DUP1 REVERT JUMPDEST POP JUMP JUMPDEST PUSH0 DUP2 MLOAD SWAP1 POP PUSH3 0x1FE DUP2 PUSH3 0x1D5 JUMP JUMPDEST SWAP3 SWAP2 POP POP JUMP JUMPDEST PUSH0 DUP1 PUSH1 0x40 DUP4 DUP6 SUB SLT ISZERO PUSH3 0x21D JUMPI PUSH3 0x21C PUSH3 0x19F JUMP JUMPDEST JUMPDEST PUSH0 PUSH3 0x22C DUP6 DUP3 DUP7 ADD PUSH3 0x1EE JUMP JUMPDEST SWAP3 POP POP PUSH1 0x20 PUSH3 0x23F DUP6 DUP3 DUP7 ADD PUSH3 0x1EE JUMP JUMPDEST SWAP2 POP POP SWAP3 POP SWAP3 SWAP1 POP JUMP JUMPDEST PUSH0 DUP3 DUP3 MSTORE PUSH1 0x20 DUP3 ADD SWAP1 POP SWAP3 SWAP2 POP POP JUMP JUMPDEST PUSH32 0x616464726573732069732030206E6F7420666978656420746865206C61770000 PUSH0 DUP3 ADD MSTORE POP JUMP JUMPDEST PUSH0 PUSH3 0x28F PUSH1 0x1E DUP4 PUSH3 0x249 JUMP JUMPDEST SWAP2 POP PUSH3 0x29C DUP3 PUSH3 0x259 JUMP JUMPDEST PUSH1 0x20 DUP3 ADD SWAP1 POP SWAP2 SWAP1 POP JUMP JUMPDEST PUSH0 PUSH1 0x20 DUP3 ADD SWAP1 POP DUP2 DUP2 SUB PUSH0 DUP4 ADD MSTORE PUSH3 0x2C0 DUP2 PUSH3 0x281 JUMP JUMPDEST SWAP1 POP SWAP2 SWAP1 POP JUMP JUMPDEST PUSH2 0x1A9B DUP1 PUSH3 0x2D5 PUSH0 CODECOPY PUSH0 RETURN INVALID PUSH1 0x80 PUSH1 0x40 MSTORE CALLVALUE DUP1 ISZERO PUSH2 0xF JUMPI PUSH0 DUP1 REVERT JUMPDEST POP PUSH1 0x4 CALLDATASIZE LT PUSH2 0x9C JUMPI PUSH0 CALLDATALOAD PUSH1 0xE0 SHR DUP1 PUSH4 0xA85C38EF GT PUSH2 0x64 JUMPI DUP1 PUSH4 0xA85C38EF EQ PUSH2 0x15A JUMPI DUP1 PUSH4 0xB5CDF924 EQ PUSH2 0x18E JUMPI DUP1 PUSH4 0xBCA6CE64 EQ PUSH2 0x1BE JUMPI DUP1 PUSH4 0xDCCEB7A0 EQ PUSH2 0x1DC JUMPI DUP1 PUSH4 0xF0B9E5BA EQ PUSH2 0x1F8 JUMPI PUSH2 0x9C JUMP JUMPDEST DUP1 PUSH4 0x394A9077 EQ PUSH2 0xA0 JUMPI DUP1 PUSH4 0x54B39AF6 EQ PUSH2 0xD4 JUMPI DUP1 PUSH4 0x785E9E86 EQ PUSH2 0xF0 JUMPI DUP1 PUSH4 0x84BD60F5 EQ PUSH2 0x10E JUMPI DUP1 PUSH4 0x97F78C5B EQ PUSH2 0x12A JUMPI JUMPDEST PUSH0 DUP1 REVERT JUMPDEST PUSH2 0xBA PUSH1 0x4 DUP1 CALLDATASIZE SUB DUP2 ADD SWAP1 PUSH2 0xB5 SWAP2 SWAP1 PUSH2 0xF7D JUMP JUMPDEST PUSH2 0x228 JUMP JUMPDEST PUSH1 0x40 MLOAD PUSH2 0xCB SWAP6 SWAP5 SWAP4 SWAP3 SWAP2 SWAP1 PUSH2 0x1010 JUMP JUMPDEST PUSH1 0x40 MLOAD DUP1 SWAP2 SUB SWAP1 RETURN JUMPDEST PUSH2 0xEE PUSH1 0x4 DUP1 CALLDATASIZE SUB DUP2 ADD SWAP1 PUSH2 0xE9 SWAP2 SWAP1 PUSH2 0xF7D JUMP JUMPDEST PUSH2 0x285 JUMP JUMPDEST STOP JUMPDEST PUSH2 0xF8 PUSH2 0x51D JUMP JUMPDEST PUSH1 0x40 MLOAD PUSH2 0x105 SWAP2 SWAP1 PUSH2 0x10BC JUMP JUMPDEST PUSH1 0x40 MLOAD DUP1 SWAP2 SUB SWAP1 RETURN JUMPDEST PUSH2 0x128 PUSH1 0x4 DUP1 CALLDATASIZE SUB DUP2 ADD SWAP1 PUSH2 0x123 SWAP2 SWAP1 PUSH2 0xF7D JUMP JUMPDEST PUSH2 0x540 JUMP JUMPDEST STOP JUMPDEST PUSH2 0x144 PUSH1 0x4 DUP1 CALLDATASIZE SUB DUP2 ADD SWAP1 PUSH2 0x13F SWAP2 SWAP1 PUSH2 0xF7D JUMP JUMPDEST PUSH2 0x718 JUMP JUMPDEST PUSH1 0x40 MLOAD PUSH2 0x151 SWAP2 SWAP1 PUSH2 0x10D5 JUMP JUMPDEST PUSH1 0x40 MLOAD DUP1 SWAP2 SUB SWAP1 RETURN JUMPDEST PUSH2 0x174 PUSH1 0x4 DUP1 CALLDATASIZE SUB DUP2 ADD SWAP1 PUSH2 0x16F SWAP2 SWAP1 PUSH2 0xF7D JUMP JUMPDEST PUSH2 0x72D JUMP JUMPDEST PUSH1 0x40 MLOAD PUSH2 0x185 SWAP6 SWAP5 SWAP4 SWAP3 SWAP2 SWAP1 PUSH2 0x1010 JUMP JUMPDEST PUSH1 0x40 MLOAD DUP1 SWAP2 SUB SWAP1 RETURN JUMPDEST PUSH2 0x1A8 PUSH1 0x4 DUP1 CALLDATASIZE SUB DUP2 ADD SWAP1 PUSH2 0x1A3 SWAP2 SWAP1 PUSH2 0x122A JUMP JUMPDEST PUSH2 0x799 JUMP JUMPDEST PUSH1 0x40 MLOAD PUSH2 0x1B5 SWAP2 SWAP1 PUSH2 0x10D5 JUMP JUMPDEST PUSH1 0x40 MLOAD DUP1 SWAP2 SUB SWAP1 RETURN JUMPDEST PUSH2 0x1C6 PUSH2 0x84D JUMP JUMPDEST PUSH1 0x40 MLOAD PUSH2 0x1D3 SWAP2 SWAP1 PUSH2 0x12A4 JUMP JUMPDEST PUSH1 0x40 MLOAD DUP1 SWAP2 SUB SWAP1 RETURN JUMPDEST PUSH2 0x1F6 PUSH1 0x4 DUP1 CALLDATASIZE SUB DUP2 ADD SWAP1 PUSH2 0x1F1 SWAP2 SWAP1 PUSH2 0x12BD JUMP JUMPDEST PUSH2 0x872 JUMP JUMPDEST STOP JUMPDEST PUSH2 0x212 PUSH1 0x4 DUP1 CALLDATASIZE SUB DUP2 ADD SWAP1 PUSH2 0x20D SWAP2 SWAP1 PUSH2 0x1382 JUMP JUMPDEST PUSH2 0xA1C JUMP JUMPDEST PUSH1 0x40 MLOAD PUSH2 0x21F SWAP2 SWAP1 PUSH2 0x142D JUMP JUMPDEST PUSH1 0x40 MLOAD DUP1 SWAP2 SUB SWAP1 RETURN JUMPDEST PUSH1 0x2 PUSH1 0x20 MSTORE DUP1 PUSH0 MSTORE PUSH1 0x40 PUSH0 KECCAK256 PUSH0 SWAP2 POP SWAP1 POP DUP1 PUSH0 ADD PUSH0 SWAP1 SLOAD SWAP1 PUSH2 0x100 EXP SWAP1 DIV PUSH20 0xFFFFFFFFFFFFFFFFFFFFFFFFFFFFFFFFFFFFFFFF AND SWAP1 DUP1 PUSH1 0x1 ADD SLOAD SWAP1 DUP1 PUSH1 0x2 ADD SLOAD SWAP1 DUP1 PUSH1 0x3 ADD SLOAD SWAP1 DUP1 PUSH1 0x4 ADD PUSH0 SWAP1 SLOAD SWAP1 PUSH2 0x100 EXP SWAP1 DIV PUSH1 0xFF AND SWAP1 POP DUP6 JUMP JUMPDEST PUSH0 DUP2 SUB PUSH2 0x2C7 JUMPI PUSH1 0x40 MLOAD PUSH32 0x8C379A000000000000000000000000000000000000000000000000000000000 DUP2 MSTORE PUSH1 0x4 ADD PUSH2 0x2BE SWAP1 PUSH2 0x14A0 JUMP JUMPDEST PUSH1 0x40 MLOAD DUP1 SWAP2 SUB SWAP1 REVERT JUMPDEST PUSH0 PUSH1 0x2 PUSH0 DUP4 DUP2 MSTORE PUSH1 0x20 ADD SWAP1 DUP2 MSTORE PUSH1 0x20 ADD PUSH0 KECCAK256 PUSH0 ADD PUSH0 SWAP1 SLOAD SWAP1 PUSH2 0x100 EXP SWAP1 DIV PUSH20 0xFFFFFFFFFFFFFFFFFFFFFFFFFFFFFFFFFFFFFFFF AND SWAP1 POP PUSH0 CALLER SWAP1 POP PUSH0 PUSH1 0x2 PUSH0 DUP6 DUP2 MSTORE PUSH1 0x20 ADD SWAP1 DUP2 MSTORE PUSH1 0x20 ADD PUSH0 KECCAK256 PUSH1 0x1 ADD SLOAD SWAP1 POP PUSH0 DUP1 SLOAD SWAP1 PUSH2 0x100 EXP SWAP1 DIV PUSH20 0xFFFFFFFFFFFFFFFFFFFFFFFFFFFFFFFFFFFFFFFF AND PUSH20 0xFFFFFFFFFFFFFFFFFFFFFFFFFFFFFFFFFFFFFFFF AND PUSH4 0x23B872DD DUP4 DUP6 DUP5 PUSH1 0x40 MLOAD DUP5 PUSH4 0xFFFFFFFF AND PUSH1 0xE0 SHL DUP2 MSTORE PUSH1 0x4 ADD PUSH2 0x375 SWAP4 SWAP3 SWAP2 SWAP1 PUSH2 0x14BE JUMP JUMPDEST PUSH1 0x20 PUSH1 0x40 MLOAD DUP1 DUP4 SUB DUP2 PUSH0 DUP8 GAS CALL ISZERO DUP1 ISZERO PUSH2 0x391 JUMPI RETURNDATASIZE PUSH0 DUP1 RETURNDATACOPY RETURNDATASIZE PUSH0 REVERT JUMPDEST POP POP POP POP PUSH1 0x40 MLOAD RETURNDATASIZE PUSH1 0x1F NOT PUSH1 0x1F DUP3 ADD AND DUP3 ADD DUP1 PUSH1 0x40 MSTORE POP DUP2 ADD SWAP1 PUSH2 0x3B5 SWAP2 SWAP1 PUSH2 0x151D JUMP JUMPDEST PUSH2 0x3F4 JUMPI PUSH1 0x40 MLOAD PUSH32 0x8C379A000000000000000000000000000000000000000000000000000000000 DUP2 MSTORE PUSH1 0x4 ADD PUSH2 0x3EB SWAP1 PUSH2 0x1592 JUMP JUMPDEST PUSH1 0x40 MLOAD DUP1 SWAP2 SUB SWAP1 REVERT JUMPDEST PUSH1 0x1 PUSH0 SWAP1 SLOAD SWAP1 PUSH2 0x100 EXP SWAP1 DIV PUSH20 0xFFFFFFFFFFFFFFFFFFFFFFFFFFFFFFFFFFFFFFFF AND PUSH20 0xFFFFFFFFFFFFFFFFFFFFFFFFFFFFFFFFFFFFFFFF AND PUSH4 0x42842E0E ADDRESS DUP5 DUP8 PUSH1 0x40 MLOAD DUP5 PUSH4 0xFFFFFFFF AND PUSH1 0xE0 SHL DUP2 MSTORE PUSH1 0x4 ADD PUSH2 0x452 SWAP4 SWAP3 SWAP2 SWAP1 PUSH2 0x14BE JUMP JUMPDEST PUSH0 PUSH1 0x40 MLOAD DUP1 DUP4 SUB DUP2 PUSH0 DUP8 DUP1 EXTCODESIZE ISZERO DUP1 ISZERO PUSH2 0x469 JUMPI PUSH0 DUP1 REVERT JUMPDEST POP GAS CALL ISZERO DUP1 ISZERO PUSH2 0x47B JUMPI RETURNDATASIZE PUSH0 DUP1 RETURNDATACOPY RETURNDATASIZE PUSH0 REVERT JUMPDEST POP POP POP POP PUSH2 0x488 DUP5 PUSH2 0xCFA JUMP JUMPDEST PUSH0 PUSH1 0x3 PUSH1 0x4 PUSH0 DUP8 DUP2 MSTORE PUSH1 0x20 ADD SWAP1 DUP2 MSTORE PUSH1 0x20 ADD PUSH0 KECCAK256 SLOAD DUP2 SLOAD DUP2 LT PUSH2 0x4AE JUMPI PUSH2 0x4AD PUSH2 0x15B0 JUMP JUMPDEST JUMPDEST SWAP1 PUSH0 MSTORE PUSH1 0x20 PUSH0 KECCAK256 SWAP1 PUSH1 0x5 MUL ADD SWAP1 POP PUSH0 DUP2 PUSH1 0x4 ADD PUSH0 PUSH2 0x100 EXP DUP2 SLOAD DUP2 PUSH1 0xFF MUL NOT AND SWAP1 DUP4 ISZERO ISZERO MUL OR SWAP1 SSTORE POP PUSH32 0xBB8477095798CA0D448FC330D66BA05DAFF8782E1AC120D01D10AF8427E106A5 DUP5 DUP5 DUP8 DUP6 PUSH0 PUSH1 0x40 MLOAD PUSH2 0x50E SWAP6 SWAP5 SWAP4 SWAP3 SWAP2 SWAP1 PUSH2 0x15DD JUMP JUMPDEST PUSH1 0x40 MLOAD DUP1 SWAP2 SUB SWAP1 LOG1 POP POP POP POP POP JUMP JUMPDEST PUSH0 DUP1 SLOAD SWAP1 PUSH2 0x100 EXP SWAP1 DIV PUSH20 0xFFFFFFFFFFFFFFFFFFFFFFFFFFFFFFFFFFFFFFFF AND DUP2 JUMP JUMPDEST PUSH0 PUSH1 0x2 PUSH0 DUP4 DUP2 MSTORE PUSH1 0x20 ADD SWAP1 DUP2 MSTORE PUSH1 0x20 ADD PUSH0 KECCAK256 PUSH0 ADD PUSH0 SWAP1 SLOAD SWAP1 PUSH2 0x100 EXP SWAP1 DIV PUSH20 0xFFFFFFFFFFFFFFFFFFFFFFFFFFFFFFFFFFFFFFFF AND SWAP1 POP PUSH0 CALLER SWAP1 POP DUP2 PUSH20 0xFFFFFFFFFFFFFFFFFFFFFFFFFFFFFFFFFFFFFFFF AND DUP2 PUSH20 0xFFFFFFFFFFFFFFFFFFFFFFFFFFFFFFFFFFFFFFFF AND EQ DUP1 ISZERO PUSH2 0x5B5 JUMPI POP PUSH0 DUP4 EQ ISZERO JUMPDEST PUSH2 0x5F4 JUMPI PUSH1 0x40 MLOAD PUSH32 0x8C379A000000000000000000000000000000000000000000000000000000000 DUP2 MSTORE PUSH1 0x4 ADD PUSH2 0x5EB SWAP1 PUSH2 0x1678 JUMP JUMPDEST PUSH1 0x40 MLOAD DUP1 SWAP2 SUB SWAP1 REVERT JUMPDEST PUSH0 PUSH1 0x3 PUSH1 0x4 PUSH0 DUP7 DUP2 MSTORE PUSH1 0x20 ADD SWAP1 DUP2 MSTORE PUSH1 0x20 ADD PUSH0 KECCAK256 SLOAD DUP2 SLOAD DUP2 LT PUSH2 0x61A JUMPI PUSH2 0x619 PUSH2 0x15B0 JUMP JUMPDEST JUMPDEST SWAP1 PUSH0 MSTORE PUSH1 0x20 PUSH0 KECCAK256 SWAP1 PUSH1 0x5 MUL ADD SWAP1 POP PUSH0 DUP2 PUSH1 0x4 ADD PUSH0 PUSH2 0x100 EXP DUP2 SLOAD DUP2 PUSH1 0xFF MUL NOT AND SWAP1 DUP4 ISZERO ISZERO MUL OR SWAP1 SSTORE POP PUSH2 0x64C DUP5 PUSH2 0xCFA JUMP JUMPDEST PUSH1 0x1 PUSH0 SWAP1 SLOAD SWAP1 PUSH2 0x100 EXP SWAP1 DIV PUSH20 0xFFFFFFFFFFFFFFFFFFFFFFFFFFFFFFFFFFFFFFFF AND PUSH20 0xFFFFFFFFFFFFFFFFFFFFFFFFFFFFFFFFFFFFFFFF AND PUSH4 0x42842E0E ADDRESS DUP6 DUP8 PUSH1 0x40 MLOAD DUP5 PUSH4 0xFFFFFFFF AND PUSH1 0xE0 SHL DUP2 MSTORE PUSH1 0x4 ADD PUSH2 0x6AA SWAP4 SWAP3 SWAP2 SWAP1 PUSH2 0x14BE JUMP JUMPDEST PUSH0 PUSH1 0x40 MLOAD DUP1 DUP4 SUB DUP2 PUSH0 DUP8 DUP1 EXTCODESIZE ISZERO DUP1 ISZERO PUSH2 0x6C1 JUMPI PUSH0 DUP1 REVERT JUMPDEST POP GAS CALL ISZERO DUP1 ISZERO PUSH2 0x6D3 JUMPI RETURNDATASIZE PUSH0 DUP1 RETURNDATACOPY RETURNDATASIZE PUSH0 REVERT JUMPDEST POP POP POP POP PUSH32 0xEAC99D824B2CE09533C9B429BEAD0FF5E1D359BBA205DD853617DB8795589CE3 CALLER DUP6 PUSH0 PUSH1 0x40 MLOAD PUSH2 0x70A SWAP4 SWAP3 SWAP2 SWAP1 PUSH2 0x1696 JUMP JUMPDEST PUSH1 0x40 MLOAD DUP1 SWAP2 SUB SWAP1 LOG1 POP POP POP POP JUMP JUMPDEST PUSH1 0x4 PUSH1 0x20 MSTORE DUP1 PUSH0 MSTORE PUSH1 0x40 PUSH0 KECCAK256 PUSH0 SWAP2 POP SWAP1 POP SLOAD DUP2 JUMP JUMPDEST PUSH1 0x3 DUP2 DUP2 SLOAD DUP2 LT PUSH2 0x73C JUMPI PUSH0 DUP1 REVERT JUMPDEST SWAP1 PUSH0 MSTORE PUSH1 0x20 PUSH0 KECCAK256 SWAP1 PUSH1 0x5 MUL ADD PUSH0 SWAP2 POP SWAP1 POP DUP1 PUSH0 ADD PUSH0 SWAP1 SLOAD SWAP1 PUSH2 0x100 EXP SWAP1 DIV PUSH20 0xFFFFFFFFFFFFFFFFFFFFFFFFFFFFFFFFFFFFFFFF AND SWAP1 DUP1 PUSH1 0x1 ADD SLOAD SWAP1 DUP1 PUSH1 0x2 ADD SLOAD SWAP1 DUP1 PUSH1 0x3 ADD SLOAD SWAP1 DUP1 PUSH1 0x4 ADD PUSH0 SWAP1 SLOAD SWAP1 PUSH2 0x100 EXP SWAP1 DIV PUSH1 0xFF AND SWAP1 POP DUP6 JUMP JUMPDEST PUSH0 PUSH1 0x20 DUP3 PUSH2 0x7A7 SWAP2 SWAP1 PUSH2 0x16F8 JUMP JUMPDEST DUP4 MLOAD LT ISZERO PUSH2 0x7EA JUMPI PUSH1 0x40 MLOAD PUSH32 0x8C379A000000000000000000000000000000000000000000000000000000000 DUP2 MSTORE PUSH1 0x4 ADD PUSH2 0x7E1 SWAP1 PUSH2 0x1775 JUMP JUMPDEST PUSH1 0x40 MLOAD DUP1 SWAP2 SUB SWAP1 REVERT JUMPDEST DUP2 PUSH1 0x20 DUP4 PUSH2 0x7F8 SWAP2 SWAP1 PUSH2 0x16F8 JUMP JUMPDEST LT ISZERO PUSH2 0x839 JUMPI PUSH1 0x40 MLOAD PUSH32 0x8C379A000000000000000000000000000000000000000000000000000000000 DUP2 MSTORE PUSH1 0x4 ADD PUSH2 0x830 SWAP1 PUSH2 0x17DD JUMP JUMPDEST PUSH1 0x40 MLOAD DUP1 SWAP2 SUB SWAP1 REVERT JUMPDEST PUSH0 DUP3 PUSH1 0x20 DUP6 ADD ADD MLOAD SWAP1 POP DUP1 SWAP2 POP POP SWAP3 SWAP2 POP POP JUMP JUMPDEST PUSH1 0x1 PUSH0 SWAP1 SLOAD SWAP1 PUSH2 0x100 EXP SWAP1 DIV PUSH20 0xFFFFFFFFFFFFFFFFFFFFFFFFFFFFFFFFFFFFFFFF AND DUP2 JUMP JUMPDEST PUSH0 DUP3 EQ ISZERO DUP1 ISZERO PUSH2 0x882 JUMPI POP PUSH0 DUP2 EQ ISZERO JUMPDEST PUSH2 0x8C1 JUMPI PUSH1 0x40 MLOAD PUSH32 0x8C379A000000000000000000000000000000000000000000000000000000000 DUP2 MSTORE PUSH1 0x4 ADD PUSH2 0x8B8 SWAP1 PUSH2 0x186B JUMP JUMPDEST PUSH1 0x40 MLOAD DUP1 SWAP2 SUB SWAP1 REVERT JUMPDEST PUSH0 PUSH1 0x2 PUSH0 DUP5 DUP2 MSTORE PUSH1 0x20 ADD SWAP1 DUP2 MSTORE PUSH1 0x20 ADD PUSH0 KECCAK256 PUSH0 ADD PUSH0 SWAP1 SLOAD SWAP1 PUSH2 0x100 EXP SWAP1 DIV PUSH20 0xFFFFFFFFFFFFFFFFFFFFFFFFFFFFFFFFFFFFFFFF AND SWAP1 POP PUSH0 CALLER SWAP1 POP PUSH0 PUSH1 0x2 PUSH0 DUP7 DUP2 MSTORE PUSH1 0x20 ADD SWAP1 DUP2 MSTORE PUSH1 0x20 ADD PUSH0 KECCAK256 PUSH1 0x1 ADD SLOAD SWAP1 POP DUP2 PUSH20 0xFFFFFFFFFFFFFFFFFFFFFFFFFFFFFFFFFFFFFFFF AND DUP4 PUSH20 0xFFFFFFFFFFFFFFFFFFFFFFFFFFFFFFFFFFFFFFFF AND EQ PUSH2 0x981 JUMPI PUSH1 0x40 MLOAD PUSH32 0x8C379A000000000000000000000000000000000000000000000000000000000 DUP2 MSTORE PUSH1 0x4 ADD PUSH2 0x978 SWAP1 PUSH2 0x18F9 JUMP JUMPDEST PUSH1 0x40 MLOAD DUP1 SWAP2 SUB SWAP1 REVERT JUMPDEST DUP4 PUSH1 0x2 PUSH0 DUP8 DUP2 MSTORE PUSH1 0x20 ADD SWAP1 DUP2 MSTORE PUSH1 0x20 ADD PUSH0 KECCAK256 PUSH1 0x1 ADD DUP2 SWAP1 SSTORE POP PUSH0 PUSH1 0x3 PUSH1 0x4 PUSH0 DUP9 DUP2 MSTORE PUSH1 0x20 ADD SWAP1 DUP2 MSTORE PUSH1 0x20 ADD PUSH0 KECCAK256 SLOAD DUP2 SLOAD DUP2 LT PUSH2 0x9C0 JUMPI PUSH2 0x9BF PUSH2 0x15B0 JUMP JUMPDEST JUMPDEST SWAP1 PUSH0 MSTORE PUSH1 0x20 PUSH0 KECCAK256 SWAP1 PUSH1 0x5 MUL ADD SWAP1 POP DUP5 DUP2 PUSH1 0x1 ADD DUP2 SWAP1 SSTORE POP PUSH32 0x4C28E91CD513810FADE8E86F66C971B7E56B185A2F2F79CD1ACD005108E45D98 DUP4 DUP8 DUP5 DUP9 PUSH1 0x40 MLOAD PUSH2 0xA0C SWAP5 SWAP4 SWAP3 SWAP2 SWAP1 PUSH2 0x1917 JUMP JUMPDEST PUSH1 0x40 MLOAD DUP1 SWAP2 SUB SWAP1 LOG1 POP POP POP POP POP POP JUMP JUMPDEST PUSH0 DUP1 PUSH2 0xA6B DUP5 DUP5 DUP1 DUP1 PUSH1 0x1F ADD PUSH1 0x20 DUP1 SWAP2 DIV MUL PUSH1 0x20 ADD PUSH1 0x40 MLOAD SWAP1 DUP2 ADD PUSH1 0x40 MSTORE DUP1 SWAP4 SWAP3 SWAP2 SWAP1 DUP2 DUP2 MSTORE PUSH1 0x20 ADD DUP4 DUP4 DUP1 DUP3 DUP5 CALLDATACOPY PUSH0 DUP2 DUP5 ADD MSTORE PUSH1 0x1F NOT PUSH1 0x1F DUP3 ADD AND SWAP1 POP DUP1 DUP4 ADD SWAP3 POP POP POP POP POP POP POP PUSH0 PUSH2 0x799 JUMP JUMPDEST SWAP1 POP PUSH0 DUP2 GT PUSH2 0xAAF JUMPI PUSH1 0x40 MLOAD PUSH32 0x8C379A000000000000000000000000000000000000000000000000000000000 DUP2 MSTORE PUSH1 0x4 ADD PUSH2 0xAA6 SWAP1 PUSH2 0x19A4 JUMP JUMPDEST PUSH1 0x40 MLOAD DUP1 SWAP2 SUB SWAP1 REVERT JUMPDEST PUSH1 0x3 PUSH1 0x40 MLOAD DUP1 PUSH1 0xA0 ADD PUSH1 0x40 MSTORE DUP1 DUP9 PUSH20 0xFFFFFFFFFFFFFFFFFFFFFFFFFFFFFFFFFFFFFFFF AND DUP2 MSTORE PUSH1 0x20 ADD DUP4 DUP2 MSTORE PUSH1 0x20 ADD DUP8 DUP2 MSTORE PUSH1 0x20 ADD PUSH2 0x1A1 DUP2 MSTORE PUSH1 0x20 ADD PUSH1 0x1 ISZERO ISZERO DUP2 MSTORE POP SWAP1 DUP1 PUSH1 0x1 DUP2 SLOAD ADD DUP1 DUP3 SSTORE DUP1 SWAP2 POP POP PUSH1 0x1 SWAP1 SUB SWAP1 PUSH0 MSTORE PUSH1 0x20 PUSH0 KECCAK256 SWAP1 PUSH1 0x5 MUL ADD PUSH0 SWAP1 SWAP2 SWAP1 SWAP2 SWAP1 SWAP2 POP PUSH0 DUP3 ADD MLOAD DUP2 PUSH0 ADD PUSH0 PUSH2 0x100 EXP DUP2 SLOAD DUP2 PUSH20 0xFFFFFFFFFFFFFFFFFFFFFFFFFFFFFFFFFFFFFFFF MUL NOT AND SWAP1 DUP4 PUSH20 0xFFFFFFFFFFFFFFFFFFFFFFFFFFFFFFFFFFFFFFFF AND MUL OR SWAP1 SSTORE POP PUSH1 0x20 DUP3 ADD MLOAD DUP2 PUSH1 0x1 ADD SSTORE PUSH1 0x40 DUP3 ADD MLOAD DUP2 PUSH1 0x2 ADD SSTORE PUSH1 0x60 DUP3 ADD MLOAD DUP2 PUSH1 0x3 ADD SSTORE PUSH1 0x80 DUP3 ADD MLOAD DUP2 PUSH1 0x4 ADD PUSH0 PUSH2 0x100 EXP DUP2 SLOAD DUP2 PUSH1 0xFF MUL NOT AND SWAP1 DUP4 ISZERO ISZERO MUL OR SWAP1 SSTORE POP POP POP PUSH1 0x40 MLOAD DUP1 PUSH1 0xA0 ADD PUSH1 0x40 MSTORE DUP1 DUP8 PUSH20 0xFFFFFFFFFFFFFFFFFFFFFFFFFFFFFFFFFFFFFFFF AND DUP2 MSTORE PUSH1 0x20 ADD DUP3 DUP2 MSTORE PUSH1 0x20 ADD DUP7 DUP2 MSTORE PUSH1 0x20 ADD PUSH2 0x1A1 DUP2 MSTORE PUSH1 0x20 ADD PUSH1 0x1 ISZERO ISZERO DUP2 MSTORE POP PUSH1 0x3 DUP7 DUP2 SLOAD DUP2 LT PUSH2 0xBF2 JUMPI PUSH2 0xBF1 PUSH2 0x15B0 JUMP JUMPDEST JUMPDEST SWAP1 PUSH0 MSTORE PUSH1 0x20 PUSH0 KECCAK256 SWAP1 PUSH1 0x5 MUL ADD PUSH0 DUP3 ADD MLOAD DUP2 PUSH0 ADD PUSH0 PUSH2 0x100 EXP DUP2 SLOAD DUP2 PUSH20 0xFFFFFFFFFFFFFFFFFFFFFFFFFFFFFFFFFFFFFFFF MUL NOT AND SWAP1 DUP4 PUSH20 0xFFFFFFFFFFFFFFFFFFFFFFFFFFFFFFFFFFFFFFFF AND MUL OR SWAP1 SSTORE POP PUSH1 0x20 DUP3 ADD MLOAD DUP2 PUSH1 0x1 ADD SSTORE PUSH1 0x40 DUP3 ADD MLOAD DUP2 PUSH1 0x2 ADD SSTORE PUSH1 0x60 DUP3 ADD MLOAD DUP2 PUSH1 0x3 ADD SSTORE PUSH1 0x80 DUP3 ADD MLOAD DUP2 PUSH1 0x4 ADD PUSH0 PUSH2 0x100 EXP DUP2 SLOAD DUP2 PUSH1 0xFF MUL NOT AND SWAP1 DUP4 ISZERO ISZERO MUL OR SWAP1 SSTORE POP SWAP1 POP POP PUSH1 0x1 PUSH1 0x3 DUP1 SLOAD SWAP1 POP PUSH2 0xC94 SWAP2 SWAP1 PUSH2 0x19C2 JUMP JUMPDEST PUSH1 0x4 PUSH0 DUP8 DUP2 MSTORE PUSH1 0x20 ADD SWAP1 DUP2 MSTORE PUSH1 0x20 ADD PUSH0 KECCAK256 DUP2 SWAP1 SSTORE POP PUSH32 0x329EE163AAC40DF2720825989CF396F769B8587F10A9A98E3D8331DF7700CE7B DUP7 DUP7 DUP4 PUSH1 0x1 PUSH1 0x40 MLOAD PUSH2 0xCDF SWAP5 SWAP4 SWAP3 SWAP2 SWAP1 PUSH2 0x19F5 JUMP JUMPDEST PUSH1 0x40 MLOAD DUP1 SWAP2 SUB SWAP1 LOG1 PUSH4 0x150B7A02 PUSH1 0xE0 SHL SWAP2 POP POP SWAP5 SWAP4 POP POP POP POP JUMP JUMPDEST PUSH0 PUSH1 0x4 PUSH0 DUP4 DUP2 MSTORE PUSH1 0x20 ADD SWAP1 DUP2 MSTORE PUSH1 0x20 ADD PUSH0 KECCAK256 SLOAD SWAP1 POP PUSH0 PUSH1 0x1 PUSH1 0x3 DUP1 SLOAD SWAP1 POP PUSH2 0xD22 SWAP2 SWAP1 PUSH2 0x19C2 JUMP JUMPDEST SWAP1 POP DUP1 DUP3 EQ PUSH2 0xE3A JUMPI PUSH0 PUSH1 0x3 DUP3 DUP2 SLOAD DUP2 LT PUSH2 0xD40 JUMPI PUSH2 0xD3F PUSH2 0x15B0 JUMP JUMPDEST JUMPDEST SWAP1 PUSH0 MSTORE PUSH1 0x20 PUSH0 KECCAK256 SWAP1 PUSH1 0x5 MUL ADD SWAP1 POP DUP1 PUSH1 0x3 DUP5 DUP2 SLOAD DUP2 LT PUSH2 0xD63 JUMPI PUSH2 0xD62 PUSH2 0x15B0 JUMP JUMPDEST JUMPDEST SWAP1 PUSH0 MSTORE PUSH1 0x20 PUSH0 KECCAK256 SWAP1 PUSH1 0x5 MUL ADD PUSH0 DUP3 ADD PUSH0 SWAP1 SLOAD SWAP1 PUSH2 0x100 EXP SWAP1 DIV PUSH20 0xFFFFFFFFFFFFFFFFFFFFFFFFFFFFFFFFFFFFFFFF AND DUP2 PUSH0 ADD PUSH0 PUSH2 0x100 EXP DUP2 SLOAD DUP2 PUSH20 0xFFFFFFFFFFFFFFFFFFFFFFFFFFFFFFFFFFFFFFFF MUL NOT AND SWAP1 DUP4 PUSH20 0xFFFFFFFFFFFFFFFFFFFFFFFFFFFFFFFFFFFFFFFF AND MUL OR SWAP1 SSTORE POP PUSH1 0x1 DUP3 ADD SLOAD DUP2 PUSH1 0x1 ADD SSTORE PUSH1 0x2 DUP3 ADD SLOAD DUP2 PUSH1 0x2 ADD SSTORE PUSH1 0x3 DUP3 ADD SLOAD DUP2 PUSH1 0x3 ADD SSTORE PUSH1 0x4 DUP3 ADD PUSH0 SWAP1 SLOAD SWAP1 PUSH2 0x100 EXP SWAP1 DIV PUSH1 0xFF AND DUP2 PUSH1 0x4 ADD PUSH0 PUSH2 0x100 EXP DUP2 SLOAD DUP2 PUSH1 0xFF MUL NOT AND SWAP1 DUP4 ISZERO ISZERO MUL OR SWAP1 SSTORE POP SWAP1 POP POP DUP3 PUSH1 0x4 PUSH0 DUP4 PUSH1 0x2 ADD SLOAD DUP2 MSTORE PUSH1 0x20 ADD SWAP1 DUP2 MSTORE PUSH1 0x20 ADD PUSH0 KECCAK256 DUP2 SWAP1 SSTORE POP POP JUMPDEST PUSH1 0x3 DUP1 SLOAD DUP1 PUSH2 0xE4C JUMPI PUSH2 0xE4B PUSH2 0x1A38 JUMP JUMPDEST JUMPDEST PUSH1 0x1 SWAP1 SUB DUP2 DUP2 SWAP1 PUSH0 MSTORE PUSH1 0x20 PUSH0 KECCAK256 SWAP1 PUSH1 0x5 MUL ADD PUSH0 DUP1 DUP3 ADD PUSH0 PUSH2 0x100 EXP DUP2 SLOAD SWAP1 PUSH20 0xFFFFFFFFFFFFFFFFFFFFFFFFFFFFFFFFFFFFFFFF MUL NOT AND SWAP1 SSTORE PUSH1 0x1 DUP3 ADD PUSH0 SWAP1 SSTORE PUSH1 0x2 DUP3 ADD PUSH0 SWAP1 SSTORE PUSH1 0x3 DUP3 ADD PUSH0 SWAP1 SSTORE PUSH1 0x4 DUP3 ADD PUSH0 PUSH2 0x100 EXP DUP2 SLOAD SWAP1 PUSH1 0xFF MUL NOT AND SWAP1 SSTORE POP POP SWAP1 SSTORE PUSH1 0x3 DUP4 DUP2 SLOAD DUP2 LT PUSH2 0xEC4 JUMPI PUSH2 0xEC3 PUSH2 0x15B0 JUMP JUMPDEST JUMPDEST SWAP1 PUSH0 MSTORE PUSH1 0x20 PUSH0 KECCAK256 SWAP1 PUSH1 0x5 MUL ADD PUSH0 DUP1 DUP3 ADD PUSH0 PUSH2 0x100 EXP DUP2 SLOAD SWAP1 PUSH20 0xFFFFFFFFFFFFFFFFFFFFFFFFFFFFFFFFFFFFFFFF MUL NOT AND SWAP1 SSTORE PUSH1 0x1 DUP3 ADD PUSH0 SWAP1 SSTORE PUSH1 0x2 DUP3 ADD PUSH0 SWAP1 SSTORE PUSH1 0x3 DUP3 ADD PUSH0 SWAP1 SSTORE PUSH1 0x4 DUP3 ADD PUSH0 PUSH2 0x100 EXP DUP2 SLOAD SWAP1 PUSH1 0xFF MUL NOT AND SWAP1 SSTORE POP POP PUSH1 0x4 PUSH0 DUP5 DUP2 MSTORE PUSH1 0x20 ADD SWAP1 DUP2 MSTORE PUSH1 0x20 ADD PUSH0 KECCAK256 PUSH0 SWAP1 SSTORE POP POP POP JUMP JUMPDEST PUSH0 PUSH1 0x40 MLOAD SWAP1 POP SWAP1 JUMP JUMPDEST PUSH0 DUP1 REVERT JUMPDEST PUSH0 DUP1 REVERT JUMPDEST PUSH0 DUP2 SWAP1 POP SWAP2 SWAP1 POP JUMP JUMPDEST PUSH2 0xF5C DUP2 PUSH2 0xF4A JUMP JUMPDEST DUP2 EQ PUSH2 0xF66 JUMPI PUSH0 DUP1 REVERT JUMPDEST POP JUMP JUMPDEST PUSH0 DUP2 CALLDATALOAD SWAP1 POP PUSH2 0xF77 DUP2 PUSH2 0xF53 JUMP JUMPDEST SWAP3 SWAP2 POP POP JUMP JUMPDEST PUSH0 PUSH1 0x20 DUP3 DUP5 SUB SLT ISZERO PUSH2 0xF92 JUMPI PUSH2 0xF91 PUSH2 0xF42 JUMP JUMPDEST JUMPDEST PUSH0 PUSH2 0xF9F DUP5 DUP3 DUP6 ADD PUSH2 0xF69 JUMP JUMPDEST SWAP2 POP POP SWAP3 SWAP2 POP POP JUMP JUMPDEST PUSH0 PUSH20 0xFFFFFFFFFFFFFFFFFFFFFFFFFFFFFFFFFFFFFFFF DUP3 AND SWAP1 POP SWAP2 SWAP1 POP JUMP JUMPDEST PUSH0 PUSH2 0xFD1 DUP3 PUSH2 0xFA8 JUMP JUMPDEST SWAP1 POP SWAP2 SWAP1 POP JUMP JUMPDEST PUSH2 0xFE1 DUP2 PUSH2 0xFC7 JUMP JUMPDEST DUP3 MSTORE POP POP JUMP JUMPDEST PUSH2 0xFF0 DUP2 PUSH2 0xF4A JUMP JUMPDEST DUP3 MSTORE POP POP JUMP JUMPDEST PUSH0 DUP2 ISZERO ISZERO SWAP1 POP SWAP2 SWAP1 POP JUMP JUMPDEST PUSH2 0x100A DUP2 PUSH2 0xFF6 JUMP JUMPDEST DUP3 MSTORE POP POP JUMP JUMPDEST PUSH0 PUSH1 0xA0 DUP3 ADD SWAP1 POP PUSH2 0x1023 PUSH0 DUP4 ADD DUP9 PUSH2 0xFD8 JUMP JUMPDEST PUSH2 0x1030 PUSH1 0x20 DUP4 ADD DUP8 PUSH2 0xFE7 JUMP JUMPDEST PUSH2 0x103D PUSH1 0x40 DUP4 ADD DUP7 PUSH2 0xFE7 JUMP JUMPDEST PUSH2 0x104A PUSH1 0x60 DUP4 ADD DUP6 PUSH2 0xFE7 JUMP JUMPDEST PUSH2 0x1057 PUSH1 0x80 DUP4 ADD DUP5 PUSH2 0x1001 JUMP JUMPDEST SWAP7 SWAP6 POP POP POP POP POP POP JUMP JUMPDEST PUSH0 DUP2 SWAP1 POP SWAP2 SWAP1 POP JUMP JUMPDEST PUSH0 PUSH2 0x1084 PUSH2 0x107F PUSH2 0x107A DUP5 PUSH2 0xFA8 JUMP JUMPDEST PUSH2 0x1061 JUMP JUMPDEST PUSH2 0xFA8 JUMP JUMPDEST SWAP1 POP SWAP2 SWAP1 POP JUMP JUMPDEST PUSH0 PUSH2 0x1095 DUP3 PUSH2 0x106A JUMP JUMPDEST SWAP1 POP SWAP2 SWAP1 POP JUMP JUMPDEST PUSH0 PUSH2 0x10A6 DUP3 PUSH2 0x108B JUMP JUMPDEST SWAP1 POP SWAP2 SWAP1 POP JUMP JUMPDEST PUSH2 0x10B6 DUP2 PUSH2 0x109C JUMP JUMPDEST DUP3 MSTORE POP POP JUMP JUMPDEST PUSH0 PUSH1 0x20 DUP3 ADD SWAP1 POP PUSH2 0x10CF PUSH0 DUP4 ADD DUP5 PUSH2 0x10AD JUMP JUMPDEST SWAP3 SWAP2 POP POP JUMP JUMPDEST PUSH0 PUSH1 0x20 DUP3 ADD SWAP1 POP PUSH2 0x10E8 PUSH0 DUP4 ADD DUP5 PUSH2 0xFE7 JUMP JUMPDEST SWAP3 SWAP2 POP POP JUMP JUMPDEST PUSH0 DUP1 REVERT JUMPDEST PUSH0 DUP1 REVERT JUMPDEST PUSH0 PUSH1 0x1F NOT PUSH1 0x1F DUP4 ADD AND SWAP1 POP SWAP2 SWAP1 POP JUMP JUMPDEST PUSH32 0x4E487B7100000000000000000000000000000000000000000000000000000000 PUSH0 MSTORE PUSH1 0x41 PUSH1 0x4 MSTORE PUSH1 0x24 PUSH0 REVERT JUMPDEST PUSH2 0x113C DUP3 PUSH2 0x10F6 JUMP JUMPDEST DUP2 ADD DUP2 DUP2 LT PUSH8 0xFFFFFFFFFFFFFFFF DUP3 GT OR ISZERO PUSH2 0x115B JUMPI PUSH2 0x115A PUSH2 0x1106 JUMP JUMPDEST JUMPDEST DUP1 PUSH1 0x40 MSTORE POP POP POP JUMP JUMPDEST PUSH0 PUSH2 0x116D PUSH2 0xF39 JUMP JUMPDEST SWAP1 POP PUSH2 0x1179 DUP3 DUP3 PUSH2 0x1133 JUMP JUMPDEST SWAP2 SWAP1 POP JUMP JUMPDEST PUSH0 PUSH8 0xFFFFFFFFFFFFFFFF DUP3 GT ISZERO PUSH2 0x1198 JUMPI PUSH2 0x1197 PUSH2 0x1106 JUMP JUMPDEST JUMPDEST PUSH2 0x11A1 DUP3 PUSH2 0x10F6 JUMP JUMPDEST SWAP1 POP PUSH1 0x20 DUP2 ADD SWAP1 POP SWAP2 SWAP1 POP JUMP JUMPDEST DUP3 DUP2 DUP4 CALLDATACOPY PUSH0 DUP4 DUP4 ADD MSTORE POP POP POP JUMP JUMPDEST PUSH0 PUSH2 0x11CE PUSH2 0x11C9 DUP5 PUSH2 0x117E JUMP JUMPDEST PUSH2 0x1164 JUMP JUMPDEST SWAP1 POP DUP3 DUP2 MSTORE PUSH1 0x20 DUP2 ADD DUP5 DUP5 DUP5 ADD GT ISZERO PUSH2 0x11EA JUMPI PUSH2 0x11E9 PUSH2 0x10F2 JUMP JUMPDEST JUMPDEST PUSH2 0x11F5 DUP5 DUP3 DUP6 PUSH2 0x11AE JUMP JUMPDEST POP SWAP4 SWAP3 POP POP POP JUMP JUMPDEST PUSH0 DUP3 PUSH1 0x1F DUP4 ADD SLT PUSH2 0x1211 JUMPI PUSH2 0x1210 PUSH2 0x10EE JUMP JUMPDEST JUMPDEST DUP2 CALLDATALOAD PUSH2 0x1221 DUP5 DUP3 PUSH1 0x20 DUP7 ADD PUSH2 0x11BC JUMP JUMPDEST SWAP2 POP POP SWAP3 SWAP2 POP POP JUMP JUMPDEST PUSH0 DUP1 PUSH1 0x40 DUP4 DUP6 SUB SLT ISZERO PUSH2 0x1240 JUMPI PUSH2 0x123F PUSH2 0xF42 JUMP JUMPDEST JUMPDEST PUSH0 DUP4 ADD CALLDATALOAD PUSH8 0xFFFFFFFFFFFFFFFF DUP2 GT ISZERO PUSH2 0x125D JUMPI PUSH2 0x125C PUSH2 0xF46 JUMP JUMPDEST JUMPDEST PUSH2 0x1269 DUP6 DUP3 DUP7 ADD PUSH2 0x11FD JUMP JUMPDEST SWAP3 POP POP PUSH1 0x20 PUSH2 0x127A DUP6 DUP3 DUP7 ADD PUSH2 0xF69 JUMP JUMPDEST SWAP2 POP POP SWAP3 POP SWAP3 SWAP1 POP JUMP JUMPDEST PUSH0 PUSH2 0x128E DUP3 PUSH2 0x108B JUMP JUMPDEST SWAP1 POP SWAP2 SWAP1 POP JUMP JUMPDEST PUSH2 0x129E DUP2 PUSH2 0x1284 JUMP JUMPDEST DUP3 MSTORE POP POP JUMP JUMPDEST PUSH0 PUSH1 0x20 DUP3 ADD SWAP1 POP PUSH2 0x12B7 PUSH0 DUP4 ADD DUP5 PUSH2 0x1295 JUMP JUMPDEST SWAP3 SWAP2 POP POP JUMP JUMPDEST PUSH0 DUP1 PUSH1 0x40 DUP4 DUP6 SUB SLT ISZERO PUSH2 0x12D3 JUMPI PUSH2 0x12D2 PUSH2 0xF42 JUMP JUMPDEST JUMPDEST PUSH0 PUSH2 0x12E0 DUP6 DUP3 DUP7 ADD PUSH2 0xF69 JUMP JUMPDEST SWAP3 POP POP PUSH1 0x20 PUSH2 0x12F1 DUP6 DUP3 DUP7 ADD PUSH2 0xF69 JUMP JUMPDEST SWAP2 POP POP SWAP3 POP SWAP3 SWAP1 POP JUMP JUMPDEST PUSH2 0x1304 DUP2 PUSH2 0xFC7 JUMP JUMPDEST DUP2 EQ PUSH2 0x130E JUMPI PUSH0 DUP1 REVERT JUMPDEST POP JUMP JUMPDEST PUSH0 DUP2 CALLDATALOAD SWAP1 POP PUSH2 0x131F DUP2 PUSH2 0x12FB JUMP JUMPDEST SWAP3 SWAP2 POP POP JUMP JUMPDEST PUSH0 DUP1 REVERT JUMPDEST PUSH0 DUP1 REVERT JUMPDEST PUSH0 DUP1 DUP4 PUSH1 0x1F DUP5 ADD SLT PUSH2 0x1342 JUMPI PUSH2 0x1341 PUSH2 0x10EE JUMP JUMPDEST JUMPDEST DUP3 CALLDATALOAD SWAP1 POP PUSH8 0xFFFFFFFFFFFFFFFF DUP2 GT ISZERO PUSH2 0x135F JUMPI PUSH2 0x135E PUSH2 0x1325 JUMP JUMPDEST JUMPDEST PUSH1 0x20 DUP4 ADD SWAP2 POP DUP4 PUSH1 0x1 DUP3 MUL DUP4 ADD GT ISZERO PUSH2 0x137B JUMPI PUSH2 0x137A PUSH2 0x1329 JUMP JUMPDEST JUMPDEST SWAP3 POP SWAP3 SWAP1 POP JUMP JUMPDEST PUSH0 DUP1 PUSH0 DUP1 PUSH1 0x60 DUP6 DUP8 SUB SLT ISZERO PUSH2 0x139A JUMPI PUSH2 0x1399 PUSH2 0xF42 JUMP JUMPDEST JUMPDEST PUSH0 PUSH2 0x13A7 DUP8 DUP3 DUP9 ADD PUSH2 0x1311 JUMP JUMPDEST SWAP5 POP POP PUSH1 0x20 PUSH2 0x13B8 DUP8 DUP3 DUP9 ADD PUSH2 0xF69 JUMP JUMPDEST SWAP4 POP POP PUSH1 0x40 DUP6 ADD CALLDATALOAD PUSH8 0xFFFFFFFFFFFFFFFF DUP2 GT ISZERO PUSH2 0x13D9 JUMPI PUSH2 0x13D8 PUSH2 0xF46 JUMP JUMPDEST JUMPDEST PUSH2 0x13E5 DUP8 DUP3 DUP9 ADD PUSH2 0x132D JUMP JUMPDEST SWAP3 POP SWAP3 POP POP SWAP3 SWAP6 SWAP2 SWAP5 POP SWAP3 POP JUMP JUMPDEST PUSH0 PUSH32 0xFFFFFFFF00000000000000000000000000000000000000000000000000000000 DUP3 AND SWAP1 POP SWAP2 SWAP1 POP JUMP JUMPDEST PUSH2 0x1427 DUP2 PUSH2 0x13F3 JUMP JUMPDEST DUP3 MSTORE POP POP JUMP JUMPDEST PUSH0 PUSH1 0x20 DUP3 ADD SWAP1 POP PUSH2 0x1440 PUSH0 DUP4 ADD DUP5 PUSH2 0x141E JUMP JUMPDEST SWAP3 SWAP2 POP POP JUMP JUMPDEST PUSH0 DUP3 DUP3 MSTORE PUSH1 0x20 DUP3 ADD SWAP1 POP SWAP3 SWAP2 POP POP JUMP JUMPDEST PUSH32 0x5F746F6B656E49642069732030202C6E6F7420666978656420746865206C6177 PUSH0 DUP3 ADD MSTORE POP JUMP JUMPDEST PUSH0 PUSH2 0x148A PUSH1 0x20 DUP4 PUSH2 0x1446 JUMP JUMPDEST SWAP2 POP PUSH2 0x1495 DUP3 PUSH2 0x1456 JUMP JUMPDEST PUSH1 0x20 DUP3 ADD SWAP1 POP SWAP2 SWAP1 POP JUMP JUMPDEST PUSH0 PUSH1 0x20 DUP3 ADD SWAP1 POP DUP2 DUP2 SUB PUSH0 DUP4 ADD MSTORE PUSH2 0x14B7 DUP2 PUSH2 0x147E JUMP JUMPDEST SWAP1 POP SWAP2 SWAP1 POP JUMP JUMPDEST PUSH0 PUSH1 0x60 DUP3 ADD SWAP1 POP PUSH2 0x14D1 PUSH0 DUP4 ADD DUP7 PUSH2 0xFD8 JUMP JUMPDEST PUSH2 0x14DE PUSH1 0x20 DUP4 ADD DUP6 PUSH2 0xFD8 JUMP JUMPDEST PUSH2 0x14EB PUSH1 0x40 DUP4 ADD DUP5 PUSH2 0xFE7 JUMP JUMPDEST SWAP5 SWAP4 POP POP POP POP JUMP JUMPDEST PUSH2 0x14FC DUP2 PUSH2 0xFF6 JUMP JUMPDEST DUP2 EQ PUSH2 0x1506 JUMPI PUSH0 DUP1 REVERT JUMPDEST POP JUMP JUMPDEST PUSH0 DUP2 MLOAD SWAP1 POP PUSH2 0x1517 DUP2 PUSH2 0x14F3 JUMP JUMPDEST SWAP3 SWAP2 POP POP JUMP JUMPDEST PUSH0 PUSH1 0x20 DUP3 DUP5 SUB SLT ISZERO PUSH2 0x1532 JUMPI PUSH2 0x1531 PUSH2 0xF42 JUMP JUMPDEST JUMPDEST PUSH0 PUSH2 0x153F DUP5 DUP3 DUP6 ADD PUSH2 0x1509 JUMP JUMPDEST SWAP2 POP POP SWAP3 SWAP2 POP POP JUMP JUMPDEST PUSH32 0x707572636861736564206E6F7420737563657373650000000000000000000000 PUSH0 DUP3 ADD MSTORE POP JUMP JUMPDEST PUSH0 PUSH2 0x157C PUSH1 0x15 DUP4 PUSH2 0x1446 JUMP JUMPDEST SWAP2 POP PUSH2 0x1587 DUP3 PUSH2 0x1548 JUMP JUMPDEST PUSH1 0x20 DUP3 ADD SWAP1 POP SWAP2 SWAP1 POP JUMP JUMPDEST PUSH0 PUSH1 0x20 DUP3 ADD SWAP1 POP DUP2 DUP2 SUB PUSH0 DUP4 ADD MSTORE PUSH2 0x15A9 DUP2 PUSH2 0x1570 JUMP JUMPDEST SWAP1 POP SWAP2 SWAP1 POP JUMP JUMPDEST PUSH32 0x4E487B7100000000000000000000000000000000000000000000000000000000 PUSH0 MSTORE PUSH1 0x32 PUSH1 0x4 MSTORE PUSH1 0x24 PUSH0 REVERT JUMPDEST PUSH0 PUSH1 0xA0 DUP3 ADD SWAP1 POP PUSH2 0x15F0 PUSH0 DUP4 ADD DUP9 PUSH2 0xFD8 JUMP JUMPDEST PUSH2 0x15FD PUSH1 0x20 DUP4 ADD DUP8 PUSH2 0xFD8 JUMP JUMPDEST PUSH2 0x160A PUSH1 0x40 DUP4 ADD DUP7 PUSH2 0xFE7 JUMP JUMPDEST PUSH2 0x1617 PUSH1 0x60 DUP4 ADD DUP6 PUSH2 0xFE7 JUMP JUMPDEST PUSH2 0x1624 PUSH1 0x80 DUP4 ADD DUP5 PUSH2 0x1001 JUMP JUMPDEST SWAP7 SWAP6 POP POP POP POP POP POP JUMP JUMPDEST PUSH32 0x796F752063616E206E6F742077697468447261775468654E6674000000000000 PUSH0 DUP3 ADD MSTORE POP JUMP JUMPDEST PUSH0 PUSH2 0x1662 PUSH1 0x1A DUP4 PUSH2 0x1446 JUMP JUMPDEST SWAP2 POP PUSH2 0x166D DUP3 PUSH2 0x162E JUMP JUMPDEST PUSH1 0x20 DUP3 ADD SWAP1 POP SWAP2 SWAP1 POP JUMP JUMPDEST PUSH0 PUSH1 0x20 DUP3 ADD SWAP1 POP DUP2 DUP2 SUB PUSH0 DUP4 ADD MSTORE PUSH2 0x168F DUP2 PUSH2 0x1656 JUMP JUMPDEST SWAP1 POP SWAP2 SWAP1 POP JUMP JUMPDEST PUSH0 PUSH1 0x60 DUP3 ADD SWAP1 POP PUSH2 0x16A9 PUSH0 DUP4 ADD DUP7 PUSH2 0xFD8 JUMP JUMPDEST PUSH2 0x16B6 PUSH1 0x20 DUP4 ADD DUP6 PUSH2 0xFE7 JUMP JUMPDEST PUSH2 0x16C3 PUSH1 0x40 DUP4 ADD DUP5 PUSH2 0x1001 JUMP JUMPDEST SWAP5 SWAP4 POP POP POP POP JUMP JUMPDEST PUSH32 0x4E487B7100000000000000000000000000000000000000000000000000000000 PUSH0 MSTORE PUSH1 0x11 PUSH1 0x4 MSTORE PUSH1 0x24 PUSH0 REVERT JUMPDEST PUSH0 PUSH2 0x1702 DUP3 PUSH2 0xF4A JUMP JUMPDEST SWAP2 POP PUSH2 0x170D DUP4 PUSH2 0xF4A JUMP JUMPDEST SWAP3 POP DUP3 DUP3 ADD SWAP1 POP DUP1 DUP3 GT ISZERO PUSH2 0x1725 JUMPI PUSH2 0x1724 PUSH2 0x16CB JUMP JUMPDEST JUMPDEST SWAP3 SWAP2 POP POP JUMP JUMPDEST PUSH32 0x4D61726B65743A55696E74323536206F75744F66426F756E6473000000000000 PUSH0 DUP3 ADD MSTORE POP JUMP JUMPDEST PUSH0 PUSH2 0x175F PUSH1 0x1A DUP4 PUSH2 0x1446 JUMP JUMPDEST SWAP2 POP PUSH2 0x176A DUP3 PUSH2 0x172B JUMP JUMPDEST PUSH1 0x20 DUP3 ADD SWAP1 POP SWAP2 SWAP1 POP JUMP JUMPDEST PUSH0 PUSH1 0x20 DUP3 ADD SWAP1 POP DUP2 DUP2 SUB PUSH0 DUP4 ADD MSTORE PUSH2 0x178C DUP2 PUSH2 0x1753 JUMP JUMPDEST SWAP1 POP SWAP2 SWAP1 POP JUMP JUMPDEST PUSH32 0x4D61726B65743A55696E74323536206F766572666C6F77000000000000000000 PUSH0 DUP3 ADD MSTORE POP JUMP JUMPDEST PUSH0 PUSH2 0x17C7 PUSH1 0x17 DUP4 PUSH2 0x1446 JUMP JUMPDEST SWAP2 POP PUSH2 0x17D2 DUP3 PUSH2 0x1793 JUMP JUMPDEST PUSH1 0x20 DUP3 ADD SWAP1 POP SWAP2 SWAP1 POP JUMP JUMPDEST PUSH0 PUSH1 0x20 DUP3 ADD SWAP1 POP DUP2 DUP2 SUB PUSH0 DUP4 ADD MSTORE PUSH2 0x17F4 DUP2 PUSH2 0x17BB JUMP JUMPDEST SWAP1 POP SWAP2 SWAP1 POP JUMP JUMPDEST PUSH32 0x5F746F6B656E49642069732030206F722070726963652069732030202C6E6F74 PUSH0 DUP3 ADD MSTORE PUSH32 0x20666978656420746865206C6177000000000000000000000000000000000000 PUSH1 0x20 DUP3 ADD MSTORE POP JUMP JUMPDEST PUSH0 PUSH2 0x1855 PUSH1 0x2E DUP4 PUSH2 0x1446 JUMP JUMPDEST SWAP2 POP PUSH2 0x1860 DUP3 PUSH2 0x17FB JUMP JUMPDEST PUSH1 0x40 DUP3 ADD SWAP1 POP SWAP2 SWAP1 POP JUMP JUMPDEST PUSH0 PUSH1 0x20 DUP3 ADD SWAP1 POP DUP2 DUP2 SUB PUSH0 DUP4 ADD MSTORE PUSH2 0x1882 DUP2 PUSH2 0x1849 JUMP JUMPDEST SWAP1 POP SWAP2 SWAP1 POP JUMP JUMPDEST PUSH32 0x796F7520617265206E6F7420746865206F776E65722C706C6561736520636865 PUSH0 DUP3 ADD MSTORE PUSH32 0x636B2074686520746F6B656E4964000000000000000000000000000000000000 PUSH1 0x20 DUP3 ADD MSTORE POP JUMP JUMPDEST PUSH0 PUSH2 0x18E3 PUSH1 0x2E DUP4 PUSH2 0x1446 JUMP JUMPDEST SWAP2 POP PUSH2 0x18EE DUP3 PUSH2 0x1889 JUMP JUMPDEST PUSH1 0x40 DUP3 ADD SWAP1 POP SWAP2 SWAP1 POP JUMP JUMPDEST PUSH0 PUSH1 0x20 DUP3 ADD SWAP1 POP DUP2 DUP2 SUB PUSH0 DUP4 ADD MSTORE PUSH2 0x1910 DUP2 PUSH2 0x18D7 JUMP JUMPDEST SWAP1 POP SWAP2 SWAP1 POP JUMP JUMPDEST PUSH0 PUSH1 0x80 DUP3 ADD SWAP1 POP PUSH2 0x192A PUSH0 DUP4 ADD DUP8 PUSH2 0xFD8 JUMP JUMPDEST PUSH2 0x1937 PUSH1 0x20 DUP4 ADD DUP7 PUSH2 0xFE7 JUMP JUMPDEST PUSH2 0x1944 PUSH1 0x40 DUP4 ADD DUP6 PUSH2 0xFE7 JUMP JUMPDEST PUSH2 0x1951 PUSH1 0x60 DUP4 ADD DUP5 PUSH2 0xFE7 JUMP JUMPDEST SWAP6 SWAP5 POP POP POP POP POP JUMP JUMPDEST PUSH32 0x7072696365206D7573742062652067726561746572207468616E203000000000 PUSH0 DUP3 ADD MSTORE POP JUMP JUMPDEST PUSH0 PUSH2 0x198E PUSH1 0x1C DUP4 PUSH2 0x1446 JUMP JUMPDEST SWAP2 POP PUSH2 0x1999 DUP3 PUSH2 0x195A JUMP JUMPDEST PUSH1 0x20 DUP3 ADD SWAP1 POP SWAP2 SWAP1 POP JUMP JUMPDEST PUSH0 PUSH1 0x20 DUP3 ADD SWAP1 POP DUP2 DUP2 SUB PUSH0 DUP4 ADD MSTORE PUSH2 0x19BB DUP2 PUSH2 0x1982 JUMP JUMPDEST SWAP1 POP SWAP2 SWAP1 POP JUMP JUMPDEST PUSH0 PUSH2 0x19CC DUP3 PUSH2 0xF4A JUMP JUMPDEST SWAP2 POP PUSH2 0x19D7 DUP4 PUSH2 0xF4A JUMP JUMPDEST SWAP3 POP DUP3 DUP3 SUB SWAP1 POP DUP2 DUP2 GT ISZERO PUSH2 0x19EF JUMPI PUSH2 0x19EE PUSH2 0x16CB JUMP JUMPDEST JUMPDEST SWAP3 SWAP2 POP POP JUMP JUMPDEST PUSH0 PUSH1 0x80 DUP3 ADD SWAP1 POP PUSH2 0x1A08 PUSH0 DUP4 ADD DUP8 PUSH2 0xFD8 JUMP JUMPDEST PUSH2 0x1A15 PUSH1 0x20 DUP4 ADD DUP7 PUSH2 0xFE7 JUMP JUMPDEST PUSH2 0x1A22 PUSH1 0x40 DUP4 ADD DUP6 PUSH2 0xFE7 JUMP JUMPDEST PUSH2 0x1A2F PUSH1 0x60 DUP4 ADD DUP5 PUSH2 0x1001 JUMP JUMPDEST SWAP6 SWAP5 POP POP POP POP POP JUMP JUMPDEST PUSH32 0x4E487B7100000000000000000000000000000000000000000000000000000000 PUSH0 MSTORE PUSH1 0x31 PUSH1 0x4 MSTORE PUSH1 0x24 PUSH0 REVERT INVALID LOG2 PUSH5 0x6970667358 0x22 SLT KECCAK256 LOG1 0x2A 0x22 0x4D SDIV PUSH0 MSIZE 0xA6 PUSH3 0x357CD7 0xB4 GAS 0xB2 PUSH9 0x6AA3D6BBD942D76ECF SWAP13 PUSH11 0x9DCC2CCD1C64736F6C6343 STOP ADDMOD AND STOP CALLER "
				},
				"gasEstimates": {
					"creation": {
						"codeDepositCost": "1362200",
						"executionCost": "infinite",
						"totalCost": "infinite"
					},
					"external": {
						"changeTheNftPrice(uint256,uint256)": "infinite",
						"erc20()": "infinite",
						"erc721()": "infinite",
						"idToIndexOrder(uint256)": "infinite",
						"onERC721Received(address,uint256,bytes)": "infinite",
						"orderOfId(uint256)": "infinite",
						"orders(uint256)": "infinite",
						"purchaseTheNft(uint256)": "infinite",
						"toUint256(bytes,uint256)": "infinite",
						"withDrawTheNft(uint256)": "infinite"
					},
					"internal": {
						"removeOrders(uint256)": "infinite"
					}
				},
				"methodIdentifiers": {
					"changeTheNftPrice(uint256,uint256)": "dcceb7a0",
					"erc20()": "785e9e86",
					"erc721()": "bca6ce64",
					"idToIndexOrder(uint256)": "97f78c5b",
					"onERC721Received(address,uint256,bytes)": "f0b9e5ba",
					"orderOfId(uint256)": "394a9077",
					"orders(uint256)": "a85c38ef",
					"purchaseTheNft(uint256)": "54b39af6",
					"toUint256(bytes,uint256)": "b5cdf924",
					"withDrawTheNft(uint256)": "84bd60f5"
				}
			},
			"storageLayout": {
				"storage": [
					{
						"astId": 221,
						"contract": "contracts/TheNftMarkContracts.sol:NFTMarket",
						"label": "erc20",
						"offset": 0,
						"slot": "0",
						"type": "t_contract(IERC20)85"
					},
					{
						"astId": 224,
						"contract": "contracts/TheNftMarkContracts.sol:NFTMarket",
						"label": "erc721",
						"offset": 0,
						"slot": "1",
						"type": "t_contract(IERC721)202"
					},
					{
						"astId": 243,
						"contract": "contracts/TheNftMarkContracts.sol:NFTMarket",
						"label": "orderOfId",
						"offset": 0,
						"slot": "2",
						"type": "t_mapping(t_uint256,t_struct(Order)238_storage)"
					},
					{
						"astId": 247,
						"contract": "contracts/TheNftMarkContracts.sol:NFTMarket",
						"label": "orders",
						"offset": 0,
						"slot": "3",
						"type": "t_array(t_struct(Order)238_storage)dyn_storage"
					},
					{
						"astId": 251,
						"contract": "contracts/TheNftMarkContracts.sol:NFTMarket",
						"label": "idToIndexOrder",
						"offset": 0,
						"slot": "4",
						"type": "t_mapping(t_uint256,t_uint256)"
					}
				],
				"types": {
					"t_address": {
						"encoding": "inplace",
						"label": "address",
						"numberOfBytes": "20"
					},
					"t_array(t_struct(Order)238_storage)dyn_storage": {
						"base": "t_struct(Order)238_storage",
						"encoding": "dynamic_array",
						"label": "struct NFTMarket.Order[]",
						"numberOfBytes": "32"
					},
					"t_bool": {
						"encoding": "inplace",
						"label": "bool",
						"numberOfBytes": "1"
					},
					"t_contract(IERC20)85": {
						"encoding": "inplace",
						"label": "contract IERC20",
						"numberOfBytes": "20"
					},
					"t_contract(IERC721)202": {
						"encoding": "inplace",
						"label": "contract IERC721",
						"numberOfBytes": "20"
					},
					"t_mapping(t_uint256,t_struct(Order)238_storage)": {
						"encoding": "mapping",
						"key": "t_uint256",
						"label": "mapping(uint256 => struct NFTMarket.Order)",
						"numberOfBytes": "32",
						"value": "t_struct(Order)238_storage"
					},
					"t_mapping(t_uint256,t_uint256)": {
						"encoding": "mapping",
						"key": "t_uint256",
						"label": "mapping(uint256 => uint256)",
						"numberOfBytes": "32",
						"value": "t_uint256"
					},
					"t_struct(Order)238_storage": {
						"encoding": "inplace",
						"label": "struct NFTMarket.Order",
						"members": [
							{
								"astId": 229,
								"contract": "contracts/TheNftMarkContracts.sol:NFTMarket",
								"label": "seller",
								"offset": 0,
								"slot": "0",
								"type": "t_address"
							},
							{
								"astId": 231,
								"contract": "contracts/TheNftMarkContracts.sol:NFTMarket",
								"label": "price",
								"offset": 0,
								"slot": "1",
								"type": "t_uint256"
							},
							{
								"astId": 233,
								"contract": "contracts/TheNftMarkContracts.sol:NFTMarket",
								"label": "_tokenId",
								"offset": 0,
								"slot": "2",
								"type": "t_uint256"
							},
							{
								"astId": 235,
								"contract": "contracts/TheNftMarkContracts.sol:NFTMarket",
								"label": "timeStamp",
								"offset": 0,
								"slot": "3",
								"type": "t_uint256"
							},
							{
								"astId": 237,
								"contract": "contracts/TheNftMarkContracts.sol:NFTMarket",
								"label": "saleState",
								"offset": 0,
								"slot": "4",
								"type": "t_bool"
							}
						],
						"numberOfBytes": "160"
					},
					"t_uint256": {
						"encoding": "inplace",
						"label": "uint256",
						"numberOfBytes": "32"
					}
				}
			},
			"userdoc": {
				"kind": "user",
				"methods": {},
				"version": 1
			}
		}
	}
}